{
	"backend/objects.sol": {
		"DeAuctionObjects": {
			"abi": [
				{
					"inputs": [],
					"stateMutability": "nonpayable",
					"type": "constructor"
				},
				{
					"inputs": [
						{
							"internalType": "uint256",
							"name": "",
							"type": "uint256"
						}
					],
					"name": "Objects",
					"outputs": [
						{
							"internalType": "string",
							"name": "name",
							"type": "string"
						},
						{
							"internalType": "string",
							"name": "description",
							"type": "string"
						},
						{
							"internalType": "string",
							"name": "email",
							"type": "string"
						},
						{
							"internalType": "uint256",
							"name": "startPrice",
							"type": "uint256"
						},
						{
							"internalType": "string",
							"name": "category",
							"type": "string"
						},
						{
							"internalType": "uint256",
							"name": "startDate",
							"type": "uint256"
						},
						{
							"internalType": "uint256",
							"name": "endDate",
							"type": "uint256"
						}
					],
					"stateMutability": "view",
					"type": "function"
				},
				{
					"inputs": [],
					"name": "TotalObjects",
					"outputs": [
						{
							"internalType": "uint256",
							"name": "",
							"type": "uint256"
						}
					],
					"stateMutability": "view",
					"type": "function"
				},
				{
					"inputs": [
						{
							"internalType": "string",
							"name": "name",
							"type": "string"
						},
						{
							"internalType": "string",
							"name": "description",
							"type": "string"
						},
						{
							"internalType": "string",
							"name": "email",
							"type": "string"
						},
						{
							"internalType": "uint256",
							"name": "startPrice",
							"type": "uint256"
						},
						{
							"internalType": "string",
							"name": "category",
							"type": "string"
						},
						{
							"internalType": "uint256",
							"name": "startDate",
							"type": "uint256"
						},
						{
							"internalType": "uint256",
							"name": "endDate",
							"type": "uint256"
						}
					],
					"name": "createObject",
					"outputs": [
						{
							"internalType": "uint256",
							"name": "",
							"type": "uint256"
						}
					],
					"stateMutability": "nonpayable",
					"type": "function"
				},
				{
					"inputs": [
						{
							"internalType": "string",
							"name": "email",
							"type": "string"
						}
					],
					"name": "delObject",
					"outputs": [
						{
							"internalType": "bool",
							"name": "",
							"type": "bool"
						}
					],
					"stateMutability": "nonpayable",
					"type": "function"
				},
				{
					"inputs": [
						{
							"internalType": "string",
							"name": "email",
							"type": "string"
						},
						{
							"internalType": "string",
							"name": "description",
							"type": "string"
						},
						{
							"internalType": "string",
							"name": "name",
							"type": "string"
						},
						{
							"internalType": "uint256",
							"name": "startPrice",
							"type": "uint256"
						},
						{
							"internalType": "uint256",
							"name": "startDate",
							"type": "uint256"
						},
						{
							"internalType": "uint256",
							"name": "endDate",
							"type": "uint256"
						}
					],
					"name": "updateObject",
					"outputs": [
						{
							"internalType": "bool",
							"name": "",
							"type": "bool"
						}
					],
					"stateMutability": "nonpayable",
					"type": "function"
				}
			],
			"devdoc": {
				"kind": "dev",
				"methods": {},
				"version": 1
			},
			"evm": {
				"assembly": "    /* \"backend/objects.sol\":64:2057  contract DeAuctionObjects{... */\n  mstore(0x40, 0x80)\n    /* \"backend/objects.sol\":362:408  constructor(){... */\n  callvalue\n  dup1\n  iszero\n  tag_1\n  jumpi\n  revert(0x00, 0x00)\ntag_1:\n  pop\n    /* \"backend/objects.sol\":400:401  0 */\n  0x00\n    /* \"backend/objects.sol\":385:397  TotalObjects */\n  0x01\n    /* \"backend/objects.sol\":385:401  TotalObjects = 0 */\n  dup2\n  swap1\n  sstore\n  pop\n    /* \"backend/objects.sol\":64:2057  contract DeAuctionObjects{... */\n  dataSize(sub_0)\n  dup1\n  dataOffset(sub_0)\n  0x00\n  codecopy\n  0x00\n  return\nstop\n\nsub_0: assembly {\n        /* \"backend/objects.sol\":64:2057  contract DeAuctionObjects{... */\n      mstore(0x40, 0x80)\n      callvalue\n      dup1\n      iszero\n      tag_1\n      jumpi\n      revert(0x00, 0x00)\n    tag_1:\n      pop\n      jumpi(tag_2, lt(calldatasize, 0x04))\n      shr(0xe0, calldataload(0x00))\n      dup1\n      0x1e768493\n      eq\n      tag_3\n      jumpi\n      dup1\n      0x23438efb\n      eq\n      tag_4\n      jumpi\n      dup1\n      0x49816d49\n      eq\n      tag_5\n      jumpi\n      dup1\n      0x59c1ed2c\n      eq\n      tag_6\n      jumpi\n      dup1\n      0x997a2ebb\n      eq\n      tag_7\n      jumpi\n    tag_2:\n      revert(0x00, 0x00)\n        /* \"backend/objects.sol\":1423:1845  function delObject(string memory email)external returns(bool){... */\n    tag_3:\n      tag_8\n      0x04\n      dup1\n      calldatasize\n      sub\n      dup2\n      add\n      swap1\n      tag_9\n      swap2\n      swap1\n      tag_10\n      jump\t// in\n    tag_9:\n      tag_11\n      jump\t// in\n    tag_8:\n      mload(0x40)\n      tag_12\n      swap2\n      swap1\n      tag_13\n      jump\t// in\n    tag_12:\n      mload(0x40)\n      dup1\n      swap2\n      sub\n      swap1\n      return\n        /* \"backend/objects.sol\":298:321  object[] public Objects */\n    tag_4:\n      tag_14\n      0x04\n      dup1\n      calldatasize\n      sub\n      dup2\n      add\n      swap1\n      tag_15\n      swap2\n      swap1\n      tag_16\n      jump\t// in\n    tag_15:\n      tag_17\n      jump\t// in\n    tag_14:\n      mload(0x40)\n      tag_18\n      swap8\n      swap7\n      swap6\n      swap5\n      swap4\n      swap3\n      swap2\n      swap1\n      tag_19\n      jump\t// in\n    tag_18:\n      mload(0x40)\n      dup1\n      swap2\n      sub\n      swap1\n      return\n        /* \"backend/objects.sol\":818:1417  function updateObject (string memory email, string memory description, string memory name, uint256 startPrice,  uint256 startDate, uint256 endDate) external returns(bool){... */\n    tag_5:\n      tag_20\n      0x04\n      dup1\n      calldatasize\n      sub\n      dup2\n      add\n      swap1\n      tag_21\n      swap2\n      swap1\n      tag_22\n      jump\t// in\n    tag_21:\n      tag_23\n      jump\t// in\n    tag_20:\n      mload(0x40)\n      tag_24\n      swap2\n      swap1\n      tag_13\n      jump\t// in\n    tag_24:\n      mload(0x40)\n      dup1\n      swap2\n      sub\n      swap1\n      return\n        /* \"backend/objects.sol\":414:812  function createObject (string memory name, string memory description, string memory email, uint256 startPrice, string memory category, uint256 startDate, uint256 endDate) public returns (uint256){... */\n    tag_6:\n      tag_25\n      0x04\n      dup1\n      calldatasize\n      sub\n      dup2\n      add\n      swap1\n      tag_26\n      swap2\n      swap1\n      tag_27\n      jump\t// in\n    tag_26:\n      tag_28\n      jump\t// in\n    tag_25:\n      mload(0x40)\n      tag_29\n      swap2\n      swap1\n      tag_30\n      jump\t// in\n    tag_29:\n      mload(0x40)\n      dup1\n      swap2\n      sub\n      swap1\n      return\n        /* \"backend/objects.sol\":327:354  uint256 public TotalObjects */\n    tag_7:\n      tag_31\n      tag_32\n      jump\t// in\n    tag_31:\n      mload(0x40)\n      tag_33\n      swap2\n      swap1\n      tag_30\n      jump\t// in\n    tag_33:\n      mload(0x40)\n      dup1\n      swap2\n      sub\n      swap1\n      return\n        /* \"backend/objects.sol\":1423:1845  function delObject(string memory email)external returns(bool){... */\n    tag_11:\n        /* \"backend/objects.sol\":1479:1483  bool */\n      0x00\n        /* \"backend/objects.sol\":1516:1517  0 */\n      0x00\n        /* \"backend/objects.sol\":1501:1513  TotalObjects */\n      sload(0x01)\n        /* \"backend/objects.sol\":1501:1517  TotalObjects > 0 */\n      gt\n        /* \"backend/objects.sol\":1494:1518  assert(TotalObjects > 0) */\n      tag_35\n      jumpi\n      tag_36\n      tag_37\n      jump\t// in\n    tag_36:\n    tag_35:\n        /* \"backend/objects.sol\":1532:1538  uint i */\n      0x00\n        /* \"backend/objects.sol\":1541:1542  0 */\n      0x00\n        /* \"backend/objects.sol\":1532:1542  uint i = 0 */\n      swap1\n      pop\n        /* \"backend/objects.sol\":1528:1817  for(uint i = 0 ; i < TotalObjects; i++){... */\n    tag_38:\n        /* \"backend/objects.sol\":1549:1561  TotalObjects */\n      sload(0x01)\n        /* \"backend/objects.sol\":1545:1546  i */\n      dup2\n        /* \"backend/objects.sol\":1545:1561  i < TotalObjects */\n      lt\n        /* \"backend/objects.sol\":1528:1817  for(uint i = 0 ; i < TotalObjects; i++){... */\n      iszero\n      tag_39\n      jumpi\n        /* \"backend/objects.sol\":1584:1623  compareStrings(Objects[i].email, email) */\n      tag_41\n        /* \"backend/objects.sol\":1599:1606  Objects */\n      0x00\n        /* \"backend/objects.sol\":1607:1608  i */\n      dup3\n        /* \"backend/objects.sol\":1599:1609  Objects[i] */\n      dup2\n      sload\n      dup2\n      lt\n      tag_42\n      jumpi\n      tag_43\n      tag_44\n      jump\t// in\n    tag_43:\n    tag_42:\n      swap1\n      0x00\n      mstore\n      keccak256(0x00, 0x20)\n      swap1\n      0x07\n      mul\n      add\n        /* \"backend/objects.sol\":1599:1615  Objects[i].email */\n      0x02\n      add\n        /* \"backend/objects.sol\":1584:1623  compareStrings(Objects[i].email, email) */\n      dup1\n      sload\n      tag_46\n      swap1\n      tag_47\n      jump\t// in\n    tag_46:\n      dup1\n      0x1f\n      add\n      0x20\n      dup1\n      swap2\n      div\n      mul\n      0x20\n      add\n      mload(0x40)\n      swap1\n      dup2\n      add\n      0x40\n      mstore\n      dup1\n      swap3\n      swap2\n      swap1\n      dup2\n      dup2\n      mstore\n      0x20\n      add\n      dup3\n      dup1\n      sload\n      tag_48\n      swap1\n      tag_47\n      jump\t// in\n    tag_48:\n      dup1\n      iszero\n      tag_49\n      jumpi\n      dup1\n      0x1f\n      lt\n      tag_50\n      jumpi\n      0x0100\n      dup1\n      dup4\n      sload\n      div\n      mul\n      dup4\n      mstore\n      swap2\n      0x20\n      add\n      swap2\n      jump(tag_49)\n    tag_50:\n      dup3\n      add\n      swap2\n      swap1\n      0x00\n      mstore\n      keccak256(0x00, 0x20)\n      swap1\n    tag_51:\n      dup2\n      sload\n      dup2\n      mstore\n      swap1\n      0x01\n      add\n      swap1\n      0x20\n      add\n      dup1\n      dup4\n      gt\n      tag_51\n      jumpi\n      dup3\n      swap1\n      sub\n      0x1f\n      and\n      dup3\n      add\n      swap2\n    tag_49:\n      pop\n      pop\n      pop\n      pop\n      pop\n        /* \"backend/objects.sol\":1617:1622  email */\n      dup5\n        /* \"backend/objects.sol\":1584:1598  compareStrings */\n      tag_52\n        /* \"backend/objects.sol\":1584:1623  compareStrings(Objects[i].email, email) */\n      jump\t// in\n    tag_41:\n        /* \"backend/objects.sol\":1581:1806  if(compareStrings(Objects[i].email, email)){... */\n      iszero\n      tag_53\n      jumpi\n        /* \"backend/objects.sol\":1655:1662  Objects */\n      0x00\n        /* \"backend/objects.sol\":1678:1679  1 */\n      0x01\n        /* \"backend/objects.sol\":1663:1675  TotalObjects */\n      dup1\n      sload\n        /* \"backend/objects.sol\":1663:1679  TotalObjects - 1 */\n      tag_54\n      swap2\n      swap1\n      tag_55\n      jump\t// in\n    tag_54:\n        /* \"backend/objects.sol\":1655:1680  Objects[TotalObjects - 1] */\n      dup2\n      sload\n      dup2\n      lt\n      tag_56\n      jumpi\n      tag_57\n      tag_44\n      jump\t// in\n    tag_57:\n    tag_56:\n      swap1\n      0x00\n      mstore\n      keccak256(0x00, 0x20)\n      swap1\n      0x07\n      mul\n      add\n        /* \"backend/objects.sol\":1642:1649  Objects */\n      0x00\n        /* \"backend/objects.sol\":1650:1651  i */\n      dup3\n        /* \"backend/objects.sol\":1642:1652  Objects[i] */\n      dup2\n      sload\n      dup2\n      lt\n      tag_59\n      jumpi\n      tag_60\n      tag_44\n      jump\t// in\n    tag_60:\n    tag_59:\n      swap1\n      0x00\n      mstore\n      keccak256(0x00, 0x20)\n      swap1\n      0x07\n      mul\n      add\n        /* \"backend/objects.sol\":1642:1680  Objects[i] = Objects[TotalObjects - 1] */\n      0x00\n      dup3\n      add\n      dup2\n      0x00\n      add\n      swap1\n      dup2\n      tag_62\n      swap2\n      swap1\n      tag_63\n      jump\t// in\n    tag_62:\n      pop\n      0x01\n      dup3\n      add\n      dup2\n      0x01\n      add\n      swap1\n      dup2\n      tag_64\n      swap2\n      swap1\n      tag_63\n      jump\t// in\n    tag_64:\n      pop\n      0x02\n      dup3\n      add\n      dup2\n      0x02\n      add\n      swap1\n      dup2\n      tag_65\n      swap2\n      swap1\n      tag_63\n      jump\t// in\n    tag_65:\n      pop\n      0x03\n      dup3\n      add\n      sload\n      dup2\n      0x03\n      add\n      sstore\n      0x04\n      dup3\n      add\n      dup2\n      0x04\n      add\n      swap1\n      dup2\n      tag_66\n      swap2\n      swap1\n      tag_63\n      jump\t// in\n    tag_66:\n      pop\n      0x05\n      dup3\n      add\n      sload\n      dup2\n      0x05\n      add\n      sstore\n      0x06\n      dup3\n      add\n      sload\n      dup2\n      0x06\n      add\n      sstore\n      swap1\n      pop\n      pop\n        /* \"backend/objects.sol\":1705:1712  Objects */\n      0x00\n        /* \"backend/objects.sol\":1728:1729  1 */\n      0x01\n        /* \"backend/objects.sol\":1713:1725  TotalObjects */\n      dup1\n      sload\n        /* \"backend/objects.sol\":1713:1729  TotalObjects - 1 */\n      tag_67\n      swap2\n      swap1\n      tag_55\n      jump\t// in\n    tag_67:\n        /* \"backend/objects.sol\":1705:1730  Objects[TotalObjects - 1] */\n      dup2\n      sload\n      dup2\n      lt\n      tag_68\n      jumpi\n      tag_69\n      tag_44\n      jump\t// in\n    tag_69:\n    tag_68:\n      swap1\n      0x00\n      mstore\n      keccak256(0x00, 0x20)\n      swap1\n      0x07\n      mul\n      add\n      0x00\n        /* \"backend/objects.sol\":1698:1730  delete Objects[TotalObjects - 1] */\n      0x00\n      dup3\n      add\n      0x00\n      tag_71\n      swap2\n      swap1\n      tag_72\n      jump\t// in\n    tag_71:\n      0x01\n      dup3\n      add\n      0x00\n      tag_73\n      swap2\n      swap1\n      tag_72\n      jump\t// in\n    tag_73:\n      0x02\n      dup3\n      add\n      0x00\n      tag_74\n      swap2\n      swap1\n      tag_72\n      jump\t// in\n    tag_74:\n      0x03\n      dup3\n      add\n      0x00\n      swap1\n      sstore\n      0x04\n      dup3\n      add\n      0x00\n      tag_75\n      swap2\n      swap1\n      tag_72\n      jump\t// in\n    tag_75:\n      0x05\n      dup3\n      add\n      0x00\n      swap1\n      sstore\n      0x06\n      dup3\n      add\n      0x00\n      swap1\n      sstore\n      pop\n      pop\n        /* \"backend/objects.sol\":1748:1760  TotalObjects */\n      0x01\n      0x00\n        /* \"backend/objects.sol\":1748:1762  TotalObjects-- */\n      dup2\n      sload\n      dup1\n      swap3\n      swap2\n      swap1\n      tag_76\n      swap1\n      tag_77\n      jump\t// in\n    tag_76:\n      swap2\n      swap1\n      pop\n      sstore\n      pop\n        /* \"backend/objects.sol\":1787:1791  true */\n      0x01\n        /* \"backend/objects.sol\":1780:1791  return true */\n      swap2\n      pop\n      pop\n      jump(tag_34)\n        /* \"backend/objects.sol\":1581:1806  if(compareStrings(Objects[i].email, email)){... */\n    tag_53:\n        /* \"backend/objects.sol\":1563:1566  i++ */\n      dup1\n      dup1\n      0x01\n      add\n      swap2\n      pop\n      pop\n        /* \"backend/objects.sol\":1528:1817  for(uint i = 0 ; i < TotalObjects; i++){... */\n      jump(tag_38)\n    tag_39:\n      pop\n        /* \"backend/objects.sol\":1833:1838  false */\n      0x00\n        /* \"backend/objects.sol\":1826:1838  return false */\n      swap1\n      pop\n        /* \"backend/objects.sol\":1423:1845  function delObject(string memory email)external returns(bool){... */\n    tag_34:\n      swap2\n      swap1\n      pop\n      jump\t// out\n        /* \"backend/objects.sol\":298:321  object[] public Objects */\n    tag_17:\n      0x00\n      dup2\n      dup2\n      sload\n      dup2\n      lt\n      tag_78\n      jumpi\n      0x00\n      dup1\n      revert\n    tag_78:\n      swap1\n      0x00\n      mstore\n      keccak256(0x00, 0x20)\n      swap1\n      0x07\n      mul\n      add\n      0x00\n      swap2\n      pop\n      swap1\n      pop\n      dup1\n      0x00\n      add\n      dup1\n      sload\n      tag_80\n      swap1\n      tag_47\n      jump\t// in\n    tag_80:\n      dup1\n      0x1f\n      add\n      0x20\n      dup1\n      swap2\n      div\n      mul\n      0x20\n      add\n      mload(0x40)\n      swap1\n      dup2\n      add\n      0x40\n      mstore\n      dup1\n      swap3\n      swap2\n      swap1\n      dup2\n      dup2\n      mstore\n      0x20\n      add\n      dup3\n      dup1\n      sload\n      tag_81\n      swap1\n      tag_47\n      jump\t// in\n    tag_81:\n      dup1\n      iszero\n      tag_82\n      jumpi\n      dup1\n      0x1f\n      lt\n      tag_83\n      jumpi\n      0x0100\n      dup1\n      dup4\n      sload\n      div\n      mul\n      dup4\n      mstore\n      swap2\n      0x20\n      add\n      swap2\n      jump(tag_82)\n    tag_83:\n      dup3\n      add\n      swap2\n      swap1\n      0x00\n      mstore\n      keccak256(0x00, 0x20)\n      swap1\n    tag_84:\n      dup2\n      sload\n      dup2\n      mstore\n      swap1\n      0x01\n      add\n      swap1\n      0x20\n      add\n      dup1\n      dup4\n      gt\n      tag_84\n      jumpi\n      dup3\n      swap1\n      sub\n      0x1f\n      and\n      dup3\n      add\n      swap2\n    tag_82:\n      pop\n      pop\n      pop\n      pop\n      pop\n      swap1\n      dup1\n      0x01\n      add\n      dup1\n      sload\n      tag_85\n      swap1\n      tag_47\n      jump\t// in\n    tag_85:\n      dup1\n      0x1f\n      add\n      0x20\n      dup1\n      swap2\n      div\n      mul\n      0x20\n      add\n      mload(0x40)\n      swap1\n      dup2\n      add\n      0x40\n      mstore\n      dup1\n      swap3\n      swap2\n      swap1\n      dup2\n      dup2\n      mstore\n      0x20\n      add\n      dup3\n      dup1\n      sload\n      tag_86\n      swap1\n      tag_47\n      jump\t// in\n    tag_86:\n      dup1\n      iszero\n      tag_87\n      jumpi\n      dup1\n      0x1f\n      lt\n      tag_88\n      jumpi\n      0x0100\n      dup1\n      dup4\n      sload\n      div\n      mul\n      dup4\n      mstore\n      swap2\n      0x20\n      add\n      swap2\n      jump(tag_87)\n    tag_88:\n      dup3\n      add\n      swap2\n      swap1\n      0x00\n      mstore\n      keccak256(0x00, 0x20)\n      swap1\n    tag_89:\n      dup2\n      sload\n      dup2\n      mstore\n      swap1\n      0x01\n      add\n      swap1\n      0x20\n      add\n      dup1\n      dup4\n      gt\n      tag_89\n      jumpi\n      dup3\n      swap1\n      sub\n      0x1f\n      and\n      dup3\n      add\n      swap2\n    tag_87:\n      pop\n      pop\n      pop\n      pop\n      pop\n      swap1\n      dup1\n      0x02\n      add\n      dup1\n      sload\n      tag_90\n      swap1\n      tag_47\n      jump\t// in\n    tag_90:\n      dup1\n      0x1f\n      add\n      0x20\n      dup1\n      swap2\n      div\n      mul\n      0x20\n      add\n      mload(0x40)\n      swap1\n      dup2\n      add\n      0x40\n      mstore\n      dup1\n      swap3\n      swap2\n      swap1\n      dup2\n      dup2\n      mstore\n      0x20\n      add\n      dup3\n      dup1\n      sload\n      tag_91\n      swap1\n      tag_47\n      jump\t// in\n    tag_91:\n      dup1\n      iszero\n      tag_92\n      jumpi\n      dup1\n      0x1f\n      lt\n      tag_93\n      jumpi\n      0x0100\n      dup1\n      dup4\n      sload\n      div\n      mul\n      dup4\n      mstore\n      swap2\n      0x20\n      add\n      swap2\n      jump(tag_92)\n    tag_93:\n      dup3\n      add\n      swap2\n      swap1\n      0x00\n      mstore\n      keccak256(0x00, 0x20)\n      swap1\n    tag_94:\n      dup2\n      sload\n      dup2\n      mstore\n      swap1\n      0x01\n      add\n      swap1\n      0x20\n      add\n      dup1\n      dup4\n      gt\n      tag_94\n      jumpi\n      dup3\n      swap1\n      sub\n      0x1f\n      and\n      dup3\n      add\n      swap2\n    tag_92:\n      pop\n      pop\n      pop\n      pop\n      pop\n      swap1\n      dup1\n      0x03\n      add\n      sload\n      swap1\n      dup1\n      0x04\n      add\n      dup1\n      sload\n      tag_95\n      swap1\n      tag_47\n      jump\t// in\n    tag_95:\n      dup1\n      0x1f\n      add\n      0x20\n      dup1\n      swap2\n      div\n      mul\n      0x20\n      add\n      mload(0x40)\n      swap1\n      dup2\n      add\n      0x40\n      mstore\n      dup1\n      swap3\n      swap2\n      swap1\n      dup2\n      dup2\n      mstore\n      0x20\n      add\n      dup3\n      dup1\n      sload\n      tag_96\n      swap1\n      tag_47\n      jump\t// in\n    tag_96:\n      dup1\n      iszero\n      tag_97\n      jumpi\n      dup1\n      0x1f\n      lt\n      tag_98\n      jumpi\n      0x0100\n      dup1\n      dup4\n      sload\n      div\n      mul\n      dup4\n      mstore\n      swap2\n      0x20\n      add\n      swap2\n      jump(tag_97)\n    tag_98:\n      dup3\n      add\n      swap2\n      swap1\n      0x00\n      mstore\n      keccak256(0x00, 0x20)\n      swap1\n    tag_99:\n      dup2\n      sload\n      dup2\n      mstore\n      swap1\n      0x01\n      add\n      swap1\n      0x20\n      add\n      dup1\n      dup4\n      gt\n      tag_99\n      jumpi\n      dup3\n      swap1\n      sub\n      0x1f\n      and\n      dup3\n      add\n      swap2\n    tag_97:\n      pop\n      pop\n      pop\n      pop\n      pop\n      swap1\n      dup1\n      0x05\n      add\n      sload\n      swap1\n      dup1\n      0x06\n      add\n      sload\n      swap1\n      pop\n      dup8\n      jump\t// out\n        /* \"backend/objects.sol\":818:1417  function updateObject (string memory email, string memory description, string memory name, uint256 startPrice,  uint256 startDate, uint256 endDate) external returns(bool){... */\n    tag_23:\n        /* \"backend/objects.sol\":983:987  bool */\n      0x00\n        /* \"backend/objects.sol\":1002:1008  uint i */\n      0x00\n        /* \"backend/objects.sol\":1011:1012  0 */\n      0x00\n        /* \"backend/objects.sol\":1002:1012  uint i = 0 */\n      swap1\n      pop\n        /* \"backend/objects.sol\":998:1389  for(uint i = 0; i < TotalObjects; i++){... */\n    tag_101:\n        /* \"backend/objects.sol\":1018:1030  TotalObjects */\n      sload(0x01)\n        /* \"backend/objects.sol\":1014:1015  i */\n      dup2\n        /* \"backend/objects.sol\":1014:1030  i < TotalObjects */\n      lt\n        /* \"backend/objects.sol\":998:1389  for(uint i = 0; i < TotalObjects; i++){... */\n      iszero\n      tag_102\n      jumpi\n        /* \"backend/objects.sol\":1053:1092  compareStrings(Objects[i].email, email) */\n      tag_104\n        /* \"backend/objects.sol\":1068:1075  Objects */\n      0x00\n        /* \"backend/objects.sol\":1076:1077  i */\n      dup3\n        /* \"backend/objects.sol\":1068:1078  Objects[i] */\n      dup2\n      sload\n      dup2\n      lt\n      tag_105\n      jumpi\n      tag_106\n      tag_44\n      jump\t// in\n    tag_106:\n    tag_105:\n      swap1\n      0x00\n      mstore\n      keccak256(0x00, 0x20)\n      swap1\n      0x07\n      mul\n      add\n        /* \"backend/objects.sol\":1068:1084  Objects[i].email */\n      0x02\n      add\n        /* \"backend/objects.sol\":1053:1092  compareStrings(Objects[i].email, email) */\n      dup1\n      sload\n      tag_108\n      swap1\n      tag_47\n      jump\t// in\n    tag_108:\n      dup1\n      0x1f\n      add\n      0x20\n      dup1\n      swap2\n      div\n      mul\n      0x20\n      add\n      mload(0x40)\n      swap1\n      dup2\n      add\n      0x40\n      mstore\n      dup1\n      swap3\n      swap2\n      swap1\n      dup2\n      dup2\n      mstore\n      0x20\n      add\n      dup3\n      dup1\n      sload\n      tag_109\n      swap1\n      tag_47\n      jump\t// in\n    tag_109:\n      dup1\n      iszero\n      tag_110\n      jumpi\n      dup1\n      0x1f\n      lt\n      tag_111\n      jumpi\n      0x0100\n      dup1\n      dup4\n      sload\n      div\n      mul\n      dup4\n      mstore\n      swap2\n      0x20\n      add\n      swap2\n      jump(tag_110)\n    tag_111:\n      dup3\n      add\n      swap2\n      swap1\n      0x00\n      mstore\n      keccak256(0x00, 0x20)\n      swap1\n    tag_112:\n      dup2\n      sload\n      dup2\n      mstore\n      swap1\n      0x01\n      add\n      swap1\n      0x20\n      add\n      dup1\n      dup4\n      gt\n      tag_112\n      jumpi\n      dup3\n      swap1\n      sub\n      0x1f\n      and\n      dup3\n      add\n      swap2\n    tag_110:\n      pop\n      pop\n      pop\n      pop\n      pop\n        /* \"backend/objects.sol\":1086:1091  email */\n      dup10\n        /* \"backend/objects.sol\":1053:1067  compareStrings */\n      tag_52\n        /* \"backend/objects.sol\":1053:1092  compareStrings(Objects[i].email, email) */\n      jump\t// in\n    tag_104:\n        /* \"backend/objects.sol\":1050:1379  if(compareStrings(Objects[i].email, email)){... */\n      iszero\n      tag_113\n      jumpi\n        /* \"backend/objects.sol\":1129:1133  name */\n      dup6\n        /* \"backend/objects.sol\":1111:1118  Objects */\n      0x00\n        /* \"backend/objects.sol\":1119:1120  i */\n      dup3\n        /* \"backend/objects.sol\":1111:1121  Objects[i] */\n      dup2\n      sload\n      dup2\n      lt\n      tag_114\n      jumpi\n      tag_115\n      tag_44\n      jump\t// in\n    tag_115:\n    tag_114:\n      swap1\n      0x00\n      mstore\n      keccak256(0x00, 0x20)\n      swap1\n      0x07\n      mul\n      add\n        /* \"backend/objects.sol\":1111:1126  Objects[i].name */\n      0x00\n      add\n        /* \"backend/objects.sol\":1111:1133  Objects[i].name = name */\n      swap1\n      dup2\n      tag_117\n      swap2\n      swap1\n      tag_118\n      jump\t// in\n    tag_117:\n      pop\n        /* \"backend/objects.sol\":1176:1187  description */\n      dup7\n        /* \"backend/objects.sol\":1151:1158  Objects */\n      0x00\n        /* \"backend/objects.sol\":1159:1160  i */\n      dup3\n        /* \"backend/objects.sol\":1151:1161  Objects[i] */\n      dup2\n      sload\n      dup2\n      lt\n      tag_119\n      jumpi\n      tag_120\n      tag_44\n      jump\t// in\n    tag_120:\n    tag_119:\n      swap1\n      0x00\n      mstore\n      keccak256(0x00, 0x20)\n      swap1\n      0x07\n      mul\n      add\n        /* \"backend/objects.sol\":1151:1173  Objects[i].description */\n      0x01\n      add\n        /* \"backend/objects.sol\":1151:1187  Objects[i].description = description */\n      swap1\n      dup2\n      tag_122\n      swap2\n      swap1\n      tag_118\n      jump\t// in\n    tag_122:\n      pop\n        /* \"backend/objects.sol\":1229:1239  startPrice */\n      dup5\n        /* \"backend/objects.sol\":1205:1212  Objects */\n      0x00\n        /* \"backend/objects.sol\":1213:1214  i */\n      dup3\n        /* \"backend/objects.sol\":1205:1215  Objects[i] */\n      dup2\n      sload\n      dup2\n      lt\n      tag_123\n      jumpi\n      tag_124\n      tag_44\n      jump\t// in\n    tag_124:\n    tag_123:\n      swap1\n      0x00\n      mstore\n      keccak256(0x00, 0x20)\n      swap1\n      0x07\n      mul\n      add\n        /* \"backend/objects.sol\":1205:1226  Objects[i].startPrice */\n      0x03\n      add\n        /* \"backend/objects.sol\":1205:1239  Objects[i].startPrice = startPrice */\n      dup2\n      swap1\n      sstore\n      pop\n        /* \"backend/objects.sol\":1280:1289  startDate */\n      dup4\n        /* \"backend/objects.sol\":1257:1264  Objects */\n      0x00\n        /* \"backend/objects.sol\":1265:1266  i */\n      dup3\n        /* \"backend/objects.sol\":1257:1267  Objects[i] */\n      dup2\n      sload\n      dup2\n      lt\n      tag_126\n      jumpi\n      tag_127\n      tag_44\n      jump\t// in\n    tag_127:\n    tag_126:\n      swap1\n      0x00\n      mstore\n      keccak256(0x00, 0x20)\n      swap1\n      0x07\n      mul\n      add\n        /* \"backend/objects.sol\":1257:1277  Objects[i].startDate */\n      0x05\n      add\n        /* \"backend/objects.sol\":1257:1289  Objects[i].startDate = startDate */\n      dup2\n      swap1\n      sstore\n      pop\n        /* \"backend/objects.sol\":1328:1335  endDate */\n      dup3\n        /* \"backend/objects.sol\":1307:1314  Objects */\n      0x00\n        /* \"backend/objects.sol\":1315:1316  i */\n      dup3\n        /* \"backend/objects.sol\":1307:1317  Objects[i] */\n      dup2\n      sload\n      dup2\n      lt\n      tag_129\n      jumpi\n      tag_130\n      tag_44\n      jump\t// in\n    tag_130:\n    tag_129:\n      swap1\n      0x00\n      mstore\n      keccak256(0x00, 0x20)\n      swap1\n      0x07\n      mul\n      add\n        /* \"backend/objects.sol\":1307:1325  Objects[i].endDate */\n      0x06\n      add\n        /* \"backend/objects.sol\":1307:1335  Objects[i].endDate = endDate */\n      dup2\n      swap1\n      sstore\n      pop\n        /* \"backend/objects.sol\":1360:1364  true */\n      0x01\n        /* \"backend/objects.sol\":1353:1364  return true */\n      swap2\n      pop\n      pop\n      jump(tag_100)\n        /* \"backend/objects.sol\":1050:1379  if(compareStrings(Objects[i].email, email)){... */\n    tag_113:\n        /* \"backend/objects.sol\":1032:1035  i++ */\n      dup1\n      dup1\n      0x01\n      add\n      swap2\n      pop\n      pop\n        /* \"backend/objects.sol\":998:1389  for(uint i = 0; i < TotalObjects; i++){... */\n      jump(tag_101)\n    tag_102:\n      pop\n        /* \"backend/objects.sol\":1405:1410  false */\n      0x00\n        /* \"backend/objects.sol\":1398:1410  return false */\n      swap1\n      pop\n        /* \"backend/objects.sol\":818:1417  function updateObject (string memory email, string memory description, string memory name, uint256 startPrice,  uint256 startDate, uint256 endDate) external returns(bool){... */\n    tag_100:\n      swap7\n      swap6\n      pop\n      pop\n      pop\n      pop\n      pop\n      pop\n      jump\t// out\n        /* \"backend/objects.sol\":414:812  function createObject (string memory name, string memory description, string memory email, uint256 startPrice, string memory category, uint256 startDate, uint256 endDate) public returns (uint256){... */\n    tag_28:\n        /* \"backend/objects.sol\":601:608  uint256 */\n      0x00\n        /* \"backend/objects.sol\":619:642  object memory newObject */\n      0x00\n        /* \"backend/objects.sol\":645:719  object(name, description, email, startPrice, category, startDate, endDate) */\n      mload(0x40)\n      dup1\n      0xe0\n      add\n      0x40\n      mstore\n      dup1\n        /* \"backend/objects.sol\":652:656  name */\n      dup11\n        /* \"backend/objects.sol\":645:719  object(name, description, email, startPrice, category, startDate, endDate) */\n      dup2\n      mstore\n      0x20\n      add\n        /* \"backend/objects.sol\":658:669  description */\n      dup10\n        /* \"backend/objects.sol\":645:719  object(name, description, email, startPrice, category, startDate, endDate) */\n      dup2\n      mstore\n      0x20\n      add\n        /* \"backend/objects.sol\":671:676  email */\n      dup9\n        /* \"backend/objects.sol\":645:719  object(name, description, email, startPrice, category, startDate, endDate) */\n      dup2\n      mstore\n      0x20\n      add\n        /* \"backend/objects.sol\":678:688  startPrice */\n      dup8\n        /* \"backend/objects.sol\":645:719  object(name, description, email, startPrice, category, startDate, endDate) */\n      dup2\n      mstore\n      0x20\n      add\n        /* \"backend/objects.sol\":690:698  category */\n      dup7\n        /* \"backend/objects.sol\":645:719  object(name, description, email, startPrice, category, startDate, endDate) */\n      dup2\n      mstore\n      0x20\n      add\n        /* \"backend/objects.sol\":700:709  startDate */\n      dup6\n        /* \"backend/objects.sol\":645:719  object(name, description, email, startPrice, category, startDate, endDate) */\n      dup2\n      mstore\n      0x20\n      add\n        /* \"backend/objects.sol\":711:718  endDate */\n      dup5\n        /* \"backend/objects.sol\":645:719  object(name, description, email, startPrice, category, startDate, endDate) */\n      dup2\n      mstore\n      pop\n        /* \"backend/objects.sol\":619:719  object memory newObject = object(name, description, email, startPrice, category, startDate, endDate) */\n      swap1\n      pop\n        /* \"backend/objects.sol\":729:736  Objects */\n      0x00\n        /* \"backend/objects.sol\":742:751  newObject */\n      dup2\n        /* \"backend/objects.sol\":729:752  Objects.push(newObject) */\n      swap1\n      dup1\n      0x01\n      dup2\n      sload\n      add\n      dup1\n      dup3\n      sstore\n      dup1\n      swap2\n      pop\n      pop\n      0x01\n      swap1\n      sub\n      swap1\n      0x00\n      mstore\n      keccak256(0x00, 0x20)\n      swap1\n      0x07\n      mul\n      add\n      0x00\n      swap1\n      swap2\n      swap1\n      swap2\n      swap1\n      swap2\n      pop\n      0x00\n      dup3\n      add\n      mload\n      dup2\n      0x00\n      add\n      swap1\n      dup2\n      tag_134\n      swap2\n      swap1\n      tag_118\n      jump\t// in\n    tag_134:\n      pop\n      0x20\n      dup3\n      add\n      mload\n      dup2\n      0x01\n      add\n      swap1\n      dup2\n      tag_135\n      swap2\n      swap1\n      tag_118\n      jump\t// in\n    tag_135:\n      pop\n      0x40\n      dup3\n      add\n      mload\n      dup2\n      0x02\n      add\n      swap1\n      dup2\n      tag_136\n      swap2\n      swap1\n      tag_118\n      jump\t// in\n    tag_136:\n      pop\n      0x60\n      dup3\n      add\n      mload\n      dup2\n      0x03\n      add\n      sstore\n      0x80\n      dup3\n      add\n      mload\n      dup2\n      0x04\n      add\n      swap1\n      dup2\n      tag_137\n      swap2\n      swap1\n      tag_118\n      jump\t// in\n    tag_137:\n      pop\n      0xa0\n      dup3\n      add\n      mload\n      dup2\n      0x05\n      add\n      sstore\n      0xc0\n      dup3\n      add\n      mload\n      dup2\n      0x06\n      add\n      sstore\n      pop\n      pop\n        /* \"backend/objects.sol\":762:774  TotalObjects */\n      0x01\n      0x00\n        /* \"backend/objects.sol\":762:776  TotalObjects++ */\n      dup2\n      sload\n      dup1\n      swap3\n      swap2\n      swap1\n      tag_138\n      swap1\n      tag_139\n      jump\t// in\n    tag_138:\n      swap2\n      swap1\n      pop\n      sstore\n      pop\n        /* \"backend/objects.sol\":793:805  TotalObjects */\n      sload(0x01)\n        /* \"backend/objects.sol\":786:805  return TotalObjects */\n      swap2\n      pop\n      pop\n        /* \"backend/objects.sol\":414:812  function createObject (string memory name, string memory description, string memory email, uint256 startPrice, string memory category, uint256 startDate, uint256 endDate) public returns (uint256){... */\n      swap8\n      swap7\n      pop\n      pop\n      pop\n      pop\n      pop\n      pop\n      pop\n      jump\t// out\n        /* \"backend/objects.sol\":327:354  uint256 public TotalObjects */\n    tag_32:\n      sload(0x01)\n      dup2\n      jump\t// out\n        /* \"backend/objects.sol\":1880:2055  function compareStrings(string memory a, string memory b) internal pure returns (bool) {... */\n    tag_52:\n        /* \"backend/objects.sol\":1961:1965  bool */\n      0x00\n        /* \"backend/objects.sol\":2045:2046  b */\n      dup2\n        /* \"backend/objects.sol\":2028:2047  abi.encodePacked(b) */\n      add(0x20, mload(0x40))\n      tag_141\n      swap2\n      swap1\n      tag_142\n      jump\t// in\n    tag_141:\n      mload(0x40)\n      0x20\n      dup2\n      dup4\n      sub\n      sub\n      dup2\n      mstore\n      swap1\n      0x40\n      mstore\n        /* \"backend/objects.sol\":2018:2048  keccak256(abi.encodePacked(b)) */\n      dup1\n      mload\n      swap1\n      0x20\n      add\n      keccak256\n        /* \"backend/objects.sol\":2011:2012  a */\n      dup4\n        /* \"backend/objects.sol\":1994:2013  abi.encodePacked(a) */\n      add(0x20, mload(0x40))\n      tag_143\n      swap2\n      swap1\n      tag_142\n      jump\t// in\n    tag_143:\n      mload(0x40)\n      0x20\n      dup2\n      dup4\n      sub\n      sub\n      dup2\n      mstore\n      swap1\n      0x40\n      mstore\n        /* \"backend/objects.sol\":1984:2014  keccak256(abi.encodePacked(a)) */\n      dup1\n      mload\n      swap1\n      0x20\n      add\n      keccak256\n        /* \"backend/objects.sol\":1984:2048  keccak256(abi.encodePacked(a)) == keccak256(abi.encodePacked(b)) */\n      eq\n        /* \"backend/objects.sol\":1977:2048  return keccak256(abi.encodePacked(a)) == keccak256(abi.encodePacked(b)) */\n      swap1\n      pop\n        /* \"backend/objects.sol\":1880:2055  function compareStrings(string memory a, string memory b) internal pure returns (bool) {... */\n      swap3\n      swap2\n      pop\n      pop\n      jump\t// out\n    tag_72:\n      pop\n      dup1\n      sload\n      tag_144\n      swap1\n      tag_47\n      jump\t// in\n    tag_144:\n      0x00\n      dup3\n      sstore\n      dup1\n      0x1f\n      lt\n      tag_146\n      jumpi\n      pop\n      jump(tag_145)\n    tag_146:\n      0x1f\n      add\n      0x20\n      swap1\n      div\n      swap1\n      0x00\n      mstore\n      keccak256(0x00, 0x20)\n      swap1\n      dup2\n      add\n      swap1\n      tag_147\n      swap2\n      swap1\n      tag_148\n      jump\t// in\n    tag_147:\n    tag_145:\n      pop\n      jump\t// out\n    tag_148:\n    tag_149:\n      dup1\n      dup3\n      gt\n      iszero\n      tag_150\n      jumpi\n      0x00\n      dup2\n      0x00\n      swap1\n      sstore\n      pop\n      0x01\n      add\n      jump(tag_149)\n    tag_150:\n      pop\n      swap1\n      jump\t// out\n        /* \"#utility.yul\":7:82   */\n    tag_151:\n        /* \"#utility.yul\":40:46   */\n      0x00\n        /* \"#utility.yul\":73:75   */\n      0x40\n        /* \"#utility.yul\":67:76   */\n      mload\n        /* \"#utility.yul\":57:76   */\n      swap1\n      pop\n        /* \"#utility.yul\":7:82   */\n      swap1\n      jump\t// out\n        /* \"#utility.yul\":88:205   */\n    tag_152:\n        /* \"#utility.yul\":197:198   */\n      0x00\n        /* \"#utility.yul\":194:195   */\n      0x00\n        /* \"#utility.yul\":187:199   */\n      revert\n        /* \"#utility.yul\":211:328   */\n    tag_153:\n        /* \"#utility.yul\":320:321   */\n      0x00\n        /* \"#utility.yul\":317:318   */\n      0x00\n        /* \"#utility.yul\":310:322   */\n      revert\n        /* \"#utility.yul\":334:451   */\n    tag_154:\n        /* \"#utility.yul\":443:444   */\n      0x00\n        /* \"#utility.yul\":440:441   */\n      0x00\n        /* \"#utility.yul\":433:445   */\n      revert\n        /* \"#utility.yul\":457:574   */\n    tag_155:\n        /* \"#utility.yul\":566:567   */\n      0x00\n        /* \"#utility.yul\":563:564   */\n      0x00\n        /* \"#utility.yul\":556:568   */\n      revert\n        /* \"#utility.yul\":580:682   */\n    tag_156:\n        /* \"#utility.yul\":621:627   */\n      0x00\n        /* \"#utility.yul\":672:674   */\n      0x1f\n        /* \"#utility.yul\":668:675   */\n      not\n        /* \"#utility.yul\":663:665   */\n      0x1f\n        /* \"#utility.yul\":656:661   */\n      dup4\n        /* \"#utility.yul\":652:666   */\n      add\n        /* \"#utility.yul\":648:676   */\n      and\n        /* \"#utility.yul\":638:676   */\n      swap1\n      pop\n        /* \"#utility.yul\":580:682   */\n      swap2\n      swap1\n      pop\n      jump\t// out\n        /* \"#utility.yul\":688:868   */\n    tag_157:\n        /* \"#utility.yul\":736:813   */\n      0x4e487b7100000000000000000000000000000000000000000000000000000000\n        /* \"#utility.yul\":733:734   */\n      0x00\n        /* \"#utility.yul\":726:814   */\n      mstore\n        /* \"#utility.yul\":833:837   */\n      0x41\n        /* \"#utility.yul\":830:831   */\n      0x04\n        /* \"#utility.yul\":823:838   */\n      mstore\n        /* \"#utility.yul\":857:861   */\n      0x24\n        /* \"#utility.yul\":854:855   */\n      0x00\n        /* \"#utility.yul\":847:862   */\n      revert\n        /* \"#utility.yul\":874:1155   */\n    tag_158:\n        /* \"#utility.yul\":957:984   */\n      tag_203\n        /* \"#utility.yul\":979:983   */\n      dup3\n        /* \"#utility.yul\":957:984   */\n      tag_156\n      jump\t// in\n    tag_203:\n        /* \"#utility.yul\":949:955   */\n      dup2\n        /* \"#utility.yul\":945:985   */\n      add\n        /* \"#utility.yul\":1087:1093   */\n      dup2\n        /* \"#utility.yul\":1075:1085   */\n      dup2\n        /* \"#utility.yul\":1072:1094   */\n      lt\n        /* \"#utility.yul\":1051:1069   */\n      0xffffffffffffffff\n        /* \"#utility.yul\":1039:1049   */\n      dup3\n        /* \"#utility.yul\":1036:1070   */\n      gt\n        /* \"#utility.yul\":1033:1095   */\n      or\n        /* \"#utility.yul\":1030:1118   */\n      iszero\n      tag_204\n      jumpi\n        /* \"#utility.yul\":1098:1116   */\n      tag_205\n      tag_157\n      jump\t// in\n    tag_205:\n        /* \"#utility.yul\":1030:1118   */\n    tag_204:\n        /* \"#utility.yul\":1138:1148   */\n      dup1\n        /* \"#utility.yul\":1134:1136   */\n      0x40\n        /* \"#utility.yul\":1127:1149   */\n      mstore\n        /* \"#utility.yul\":917:1155   */\n      pop\n        /* \"#utility.yul\":874:1155   */\n      pop\n      pop\n      jump\t// out\n        /* \"#utility.yul\":1161:1290   */\n    tag_159:\n        /* \"#utility.yul\":1195:1201   */\n      0x00\n        /* \"#utility.yul\":1222:1242   */\n      tag_207\n      tag_151\n      jump\t// in\n    tag_207:\n        /* \"#utility.yul\":1212:1242   */\n      swap1\n      pop\n        /* \"#utility.yul\":1251:1284   */\n      tag_208\n        /* \"#utility.yul\":1279:1283   */\n      dup3\n        /* \"#utility.yul\":1271:1277   */\n      dup3\n        /* \"#utility.yul\":1251:1284   */\n      tag_158\n      jump\t// in\n    tag_208:\n        /* \"#utility.yul\":1161:1290   */\n      swap2\n      swap1\n      pop\n      jump\t// out\n        /* \"#utility.yul\":1296:1604   */\n    tag_160:\n        /* \"#utility.yul\":1358:1362   */\n      0x00\n        /* \"#utility.yul\":1448:1466   */\n      0xffffffffffffffff\n        /* \"#utility.yul\":1440:1446   */\n      dup3\n        /* \"#utility.yul\":1437:1467   */\n      gt\n        /* \"#utility.yul\":1434:1490   */\n      iszero\n      tag_210\n      jumpi\n        /* \"#utility.yul\":1470:1488   */\n      tag_211\n      tag_157\n      jump\t// in\n    tag_211:\n        /* \"#utility.yul\":1434:1490   */\n    tag_210:\n        /* \"#utility.yul\":1508:1537   */\n      tag_212\n        /* \"#utility.yul\":1530:1536   */\n      dup3\n        /* \"#utility.yul\":1508:1537   */\n      tag_156\n      jump\t// in\n    tag_212:\n        /* \"#utility.yul\":1500:1537   */\n      swap1\n      pop\n        /* \"#utility.yul\":1592:1596   */\n      0x20\n        /* \"#utility.yul\":1586:1590   */\n      dup2\n        /* \"#utility.yul\":1582:1597   */\n      add\n        /* \"#utility.yul\":1574:1597   */\n      swap1\n      pop\n        /* \"#utility.yul\":1296:1604   */\n      swap2\n      swap1\n      pop\n      jump\t// out\n        /* \"#utility.yul\":1610:1758   */\n    tag_161:\n        /* \"#utility.yul\":1708:1714   */\n      dup3\n        /* \"#utility.yul\":1703:1706   */\n      dup2\n        /* \"#utility.yul\":1698:1701   */\n      dup4\n        /* \"#utility.yul\":1685:1715   */\n      calldatacopy\n        /* \"#utility.yul\":1749:1750   */\n      0x00\n        /* \"#utility.yul\":1740:1746   */\n      dup4\n        /* \"#utility.yul\":1735:1738   */\n      dup4\n        /* \"#utility.yul\":1731:1747   */\n      add\n        /* \"#utility.yul\":1724:1751   */\n      mstore\n        /* \"#utility.yul\":1610:1758   */\n      pop\n      pop\n      pop\n      jump\t// out\n        /* \"#utility.yul\":1764:2189   */\n    tag_162:\n        /* \"#utility.yul\":1842:1847   */\n      0x00\n        /* \"#utility.yul\":1867:1933   */\n      tag_215\n        /* \"#utility.yul\":1883:1932   */\n      tag_216\n        /* \"#utility.yul\":1925:1931   */\n      dup5\n        /* \"#utility.yul\":1883:1932   */\n      tag_160\n      jump\t// in\n    tag_216:\n        /* \"#utility.yul\":1867:1933   */\n      tag_159\n      jump\t// in\n    tag_215:\n        /* \"#utility.yul\":1858:1933   */\n      swap1\n      pop\n        /* \"#utility.yul\":1956:1962   */\n      dup3\n        /* \"#utility.yul\":1949:1954   */\n      dup2\n        /* \"#utility.yul\":1942:1963   */\n      mstore\n        /* \"#utility.yul\":1994:1998   */\n      0x20\n        /* \"#utility.yul\":1987:1992   */\n      dup2\n        /* \"#utility.yul\":1983:1999   */\n      add\n        /* \"#utility.yul\":2032:2035   */\n      dup5\n        /* \"#utility.yul\":2023:2029   */\n      dup5\n        /* \"#utility.yul\":2018:2021   */\n      dup5\n        /* \"#utility.yul\":2014:2030   */\n      add\n        /* \"#utility.yul\":2011:2036   */\n      gt\n        /* \"#utility.yul\":2008:2120   */\n      iszero\n      tag_217\n      jumpi\n        /* \"#utility.yul\":2039:2118   */\n      tag_218\n      tag_155\n      jump\t// in\n    tag_218:\n        /* \"#utility.yul\":2008:2120   */\n    tag_217:\n        /* \"#utility.yul\":2129:2183   */\n      tag_219\n        /* \"#utility.yul\":2176:2182   */\n      dup5\n        /* \"#utility.yul\":2171:2174   */\n      dup3\n        /* \"#utility.yul\":2166:2169   */\n      dup6\n        /* \"#utility.yul\":2129:2183   */\n      tag_161\n      jump\t// in\n    tag_219:\n        /* \"#utility.yul\":1848:2189   */\n      pop\n        /* \"#utility.yul\":1764:2189   */\n      swap4\n      swap3\n      pop\n      pop\n      pop\n      jump\t// out\n        /* \"#utility.yul\":2209:2549   */\n    tag_163:\n        /* \"#utility.yul\":2265:2270   */\n      0x00\n        /* \"#utility.yul\":2314:2317   */\n      dup3\n        /* \"#utility.yul\":2307:2311   */\n      0x1f\n        /* \"#utility.yul\":2299:2305   */\n      dup4\n        /* \"#utility.yul\":2295:2312   */\n      add\n        /* \"#utility.yul\":2291:2318   */\n      slt\n        /* \"#utility.yul\":2281:2403   */\n      tag_221\n      jumpi\n        /* \"#utility.yul\":2322:2401   */\n      tag_222\n      tag_154\n      jump\t// in\n    tag_222:\n        /* \"#utility.yul\":2281:2403   */\n    tag_221:\n        /* \"#utility.yul\":2439:2445   */\n      dup2\n        /* \"#utility.yul\":2426:2446   */\n      calldataload\n        /* \"#utility.yul\":2464:2543   */\n      tag_223\n        /* \"#utility.yul\":2539:2542   */\n      dup5\n        /* \"#utility.yul\":2531:2537   */\n      dup3\n        /* \"#utility.yul\":2524:2528   */\n      0x20\n        /* \"#utility.yul\":2516:2522   */\n      dup7\n        /* \"#utility.yul\":2512:2529   */\n      add\n        /* \"#utility.yul\":2464:2543   */\n      tag_162\n      jump\t// in\n    tag_223:\n        /* \"#utility.yul\":2455:2543   */\n      swap2\n      pop\n        /* \"#utility.yul\":2271:2549   */\n      pop\n        /* \"#utility.yul\":2209:2549   */\n      swap3\n      swap2\n      pop\n      pop\n      jump\t// out\n        /* \"#utility.yul\":2555:3064   */\n    tag_10:\n        /* \"#utility.yul\":2624:2630   */\n      0x00\n        /* \"#utility.yul\":2673:2675   */\n      0x20\n        /* \"#utility.yul\":2661:2670   */\n      dup3\n        /* \"#utility.yul\":2652:2659   */\n      dup5\n        /* \"#utility.yul\":2648:2671   */\n      sub\n        /* \"#utility.yul\":2644:2676   */\n      slt\n        /* \"#utility.yul\":2641:2760   */\n      iszero\n      tag_225\n      jumpi\n        /* \"#utility.yul\":2679:2758   */\n      tag_226\n      tag_152\n      jump\t// in\n    tag_226:\n        /* \"#utility.yul\":2641:2760   */\n    tag_225:\n        /* \"#utility.yul\":2827:2828   */\n      0x00\n        /* \"#utility.yul\":2816:2825   */\n      dup3\n        /* \"#utility.yul\":2812:2829   */\n      add\n        /* \"#utility.yul\":2799:2830   */\n      calldataload\n        /* \"#utility.yul\":2857:2875   */\n      0xffffffffffffffff\n        /* \"#utility.yul\":2849:2855   */\n      dup2\n        /* \"#utility.yul\":2846:2876   */\n      gt\n        /* \"#utility.yul\":2843:2960   */\n      iszero\n      tag_227\n      jumpi\n        /* \"#utility.yul\":2879:2958   */\n      tag_228\n      tag_153\n      jump\t// in\n    tag_228:\n        /* \"#utility.yul\":2843:2960   */\n    tag_227:\n        /* \"#utility.yul\":2984:3047   */\n      tag_229\n        /* \"#utility.yul\":3039:3046   */\n      dup5\n        /* \"#utility.yul\":3030:3036   */\n      dup3\n        /* \"#utility.yul\":3019:3028   */\n      dup6\n        /* \"#utility.yul\":3015:3037   */\n      add\n        /* \"#utility.yul\":2984:3047   */\n      tag_163\n      jump\t// in\n    tag_229:\n        /* \"#utility.yul\":2974:3047   */\n      swap2\n      pop\n        /* \"#utility.yul\":2770:3057   */\n      pop\n        /* \"#utility.yul\":2555:3064   */\n      swap3\n      swap2\n      pop\n      pop\n      jump\t// out\n        /* \"#utility.yul\":3070:3160   */\n    tag_164:\n        /* \"#utility.yul\":3104:3111   */\n      0x00\n        /* \"#utility.yul\":3147:3152   */\n      dup2\n        /* \"#utility.yul\":3140:3153   */\n      iszero\n        /* \"#utility.yul\":3133:3154   */\n      iszero\n        /* \"#utility.yul\":3122:3154   */\n      swap1\n      pop\n        /* \"#utility.yul\":3070:3160   */\n      swap2\n      swap1\n      pop\n      jump\t// out\n        /* \"#utility.yul\":3166:3275   */\n    tag_165:\n        /* \"#utility.yul\":3247:3268   */\n      tag_232\n        /* \"#utility.yul\":3262:3267   */\n      dup2\n        /* \"#utility.yul\":3247:3268   */\n      tag_164\n      jump\t// in\n    tag_232:\n        /* \"#utility.yul\":3242:3245   */\n      dup3\n        /* \"#utility.yul\":3235:3269   */\n      mstore\n        /* \"#utility.yul\":3166:3275   */\n      pop\n      pop\n      jump\t// out\n        /* \"#utility.yul\":3281:3491   */\n    tag_13:\n        /* \"#utility.yul\":3368:3372   */\n      0x00\n        /* \"#utility.yul\":3406:3408   */\n      0x20\n        /* \"#utility.yul\":3395:3404   */\n      dup3\n        /* \"#utility.yul\":3391:3409   */\n      add\n        /* \"#utility.yul\":3383:3409   */\n      swap1\n      pop\n        /* \"#utility.yul\":3419:3484   */\n      tag_234\n        /* \"#utility.yul\":3481:3482   */\n      0x00\n        /* \"#utility.yul\":3470:3479   */\n      dup4\n        /* \"#utility.yul\":3466:3483   */\n      add\n        /* \"#utility.yul\":3457:3463   */\n      dup5\n        /* \"#utility.yul\":3419:3484   */\n      tag_165\n      jump\t// in\n    tag_234:\n        /* \"#utility.yul\":3281:3491   */\n      swap3\n      swap2\n      pop\n      pop\n      jump\t// out\n        /* \"#utility.yul\":3497:3574   */\n    tag_166:\n        /* \"#utility.yul\":3534:3541   */\n      0x00\n        /* \"#utility.yul\":3563:3568   */\n      dup2\n        /* \"#utility.yul\":3552:3568   */\n      swap1\n      pop\n        /* \"#utility.yul\":3497:3574   */\n      swap2\n      swap1\n      pop\n      jump\t// out\n        /* \"#utility.yul\":3580:3702   */\n    tag_167:\n        /* \"#utility.yul\":3653:3677   */\n      tag_237\n        /* \"#utility.yul\":3671:3676   */\n      dup2\n        /* \"#utility.yul\":3653:3677   */\n      tag_166\n      jump\t// in\n    tag_237:\n        /* \"#utility.yul\":3646:3651   */\n      dup2\n        /* \"#utility.yul\":3643:3678   */\n      eq\n        /* \"#utility.yul\":3633:3696   */\n      tag_238\n      jumpi\n        /* \"#utility.yul\":3692:3693   */\n      0x00\n        /* \"#utility.yul\":3689:3690   */\n      0x00\n        /* \"#utility.yul\":3682:3694   */\n      revert\n        /* \"#utility.yul\":3633:3696   */\n    tag_238:\n        /* \"#utility.yul\":3580:3702   */\n      pop\n      jump\t// out\n        /* \"#utility.yul\":3708:3847   */\n    tag_168:\n        /* \"#utility.yul\":3754:3759   */\n      0x00\n        /* \"#utility.yul\":3792:3798   */\n      dup2\n        /* \"#utility.yul\":3779:3799   */\n      calldataload\n        /* \"#utility.yul\":3770:3799   */\n      swap1\n      pop\n        /* \"#utility.yul\":3808:3841   */\n      tag_240\n        /* \"#utility.yul\":3835:3840   */\n      dup2\n        /* \"#utility.yul\":3808:3841   */\n      tag_167\n      jump\t// in\n    tag_240:\n        /* \"#utility.yul\":3708:3847   */\n      swap3\n      swap2\n      pop\n      pop\n      jump\t// out\n        /* \"#utility.yul\":3853:4182   */\n    tag_16:\n        /* \"#utility.yul\":3912:3918   */\n      0x00\n        /* \"#utility.yul\":3961:3963   */\n      0x20\n        /* \"#utility.yul\":3949:3958   */\n      dup3\n        /* \"#utility.yul\":3940:3947   */\n      dup5\n        /* \"#utility.yul\":3936:3959   */\n      sub\n        /* \"#utility.yul\":3932:3964   */\n      slt\n        /* \"#utility.yul\":3929:4048   */\n      iszero\n      tag_242\n      jumpi\n        /* \"#utility.yul\":3967:4046   */\n      tag_243\n      tag_152\n      jump\t// in\n    tag_243:\n        /* \"#utility.yul\":3929:4048   */\n    tag_242:\n        /* \"#utility.yul\":4087:4088   */\n      0x00\n        /* \"#utility.yul\":4112:4165   */\n      tag_244\n        /* \"#utility.yul\":4157:4164   */\n      dup5\n        /* \"#utility.yul\":4148:4154   */\n      dup3\n        /* \"#utility.yul\":4137:4146   */\n      dup6\n        /* \"#utility.yul\":4133:4155   */\n      add\n        /* \"#utility.yul\":4112:4165   */\n      tag_168\n      jump\t// in\n    tag_244:\n        /* \"#utility.yul\":4102:4165   */\n      swap2\n      pop\n        /* \"#utility.yul\":4058:4175   */\n      pop\n        /* \"#utility.yul\":3853:4182   */\n      swap3\n      swap2\n      pop\n      pop\n      jump\t// out\n        /* \"#utility.yul\":4188:4287   */\n    tag_169:\n        /* \"#utility.yul\":4240:4246   */\n      0x00\n        /* \"#utility.yul\":4274:4279   */\n      dup2\n        /* \"#utility.yul\":4268:4280   */\n      mload\n        /* \"#utility.yul\":4258:4280   */\n      swap1\n      pop\n        /* \"#utility.yul\":4188:4287   */\n      swap2\n      swap1\n      pop\n      jump\t// out\n        /* \"#utility.yul\":4293:4462   */\n    tag_170:\n        /* \"#utility.yul\":4377:4388   */\n      0x00\n        /* \"#utility.yul\":4411:4417   */\n      dup3\n        /* \"#utility.yul\":4406:4409   */\n      dup3\n        /* \"#utility.yul\":4399:4418   */\n      mstore\n        /* \"#utility.yul\":4451:4455   */\n      0x20\n        /* \"#utility.yul\":4446:4449   */\n      dup3\n        /* \"#utility.yul\":4442:4456   */\n      add\n        /* \"#utility.yul\":4427:4456   */\n      swap1\n      pop\n        /* \"#utility.yul\":4293:4462   */\n      swap3\n      swap2\n      pop\n      pop\n      jump\t// out\n        /* \"#utility.yul\":4468:4607   */\n    tag_171:\n        /* \"#utility.yul\":4557:4563   */\n      dup3\n        /* \"#utility.yul\":4552:4555   */\n      dup2\n        /* \"#utility.yul\":4547:4550   */\n      dup4\n        /* \"#utility.yul\":4541:4564   */\n      mcopy\n        /* \"#utility.yul\":4598:4599   */\n      0x00\n        /* \"#utility.yul\":4589:4595   */\n      dup4\n        /* \"#utility.yul\":4584:4587   */\n      dup4\n        /* \"#utility.yul\":4580:4596   */\n      add\n        /* \"#utility.yul\":4573:4600   */\n      mstore\n        /* \"#utility.yul\":4468:4607   */\n      pop\n      pop\n      pop\n      jump\t// out\n        /* \"#utility.yul\":4613:4990   */\n    tag_172:\n        /* \"#utility.yul\":4701:4704   */\n      0x00\n        /* \"#utility.yul\":4729:4768   */\n      tag_249\n        /* \"#utility.yul\":4762:4767   */\n      dup3\n        /* \"#utility.yul\":4729:4768   */\n      tag_169\n      jump\t// in\n    tag_249:\n        /* \"#utility.yul\":4784:4855   */\n      tag_250\n        /* \"#utility.yul\":4848:4854   */\n      dup2\n        /* \"#utility.yul\":4843:4846   */\n      dup6\n        /* \"#utility.yul\":4784:4855   */\n      tag_170\n      jump\t// in\n    tag_250:\n        /* \"#utility.yul\":4777:4855   */\n      swap4\n      pop\n        /* \"#utility.yul\":4864:4929   */\n      tag_251\n        /* \"#utility.yul\":4922:4928   */\n      dup2\n        /* \"#utility.yul\":4917:4920   */\n      dup6\n        /* \"#utility.yul\":4910:4914   */\n      0x20\n        /* \"#utility.yul\":4903:4908   */\n      dup7\n        /* \"#utility.yul\":4899:4915   */\n      add\n        /* \"#utility.yul\":4864:4929   */\n      tag_171\n      jump\t// in\n    tag_251:\n        /* \"#utility.yul\":4954:4983   */\n      tag_252\n        /* \"#utility.yul\":4976:4982   */\n      dup2\n        /* \"#utility.yul\":4954:4983   */\n      tag_156\n      jump\t// in\n    tag_252:\n        /* \"#utility.yul\":4949:4952   */\n      dup5\n        /* \"#utility.yul\":4945:4984   */\n      add\n        /* \"#utility.yul\":4938:4984   */\n      swap2\n      pop\n        /* \"#utility.yul\":4705:4990   */\n      pop\n        /* \"#utility.yul\":4613:4990   */\n      swap3\n      swap2\n      pop\n      pop\n      jump\t// out\n        /* \"#utility.yul\":4996:5114   */\n    tag_173:\n        /* \"#utility.yul\":5083:5107   */\n      tag_254\n        /* \"#utility.yul\":5101:5106   */\n      dup2\n        /* \"#utility.yul\":5083:5107   */\n      tag_166\n      jump\t// in\n    tag_254:\n        /* \"#utility.yul\":5078:5081   */\n      dup3\n        /* \"#utility.yul\":5071:5108   */\n      mstore\n        /* \"#utility.yul\":4996:5114   */\n      pop\n      pop\n      jump\t// out\n        /* \"#utility.yul\":5120:6370   */\n    tag_19:\n        /* \"#utility.yul\":5461:5465   */\n      0x00\n        /* \"#utility.yul\":5499:5502   */\n      0xe0\n        /* \"#utility.yul\":5488:5497   */\n      dup3\n        /* \"#utility.yul\":5484:5503   */\n      add\n        /* \"#utility.yul\":5476:5503   */\n      swap1\n      pop\n        /* \"#utility.yul\":5549:5558   */\n      dup2\n        /* \"#utility.yul\":5543:5547   */\n      dup2\n        /* \"#utility.yul\":5539:5559   */\n      sub\n        /* \"#utility.yul\":5535:5536   */\n      0x00\n        /* \"#utility.yul\":5524:5533   */\n      dup4\n        /* \"#utility.yul\":5520:5537   */\n      add\n        /* \"#utility.yul\":5513:5560   */\n      mstore\n        /* \"#utility.yul\":5577:5655   */\n      tag_256\n        /* \"#utility.yul\":5650:5654   */\n      dup2\n        /* \"#utility.yul\":5641:5647   */\n      dup11\n        /* \"#utility.yul\":5577:5655   */\n      tag_172\n      jump\t// in\n    tag_256:\n        /* \"#utility.yul\":5569:5655   */\n      swap1\n      pop\n        /* \"#utility.yul\":5702:5711   */\n      dup2\n        /* \"#utility.yul\":5696:5700   */\n      dup2\n        /* \"#utility.yul\":5692:5712   */\n      sub\n        /* \"#utility.yul\":5687:5689   */\n      0x20\n        /* \"#utility.yul\":5676:5685   */\n      dup4\n        /* \"#utility.yul\":5672:5690   */\n      add\n        /* \"#utility.yul\":5665:5713   */\n      mstore\n        /* \"#utility.yul\":5730:5808   */\n      tag_257\n        /* \"#utility.yul\":5803:5807   */\n      dup2\n        /* \"#utility.yul\":5794:5800   */\n      dup10\n        /* \"#utility.yul\":5730:5808   */\n      tag_172\n      jump\t// in\n    tag_257:\n        /* \"#utility.yul\":5722:5808   */\n      swap1\n      pop\n        /* \"#utility.yul\":5855:5864   */\n      dup2\n        /* \"#utility.yul\":5849:5853   */\n      dup2\n        /* \"#utility.yul\":5845:5865   */\n      sub\n        /* \"#utility.yul\":5840:5842   */\n      0x40\n        /* \"#utility.yul\":5829:5838   */\n      dup4\n        /* \"#utility.yul\":5825:5843   */\n      add\n        /* \"#utility.yul\":5818:5866   */\n      mstore\n        /* \"#utility.yul\":5883:5961   */\n      tag_258\n        /* \"#utility.yul\":5956:5960   */\n      dup2\n        /* \"#utility.yul\":5947:5953   */\n      dup9\n        /* \"#utility.yul\":5883:5961   */\n      tag_172\n      jump\t// in\n    tag_258:\n        /* \"#utility.yul\":5875:5961   */\n      swap1\n      pop\n        /* \"#utility.yul\":5971:6043   */\n      tag_259\n        /* \"#utility.yul\":6039:6041   */\n      0x60\n        /* \"#utility.yul\":6028:6037   */\n      dup4\n        /* \"#utility.yul\":6024:6042   */\n      add\n        /* \"#utility.yul\":6015:6021   */\n      dup8\n        /* \"#utility.yul\":5971:6043   */\n      tag_173\n      jump\t// in\n    tag_259:\n        /* \"#utility.yul\":6091:6100   */\n      dup2\n        /* \"#utility.yul\":6085:6089   */\n      dup2\n        /* \"#utility.yul\":6081:6101   */\n      sub\n        /* \"#utility.yul\":6075:6078   */\n      0x80\n        /* \"#utility.yul\":6064:6073   */\n      dup4\n        /* \"#utility.yul\":6060:6079   */\n      add\n        /* \"#utility.yul\":6053:6102   */\n      mstore\n        /* \"#utility.yul\":6119:6197   */\n      tag_260\n        /* \"#utility.yul\":6192:6196   */\n      dup2\n        /* \"#utility.yul\":6183:6189   */\n      dup7\n        /* \"#utility.yul\":6119:6197   */\n      tag_172\n      jump\t// in\n    tag_260:\n        /* \"#utility.yul\":6111:6197   */\n      swap1\n      pop\n        /* \"#utility.yul\":6207:6280   */\n      tag_261\n        /* \"#utility.yul\":6275:6278   */\n      0xa0\n        /* \"#utility.yul\":6264:6273   */\n      dup4\n        /* \"#utility.yul\":6260:6279   */\n      add\n        /* \"#utility.yul\":6251:6257   */\n      dup6\n        /* \"#utility.yul\":6207:6280   */\n      tag_173\n      jump\t// in\n    tag_261:\n        /* \"#utility.yul\":6290:6363   */\n      tag_262\n        /* \"#utility.yul\":6358:6361   */\n      0xc0\n        /* \"#utility.yul\":6347:6356   */\n      dup4\n        /* \"#utility.yul\":6343:6362   */\n      add\n        /* \"#utility.yul\":6334:6340   */\n      dup5\n        /* \"#utility.yul\":6290:6363   */\n      tag_173\n      jump\t// in\n    tag_262:\n        /* \"#utility.yul\":5120:6370   */\n      swap9\n      swap8\n      pop\n      pop\n      pop\n      pop\n      pop\n      pop\n      pop\n      pop\n      jump\t// out\n        /* \"#utility.yul\":6376:7973   */\n    tag_22:\n        /* \"#utility.yul\":6510:6516   */\n      0x00\n        /* \"#utility.yul\":6518:6524   */\n      0x00\n        /* \"#utility.yul\":6526:6532   */\n      0x00\n        /* \"#utility.yul\":6534:6540   */\n      0x00\n        /* \"#utility.yul\":6542:6548   */\n      0x00\n        /* \"#utility.yul\":6550:6556   */\n      0x00\n        /* \"#utility.yul\":6599:6602   */\n      0xc0\n        /* \"#utility.yul\":6587:6596   */\n      dup8\n        /* \"#utility.yul\":6578:6585   */\n      dup10\n        /* \"#utility.yul\":6574:6597   */\n      sub\n        /* \"#utility.yul\":6570:6603   */\n      slt\n        /* \"#utility.yul\":6567:6687   */\n      iszero\n      tag_264\n      jumpi\n        /* \"#utility.yul\":6606:6685   */\n      tag_265\n      tag_152\n      jump\t// in\n    tag_265:\n        /* \"#utility.yul\":6567:6687   */\n    tag_264:\n        /* \"#utility.yul\":6754:6755   */\n      0x00\n        /* \"#utility.yul\":6743:6752   */\n      dup8\n        /* \"#utility.yul\":6739:6756   */\n      add\n        /* \"#utility.yul\":6726:6757   */\n      calldataload\n        /* \"#utility.yul\":6784:6802   */\n      0xffffffffffffffff\n        /* \"#utility.yul\":6776:6782   */\n      dup2\n        /* \"#utility.yul\":6773:6803   */\n      gt\n        /* \"#utility.yul\":6770:6887   */\n      iszero\n      tag_266\n      jumpi\n        /* \"#utility.yul\":6806:6885   */\n      tag_267\n      tag_153\n      jump\t// in\n    tag_267:\n        /* \"#utility.yul\":6770:6887   */\n    tag_266:\n        /* \"#utility.yul\":6911:6974   */\n      tag_268\n        /* \"#utility.yul\":6966:6973   */\n      dup10\n        /* \"#utility.yul\":6957:6963   */\n      dup3\n        /* \"#utility.yul\":6946:6955   */\n      dup11\n        /* \"#utility.yul\":6942:6964   */\n      add\n        /* \"#utility.yul\":6911:6974   */\n      tag_163\n      jump\t// in\n    tag_268:\n        /* \"#utility.yul\":6901:6974   */\n      swap7\n      pop\n        /* \"#utility.yul\":6697:6984   */\n      pop\n        /* \"#utility.yul\":7051:7053   */\n      0x20\n        /* \"#utility.yul\":7040:7049   */\n      dup8\n        /* \"#utility.yul\":7036:7054   */\n      add\n        /* \"#utility.yul\":7023:7055   */\n      calldataload\n        /* \"#utility.yul\":7082:7100   */\n      0xffffffffffffffff\n        /* \"#utility.yul\":7074:7080   */\n      dup2\n        /* \"#utility.yul\":7071:7101   */\n      gt\n        /* \"#utility.yul\":7068:7185   */\n      iszero\n      tag_269\n      jumpi\n        /* \"#utility.yul\":7104:7183   */\n      tag_270\n      tag_153\n      jump\t// in\n    tag_270:\n        /* \"#utility.yul\":7068:7185   */\n    tag_269:\n        /* \"#utility.yul\":7209:7272   */\n      tag_271\n        /* \"#utility.yul\":7264:7271   */\n      dup10\n        /* \"#utility.yul\":7255:7261   */\n      dup3\n        /* \"#utility.yul\":7244:7253   */\n      dup11\n        /* \"#utility.yul\":7240:7262   */\n      add\n        /* \"#utility.yul\":7209:7272   */\n      tag_163\n      jump\t// in\n    tag_271:\n        /* \"#utility.yul\":7199:7272   */\n      swap6\n      pop\n        /* \"#utility.yul\":6994:7282   */\n      pop\n        /* \"#utility.yul\":7349:7351   */\n      0x40\n        /* \"#utility.yul\":7338:7347   */\n      dup8\n        /* \"#utility.yul\":7334:7352   */\n      add\n        /* \"#utility.yul\":7321:7353   */\n      calldataload\n        /* \"#utility.yul\":7380:7398   */\n      0xffffffffffffffff\n        /* \"#utility.yul\":7372:7378   */\n      dup2\n        /* \"#utility.yul\":7369:7399   */\n      gt\n        /* \"#utility.yul\":7366:7483   */\n      iszero\n      tag_272\n      jumpi\n        /* \"#utility.yul\":7402:7481   */\n      tag_273\n      tag_153\n      jump\t// in\n    tag_273:\n        /* \"#utility.yul\":7366:7483   */\n    tag_272:\n        /* \"#utility.yul\":7507:7570   */\n      tag_274\n        /* \"#utility.yul\":7562:7569   */\n      dup10\n        /* \"#utility.yul\":7553:7559   */\n      dup3\n        /* \"#utility.yul\":7542:7551   */\n      dup11\n        /* \"#utility.yul\":7538:7560   */\n      add\n        /* \"#utility.yul\":7507:7570   */\n      tag_163\n      jump\t// in\n    tag_274:\n        /* \"#utility.yul\":7497:7570   */\n      swap5\n      pop\n        /* \"#utility.yul\":7292:7580   */\n      pop\n        /* \"#utility.yul\":7619:7621   */\n      0x60\n        /* \"#utility.yul\":7645:7698   */\n      tag_275\n        /* \"#utility.yul\":7690:7697   */\n      dup10\n        /* \"#utility.yul\":7681:7687   */\n      dup3\n        /* \"#utility.yul\":7670:7679   */\n      dup11\n        /* \"#utility.yul\":7666:7688   */\n      add\n        /* \"#utility.yul\":7645:7698   */\n      tag_168\n      jump\t// in\n    tag_275:\n        /* \"#utility.yul\":7635:7698   */\n      swap4\n      pop\n        /* \"#utility.yul\":7590:7708   */\n      pop\n        /* \"#utility.yul\":7747:7750   */\n      0x80\n        /* \"#utility.yul\":7774:7827   */\n      tag_276\n        /* \"#utility.yul\":7819:7826   */\n      dup10\n        /* \"#utility.yul\":7810:7816   */\n      dup3\n        /* \"#utility.yul\":7799:7808   */\n      dup11\n        /* \"#utility.yul\":7795:7817   */\n      add\n        /* \"#utility.yul\":7774:7827   */\n      tag_168\n      jump\t// in\n    tag_276:\n        /* \"#utility.yul\":7764:7827   */\n      swap3\n      pop\n        /* \"#utility.yul\":7718:7837   */\n      pop\n        /* \"#utility.yul\":7876:7879   */\n      0xa0\n        /* \"#utility.yul\":7903:7956   */\n      tag_277\n        /* \"#utility.yul\":7948:7955   */\n      dup10\n        /* \"#utility.yul\":7939:7945   */\n      dup3\n        /* \"#utility.yul\":7928:7937   */\n      dup11\n        /* \"#utility.yul\":7924:7946   */\n      add\n        /* \"#utility.yul\":7903:7956   */\n      tag_168\n      jump\t// in\n    tag_277:\n        /* \"#utility.yul\":7893:7956   */\n      swap2\n      pop\n        /* \"#utility.yul\":7847:7966   */\n      pop\n        /* \"#utility.yul\":6376:7973   */\n      swap3\n      swap6\n      pop\n      swap3\n      swap6\n      pop\n      swap3\n      swap6\n      jump\t// out\n        /* \"#utility.yul\":7979:9902   */\n    tag_27:\n        /* \"#utility.yul\":8132:8138   */\n      0x00\n        /* \"#utility.yul\":8140:8146   */\n      0x00\n        /* \"#utility.yul\":8148:8154   */\n      0x00\n        /* \"#utility.yul\":8156:8162   */\n      0x00\n        /* \"#utility.yul\":8164:8170   */\n      0x00\n        /* \"#utility.yul\":8172:8178   */\n      0x00\n        /* \"#utility.yul\":8180:8186   */\n      0x00\n        /* \"#utility.yul\":8229:8232   */\n      0xe0\n        /* \"#utility.yul\":8217:8226   */\n      dup9\n        /* \"#utility.yul\":8208:8215   */\n      dup11\n        /* \"#utility.yul\":8204:8227   */\n      sub\n        /* \"#utility.yul\":8200:8233   */\n      slt\n        /* \"#utility.yul\":8197:8317   */\n      iszero\n      tag_279\n      jumpi\n        /* \"#utility.yul\":8236:8315   */\n      tag_280\n      tag_152\n      jump\t// in\n    tag_280:\n        /* \"#utility.yul\":8197:8317   */\n    tag_279:\n        /* \"#utility.yul\":8384:8385   */\n      0x00\n        /* \"#utility.yul\":8373:8382   */\n      dup9\n        /* \"#utility.yul\":8369:8386   */\n      add\n        /* \"#utility.yul\":8356:8387   */\n      calldataload\n        /* \"#utility.yul\":8414:8432   */\n      0xffffffffffffffff\n        /* \"#utility.yul\":8406:8412   */\n      dup2\n        /* \"#utility.yul\":8403:8433   */\n      gt\n        /* \"#utility.yul\":8400:8517   */\n      iszero\n      tag_281\n      jumpi\n        /* \"#utility.yul\":8436:8515   */\n      tag_282\n      tag_153\n      jump\t// in\n    tag_282:\n        /* \"#utility.yul\":8400:8517   */\n    tag_281:\n        /* \"#utility.yul\":8541:8604   */\n      tag_283\n        /* \"#utility.yul\":8596:8603   */\n      dup11\n        /* \"#utility.yul\":8587:8593   */\n      dup3\n        /* \"#utility.yul\":8576:8585   */\n      dup12\n        /* \"#utility.yul\":8572:8594   */\n      add\n        /* \"#utility.yul\":8541:8604   */\n      tag_163\n      jump\t// in\n    tag_283:\n        /* \"#utility.yul\":8531:8604   */\n      swap8\n      pop\n        /* \"#utility.yul\":8327:8614   */\n      pop\n        /* \"#utility.yul\":8681:8683   */\n      0x20\n        /* \"#utility.yul\":8670:8679   */\n      dup9\n        /* \"#utility.yul\":8666:8684   */\n      add\n        /* \"#utility.yul\":8653:8685   */\n      calldataload\n        /* \"#utility.yul\":8712:8730   */\n      0xffffffffffffffff\n        /* \"#utility.yul\":8704:8710   */\n      dup2\n        /* \"#utility.yul\":8701:8731   */\n      gt\n        /* \"#utility.yul\":8698:8815   */\n      iszero\n      tag_284\n      jumpi\n        /* \"#utility.yul\":8734:8813   */\n      tag_285\n      tag_153\n      jump\t// in\n    tag_285:\n        /* \"#utility.yul\":8698:8815   */\n    tag_284:\n        /* \"#utility.yul\":8839:8902   */\n      tag_286\n        /* \"#utility.yul\":8894:8901   */\n      dup11\n        /* \"#utility.yul\":8885:8891   */\n      dup3\n        /* \"#utility.yul\":8874:8883   */\n      dup12\n        /* \"#utility.yul\":8870:8892   */\n      add\n        /* \"#utility.yul\":8839:8902   */\n      tag_163\n      jump\t// in\n    tag_286:\n        /* \"#utility.yul\":8829:8902   */\n      swap7\n      pop\n        /* \"#utility.yul\":8624:8912   */\n      pop\n        /* \"#utility.yul\":8979:8981   */\n      0x40\n        /* \"#utility.yul\":8968:8977   */\n      dup9\n        /* \"#utility.yul\":8964:8982   */\n      add\n        /* \"#utility.yul\":8951:8983   */\n      calldataload\n        /* \"#utility.yul\":9010:9028   */\n      0xffffffffffffffff\n        /* \"#utility.yul\":9002:9008   */\n      dup2\n        /* \"#utility.yul\":8999:9029   */\n      gt\n        /* \"#utility.yul\":8996:9113   */\n      iszero\n      tag_287\n      jumpi\n        /* \"#utility.yul\":9032:9111   */\n      tag_288\n      tag_153\n      jump\t// in\n    tag_288:\n        /* \"#utility.yul\":8996:9113   */\n    tag_287:\n        /* \"#utility.yul\":9137:9200   */\n      tag_289\n        /* \"#utility.yul\":9192:9199   */\n      dup11\n        /* \"#utility.yul\":9183:9189   */\n      dup3\n        /* \"#utility.yul\":9172:9181   */\n      dup12\n        /* \"#utility.yul\":9168:9190   */\n      add\n        /* \"#utility.yul\":9137:9200   */\n      tag_163\n      jump\t// in\n    tag_289:\n        /* \"#utility.yul\":9127:9200   */\n      swap6\n      pop\n        /* \"#utility.yul\":8922:9210   */\n      pop\n        /* \"#utility.yul\":9249:9251   */\n      0x60\n        /* \"#utility.yul\":9275:9328   */\n      tag_290\n        /* \"#utility.yul\":9320:9327   */\n      dup11\n        /* \"#utility.yul\":9311:9317   */\n      dup3\n        /* \"#utility.yul\":9300:9309   */\n      dup12\n        /* \"#utility.yul\":9296:9318   */\n      add\n        /* \"#utility.yul\":9275:9328   */\n      tag_168\n      jump\t// in\n    tag_290:\n        /* \"#utility.yul\":9265:9328   */\n      swap5\n      pop\n        /* \"#utility.yul\":9220:9338   */\n      pop\n        /* \"#utility.yul\":9405:9408   */\n      0x80\n        /* \"#utility.yul\":9394:9403   */\n      dup9\n        /* \"#utility.yul\":9390:9409   */\n      add\n        /* \"#utility.yul\":9377:9410   */\n      calldataload\n        /* \"#utility.yul\":9437:9455   */\n      0xffffffffffffffff\n        /* \"#utility.yul\":9429:9435   */\n      dup2\n        /* \"#utility.yul\":9426:9456   */\n      gt\n        /* \"#utility.yul\":9423:9540   */\n      iszero\n      tag_291\n      jumpi\n        /* \"#utility.yul\":9459:9538   */\n      tag_292\n      tag_153\n      jump\t// in\n    tag_292:\n        /* \"#utility.yul\":9423:9540   */\n    tag_291:\n        /* \"#utility.yul\":9564:9627   */\n      tag_293\n        /* \"#utility.yul\":9619:9626   */\n      dup11\n        /* \"#utility.yul\":9610:9616   */\n      dup3\n        /* \"#utility.yul\":9599:9608   */\n      dup12\n        /* \"#utility.yul\":9595:9617   */\n      add\n        /* \"#utility.yul\":9564:9627   */\n      tag_163\n      jump\t// in\n    tag_293:\n        /* \"#utility.yul\":9554:9627   */\n      swap4\n      pop\n        /* \"#utility.yul\":9348:9637   */\n      pop\n        /* \"#utility.yul\":9676:9679   */\n      0xa0\n        /* \"#utility.yul\":9703:9756   */\n      tag_294\n        /* \"#utility.yul\":9748:9755   */\n      dup11\n        /* \"#utility.yul\":9739:9745   */\n      dup3\n        /* \"#utility.yul\":9728:9737   */\n      dup12\n        /* \"#utility.yul\":9724:9746   */\n      add\n        /* \"#utility.yul\":9703:9756   */\n      tag_168\n      jump\t// in\n    tag_294:\n        /* \"#utility.yul\":9693:9756   */\n      swap3\n      pop\n        /* \"#utility.yul\":9647:9766   */\n      pop\n        /* \"#utility.yul\":9805:9808   */\n      0xc0\n        /* \"#utility.yul\":9832:9885   */\n      tag_295\n        /* \"#utility.yul\":9877:9884   */\n      dup11\n        /* \"#utility.yul\":9868:9874   */\n      dup3\n        /* \"#utility.yul\":9857:9866   */\n      dup12\n        /* \"#utility.yul\":9853:9875   */\n      add\n        /* \"#utility.yul\":9832:9885   */\n      tag_168\n      jump\t// in\n    tag_295:\n        /* \"#utility.yul\":9822:9885   */\n      swap2\n      pop\n        /* \"#utility.yul\":9776:9895   */\n      pop\n        /* \"#utility.yul\":7979:9902   */\n      swap3\n      swap6\n      swap9\n      swap2\n      swap5\n      swap8\n      pop\n      swap3\n      swap6\n      pop\n      jump\t// out\n        /* \"#utility.yul\":9908:10130   */\n    tag_30:\n        /* \"#utility.yul\":10001:10005   */\n      0x00\n        /* \"#utility.yul\":10039:10041   */\n      0x20\n        /* \"#utility.yul\":10028:10037   */\n      dup3\n        /* \"#utility.yul\":10024:10042   */\n      add\n        /* \"#utility.yul\":10016:10042   */\n      swap1\n      pop\n        /* \"#utility.yul\":10052:10123   */\n      tag_297\n        /* \"#utility.yul\":10120:10121   */\n      0x00\n        /* \"#utility.yul\":10109:10118   */\n      dup4\n        /* \"#utility.yul\":10105:10122   */\n      add\n        /* \"#utility.yul\":10096:10102   */\n      dup5\n        /* \"#utility.yul\":10052:10123   */\n      tag_173\n      jump\t// in\n    tag_297:\n        /* \"#utility.yul\":9908:10130   */\n      swap3\n      swap2\n      pop\n      pop\n      jump\t// out\n        /* \"#utility.yul\":10136:10316   */\n    tag_37:\n        /* \"#utility.yul\":10184:10261   */\n      0x4e487b7100000000000000000000000000000000000000000000000000000000\n        /* \"#utility.yul\":10181:10182   */\n      0x00\n        /* \"#utility.yul\":10174:10262   */\n      mstore\n        /* \"#utility.yul\":10281:10285   */\n      0x01\n        /* \"#utility.yul\":10278:10279   */\n      0x04\n        /* \"#utility.yul\":10271:10286   */\n      mstore\n        /* \"#utility.yul\":10305:10309   */\n      0x24\n        /* \"#utility.yul\":10302:10303   */\n      0x00\n        /* \"#utility.yul\":10295:10310   */\n      revert\n        /* \"#utility.yul\":10322:10502   */\n    tag_44:\n        /* \"#utility.yul\":10370:10447   */\n      0x4e487b7100000000000000000000000000000000000000000000000000000000\n        /* \"#utility.yul\":10367:10368   */\n      0x00\n        /* \"#utility.yul\":10360:10448   */\n      mstore\n        /* \"#utility.yul\":10467:10471   */\n      0x32\n        /* \"#utility.yul\":10464:10465   */\n      0x04\n        /* \"#utility.yul\":10457:10472   */\n      mstore\n        /* \"#utility.yul\":10491:10495   */\n      0x24\n        /* \"#utility.yul\":10488:10489   */\n      0x00\n        /* \"#utility.yul\":10481:10496   */\n      revert\n        /* \"#utility.yul\":10508:10688   */\n    tag_174:\n        /* \"#utility.yul\":10556:10633   */\n      0x4e487b7100000000000000000000000000000000000000000000000000000000\n        /* \"#utility.yul\":10553:10554   */\n      0x00\n        /* \"#utility.yul\":10546:10634   */\n      mstore\n        /* \"#utility.yul\":10653:10657   */\n      0x22\n        /* \"#utility.yul\":10650:10651   */\n      0x04\n        /* \"#utility.yul\":10643:10658   */\n      mstore\n        /* \"#utility.yul\":10677:10681   */\n      0x24\n        /* \"#utility.yul\":10674:10675   */\n      0x00\n        /* \"#utility.yul\":10667:10682   */\n      revert\n        /* \"#utility.yul\":10694:11014   */\n    tag_47:\n        /* \"#utility.yul\":10738:10744   */\n      0x00\n        /* \"#utility.yul\":10775:10776   */\n      0x02\n        /* \"#utility.yul\":10769:10773   */\n      dup3\n        /* \"#utility.yul\":10765:10777   */\n      div\n        /* \"#utility.yul\":10755:10777   */\n      swap1\n      pop\n        /* \"#utility.yul\":10822:10823   */\n      0x01\n        /* \"#utility.yul\":10816:10820   */\n      dup3\n        /* \"#utility.yul\":10812:10824   */\n      and\n        /* \"#utility.yul\":10843:10861   */\n      dup1\n        /* \"#utility.yul\":10833:10914   */\n      tag_302\n      jumpi\n        /* \"#utility.yul\":10899:10903   */\n      0x7f\n        /* \"#utility.yul\":10891:10897   */\n      dup3\n        /* \"#utility.yul\":10887:10904   */\n      and\n        /* \"#utility.yul\":10877:10904   */\n      swap2\n      pop\n        /* \"#utility.yul\":10833:10914   */\n    tag_302:\n        /* \"#utility.yul\":10961:10963   */\n      0x20\n        /* \"#utility.yul\":10953:10959   */\n      dup3\n        /* \"#utility.yul\":10950:10964   */\n      lt\n        /* \"#utility.yul\":10930:10948   */\n      dup2\n        /* \"#utility.yul\":10927:10965   */\n      sub\n        /* \"#utility.yul\":10924:11008   */\n      tag_303\n      jumpi\n        /* \"#utility.yul\":10980:10998   */\n      tag_304\n      tag_174\n      jump\t// in\n    tag_304:\n        /* \"#utility.yul\":10924:11008   */\n    tag_303:\n        /* \"#utility.yul\":10745:11014   */\n      pop\n        /* \"#utility.yul\":10694:11014   */\n      swap2\n      swap1\n      pop\n      jump\t// out\n        /* \"#utility.yul\":11020:11200   */\n    tag_175:\n        /* \"#utility.yul\":11068:11145   */\n      0x4e487b7100000000000000000000000000000000000000000000000000000000\n        /* \"#utility.yul\":11065:11066   */\n      0x00\n        /* \"#utility.yul\":11058:11146   */\n      mstore\n        /* \"#utility.yul\":11165:11169   */\n      0x11\n        /* \"#utility.yul\":11162:11163   */\n      0x04\n        /* \"#utility.yul\":11155:11170   */\n      mstore\n        /* \"#utility.yul\":11189:11193   */\n      0x24\n        /* \"#utility.yul\":11186:11187   */\n      0x00\n        /* \"#utility.yul\":11179:11194   */\n      revert\n        /* \"#utility.yul\":11206:11400   */\n    tag_55:\n        /* \"#utility.yul\":11246:11250   */\n      0x00\n        /* \"#utility.yul\":11266:11286   */\n      tag_307\n        /* \"#utility.yul\":11284:11285   */\n      dup3\n        /* \"#utility.yul\":11266:11286   */\n      tag_166\n      jump\t// in\n    tag_307:\n        /* \"#utility.yul\":11261:11286   */\n      swap2\n      pop\n        /* \"#utility.yul\":11300:11320   */\n      tag_308\n        /* \"#utility.yul\":11318:11319   */\n      dup4\n        /* \"#utility.yul\":11300:11320   */\n      tag_166\n      jump\t// in\n    tag_308:\n        /* \"#utility.yul\":11295:11320   */\n      swap3\n      pop\n        /* \"#utility.yul\":11344:11345   */\n      dup3\n        /* \"#utility.yul\":11341:11342   */\n      dup3\n        /* \"#utility.yul\":11337:11346   */\n      sub\n        /* \"#utility.yul\":11329:11346   */\n      swap1\n      pop\n        /* \"#utility.yul\":11368:11369   */\n      dup2\n        /* \"#utility.yul\":11362:11366   */\n      dup2\n        /* \"#utility.yul\":11359:11370   */\n      gt\n        /* \"#utility.yul\":11356:11393   */\n      iszero\n      tag_309\n      jumpi\n        /* \"#utility.yul\":11373:11391   */\n      tag_310\n      tag_175\n      jump\t// in\n    tag_310:\n        /* \"#utility.yul\":11356:11393   */\n    tag_309:\n        /* \"#utility.yul\":11206:11400   */\n      swap3\n      swap2\n      pop\n      pop\n      jump\t// out\n        /* \"#utility.yul\":11406:11555   */\n    tag_176:\n        /* \"#utility.yul\":11455:11461   */\n      0x00\n        /* \"#utility.yul\":11489:11494   */\n      dup2\n        /* \"#utility.yul\":11483:11495   */\n      sload\n        /* \"#utility.yul\":11473:11495   */\n      swap1\n      pop\n        /* \"#utility.yul\":11515:11548   */\n      tag_312\n        /* \"#utility.yul\":11541:11547   */\n      dup2\n        /* \"#utility.yul\":11515:11548   */\n      tag_47\n      jump\t// in\n    tag_312:\n        /* \"#utility.yul\":11505:11548   */\n      swap1\n      pop\n        /* \"#utility.yul\":11406:11555   */\n      swap2\n      swap1\n      pop\n      jump\t// out\n        /* \"#utility.yul\":11561:11702   */\n    tag_177:\n        /* \"#utility.yul\":11610:11614   */\n      0x00\n        /* \"#utility.yul\":11633:11636   */\n      dup2\n        /* \"#utility.yul\":11625:11636   */\n      swap1\n      pop\n        /* \"#utility.yul\":11656:11659   */\n      dup2\n        /* \"#utility.yul\":11653:11654   */\n      0x00\n        /* \"#utility.yul\":11646:11660   */\n      mstore\n        /* \"#utility.yul\":11690:11694   */\n      0x20\n        /* \"#utility.yul\":11687:11688   */\n      0x00\n        /* \"#utility.yul\":11677:11695   */\n      keccak256\n        /* \"#utility.yul\":11669:11695   */\n      swap1\n      pop\n        /* \"#utility.yul\":11561:11702   */\n      swap2\n      swap1\n      pop\n      jump\t// out\n        /* \"#utility.yul\":11708:11801   */\n    tag_178:\n        /* \"#utility.yul\":11745:11751   */\n      0x00\n        /* \"#utility.yul\":11792:11794   */\n      0x20\n        /* \"#utility.yul\":11787:11789   */\n      0x1f\n        /* \"#utility.yul\":11780:11785   */\n      dup4\n        /* \"#utility.yul\":11776:11790   */\n      add\n        /* \"#utility.yul\":11772:11795   */\n      div\n        /* \"#utility.yul\":11762:11795   */\n      swap1\n      pop\n        /* \"#utility.yul\":11708:11801   */\n      swap2\n      swap1\n      pop\n      jump\t// out\n        /* \"#utility.yul\":11807:11914   */\n    tag_179:\n        /* \"#utility.yul\":11851:11859   */\n      0x00\n        /* \"#utility.yul\":11901:11906   */\n      dup3\n        /* \"#utility.yul\":11895:11899   */\n      dup3\n        /* \"#utility.yul\":11891:11907   */\n      shl\n        /* \"#utility.yul\":11870:11907   */\n      swap1\n      pop\n        /* \"#utility.yul\":11807:11914   */\n      swap3\n      swap2\n      pop\n      pop\n      jump\t// out\n        /* \"#utility.yul\":11920:12313   */\n    tag_180:\n        /* \"#utility.yul\":11989:11995   */\n      0x00\n        /* \"#utility.yul\":12039:12040   */\n      0x08\n        /* \"#utility.yul\":12027:12037   */\n      dup4\n        /* \"#utility.yul\":12023:12041   */\n      mul\n        /* \"#utility.yul\":12062:12159   */\n      tag_317\n        /* \"#utility.yul\":12092:12158   */\n      0xffffffffffffffffffffffffffffffffffffffffffffffffffffffffffffffff\n        /* \"#utility.yul\":12081:12090   */\n      dup3\n        /* \"#utility.yul\":12062:12159   */\n      tag_179\n      jump\t// in\n    tag_317:\n        /* \"#utility.yul\":12180:12219   */\n      tag_318\n        /* \"#utility.yul\":12210:12218   */\n      dup7\n        /* \"#utility.yul\":12199:12208   */\n      dup4\n        /* \"#utility.yul\":12180:12219   */\n      tag_179\n      jump\t// in\n    tag_318:\n        /* \"#utility.yul\":12168:12219   */\n      swap6\n      pop\n        /* \"#utility.yul\":12252:12256   */\n      dup1\n        /* \"#utility.yul\":12248:12257   */\n      not\n        /* \"#utility.yul\":12241:12246   */\n      dup5\n        /* \"#utility.yul\":12237:12258   */\n      and\n        /* \"#utility.yul\":12228:12258   */\n      swap4\n      pop\n        /* \"#utility.yul\":12301:12305   */\n      dup1\n        /* \"#utility.yul\":12291:12299   */\n      dup7\n        /* \"#utility.yul\":12287:12306   */\n      and\n        /* \"#utility.yul\":12280:12285   */\n      dup5\n        /* \"#utility.yul\":12277:12307   */\n      or\n        /* \"#utility.yul\":12267:12307   */\n      swap3\n      pop\n        /* \"#utility.yul\":11996:12313   */\n      pop\n      pop\n        /* \"#utility.yul\":11920:12313   */\n      swap4\n      swap3\n      pop\n      pop\n      pop\n      jump\t// out\n        /* \"#utility.yul\":12319:12379   */\n    tag_181:\n        /* \"#utility.yul\":12347:12350   */\n      0x00\n        /* \"#utility.yul\":12368:12373   */\n      dup2\n        /* \"#utility.yul\":12361:12373   */\n      swap1\n      pop\n        /* \"#utility.yul\":12319:12379   */\n      swap2\n      swap1\n      pop\n      jump\t// out\n        /* \"#utility.yul\":12385:12527   */\n    tag_182:\n        /* \"#utility.yul\":12435:12444   */\n      0x00\n        /* \"#utility.yul\":12468:12521   */\n      tag_321\n        /* \"#utility.yul\":12486:12520   */\n      tag_322\n        /* \"#utility.yul\":12495:12519   */\n      tag_323\n        /* \"#utility.yul\":12513:12518   */\n      dup5\n        /* \"#utility.yul\":12495:12519   */\n      tag_166\n      jump\t// in\n    tag_323:\n        /* \"#utility.yul\":12486:12520   */\n      tag_181\n      jump\t// in\n    tag_322:\n        /* \"#utility.yul\":12468:12521   */\n      tag_166\n      jump\t// in\n    tag_321:\n        /* \"#utility.yul\":12455:12521   */\n      swap1\n      pop\n        /* \"#utility.yul\":12385:12527   */\n      swap2\n      swap1\n      pop\n      jump\t// out\n        /* \"#utility.yul\":12533:12608   */\n    tag_183:\n        /* \"#utility.yul\":12576:12579   */\n      0x00\n        /* \"#utility.yul\":12597:12602   */\n      dup2\n        /* \"#utility.yul\":12590:12602   */\n      swap1\n      pop\n        /* \"#utility.yul\":12533:12608   */\n      swap2\n      swap1\n      pop\n      jump\t// out\n        /* \"#utility.yul\":12614:12883   */\n    tag_184:\n        /* \"#utility.yul\":12724:12763   */\n      tag_326\n        /* \"#utility.yul\":12755:12762   */\n      dup4\n        /* \"#utility.yul\":12724:12763   */\n      tag_182\n      jump\t// in\n    tag_326:\n        /* \"#utility.yul\":12785:12876   */\n      tag_327\n        /* \"#utility.yul\":12834:12875   */\n      tag_328\n        /* \"#utility.yul\":12858:12874   */\n      dup3\n        /* \"#utility.yul\":12834:12875   */\n      tag_183\n      jump\t// in\n    tag_328:\n        /* \"#utility.yul\":12826:12832   */\n      dup5\n        /* \"#utility.yul\":12819:12823   */\n      dup5\n        /* \"#utility.yul\":12813:12824   */\n      sload\n        /* \"#utility.yul\":12785:12876   */\n      tag_180\n      jump\t// in\n    tag_327:\n        /* \"#utility.yul\":12779:12783   */\n      dup3\n        /* \"#utility.yul\":12772:12877   */\n      sstore\n        /* \"#utility.yul\":12690:12883   */\n      pop\n        /* \"#utility.yul\":12614:12883   */\n      pop\n      pop\n      pop\n      jump\t// out\n        /* \"#utility.yul\":12889:12962   */\n    tag_185:\n        /* \"#utility.yul\":12934:12937   */\n      0x00\n        /* \"#utility.yul\":12955:12956   */\n      0x00\n        /* \"#utility.yul\":12948:12956   */\n      swap1\n      pop\n        /* \"#utility.yul\":12889:12962   */\n      swap1\n      jump\t// out\n        /* \"#utility.yul\":12968:13157   */\n    tag_186:\n        /* \"#utility.yul\":13045:13077   */\n      tag_331\n      tag_185\n      jump\t// in\n    tag_331:\n        /* \"#utility.yul\":13086:13151   */\n      tag_332\n        /* \"#utility.yul\":13144:13150   */\n      dup2\n        /* \"#utility.yul\":13136:13142   */\n      dup5\n        /* \"#utility.yul\":13130:13134   */\n      dup5\n        /* \"#utility.yul\":13086:13151   */\n      tag_184\n      jump\t// in\n    tag_332:\n        /* \"#utility.yul\":13021:13157   */\n      pop\n        /* \"#utility.yul\":12968:13157   */\n      pop\n      pop\n      jump\t// out\n        /* \"#utility.yul\":13163:13349   */\n    tag_187:\n        /* \"#utility.yul\":13223:13343   */\n    tag_334:\n        /* \"#utility.yul\":13240:13243   */\n      dup2\n        /* \"#utility.yul\":13233:13238   */\n      dup2\n        /* \"#utility.yul\":13230:13244   */\n      lt\n        /* \"#utility.yul\":13223:13343   */\n      iszero\n      tag_336\n      jumpi\n        /* \"#utility.yul\":13294:13333   */\n      tag_337\n        /* \"#utility.yul\":13331:13332   */\n      0x00\n        /* \"#utility.yul\":13324:13329   */\n      dup3\n        /* \"#utility.yul\":13294:13333   */\n      tag_186\n      jump\t// in\n    tag_337:\n        /* \"#utility.yul\":13267:13268   */\n      0x01\n        /* \"#utility.yul\":13260:13265   */\n      dup2\n        /* \"#utility.yul\":13256:13269   */\n      add\n        /* \"#utility.yul\":13247:13269   */\n      swap1\n      pop\n        /* \"#utility.yul\":13223:13343   */\n      jump(tag_334)\n    tag_336:\n        /* \"#utility.yul\":13163:13349   */\n      pop\n      pop\n      jump\t// out\n        /* \"#utility.yul\":13355:13898   */\n    tag_188:\n        /* \"#utility.yul\":13456:13458   */\n      0x1f\n        /* \"#utility.yul\":13451:13454   */\n      dup3\n        /* \"#utility.yul\":13448:13459   */\n      gt\n        /* \"#utility.yul\":13445:13891   */\n      iszero\n      tag_339\n      jumpi\n        /* \"#utility.yul\":13490:13528   */\n      tag_340\n        /* \"#utility.yul\":13522:13527   */\n      dup2\n        /* \"#utility.yul\":13490:13528   */\n      tag_177\n      jump\t// in\n    tag_340:\n        /* \"#utility.yul\":13574:13603   */\n      tag_341\n        /* \"#utility.yul\":13592:13602   */\n      dup5\n        /* \"#utility.yul\":13574:13603   */\n      tag_178\n      jump\t// in\n    tag_341:\n        /* \"#utility.yul\":13564:13572   */\n      dup2\n        /* \"#utility.yul\":13560:13604   */\n      add\n        /* \"#utility.yul\":13757:13759   */\n      0x20\n        /* \"#utility.yul\":13745:13755   */\n      dup6\n        /* \"#utility.yul\":13742:13760   */\n      lt\n        /* \"#utility.yul\":13739:13788   */\n      iszero\n      tag_342\n      jumpi\n        /* \"#utility.yul\":13778:13786   */\n      dup2\n        /* \"#utility.yul\":13763:13786   */\n      swap1\n      pop\n        /* \"#utility.yul\":13739:13788   */\n    tag_342:\n        /* \"#utility.yul\":13801:13881   */\n      tag_343\n        /* \"#utility.yul\":13857:13879   */\n      tag_344\n        /* \"#utility.yul\":13875:13878   */\n      dup6\n        /* \"#utility.yul\":13857:13879   */\n      tag_178\n      jump\t// in\n    tag_344:\n        /* \"#utility.yul\":13847:13855   */\n      dup4\n        /* \"#utility.yul\":13843:13880   */\n      add\n        /* \"#utility.yul\":13830:13841   */\n      dup3\n        /* \"#utility.yul\":13801:13881   */\n      tag_187\n      jump\t// in\n    tag_343:\n        /* \"#utility.yul\":13460:13891   */\n      pop\n      pop\n        /* \"#utility.yul\":13445:13891   */\n    tag_339:\n        /* \"#utility.yul\":13355:13898   */\n      pop\n      pop\n      pop\n      jump\t// out\n        /* \"#utility.yul\":13904:14021   */\n    tag_189:\n        /* \"#utility.yul\":13958:13966   */\n      0x00\n        /* \"#utility.yul\":14008:14013   */\n      dup3\n        /* \"#utility.yul\":14002:14006   */\n      dup3\n        /* \"#utility.yul\":13998:14014   */\n      shr\n        /* \"#utility.yul\":13977:14014   */\n      swap1\n      pop\n        /* \"#utility.yul\":13904:14021   */\n      swap3\n      swap2\n      pop\n      pop\n      jump\t// out\n        /* \"#utility.yul\":14027:14196   */\n    tag_190:\n        /* \"#utility.yul\":14071:14077   */\n      0x00\n        /* \"#utility.yul\":14104:14155   */\n      tag_347\n        /* \"#utility.yul\":14152:14153   */\n      0x00\n        /* \"#utility.yul\":14148:14154   */\n      not\n        /* \"#utility.yul\":14140:14145   */\n      dup5\n        /* \"#utility.yul\":14137:14138   */\n      0x08\n        /* \"#utility.yul\":14133:14146   */\n      mul\n        /* \"#utility.yul\":14104:14155   */\n      tag_189\n      jump\t// in\n    tag_347:\n        /* \"#utility.yul\":14100:14156   */\n      not\n        /* \"#utility.yul\":14185:14189   */\n      dup1\n        /* \"#utility.yul\":14179:14183   */\n      dup4\n        /* \"#utility.yul\":14175:14190   */\n      and\n        /* \"#utility.yul\":14165:14190   */\n      swap2\n      pop\n        /* \"#utility.yul\":14078:14196   */\n      pop\n        /* \"#utility.yul\":14027:14196   */\n      swap3\n      swap2\n      pop\n      pop\n      jump\t// out\n        /* \"#utility.yul\":14201:14496   */\n    tag_191:\n        /* \"#utility.yul\":14277:14281   */\n      0x00\n        /* \"#utility.yul\":14423:14452   */\n      tag_349\n        /* \"#utility.yul\":14448:14451   */\n      dup4\n        /* \"#utility.yul\":14442:14446   */\n      dup4\n        /* \"#utility.yul\":14423:14452   */\n      tag_190\n      jump\t// in\n    tag_349:\n        /* \"#utility.yul\":14415:14452   */\n      swap2\n      pop\n        /* \"#utility.yul\":14485:14488   */\n      dup3\n        /* \"#utility.yul\":14482:14483   */\n      0x02\n        /* \"#utility.yul\":14478:14489   */\n      mul\n        /* \"#utility.yul\":14472:14476   */\n      dup3\n        /* \"#utility.yul\":14469:14490   */\n      or\n        /* \"#utility.yul\":14461:14490   */\n      swap1\n      pop\n        /* \"#utility.yul\":14201:14496   */\n      swap3\n      swap2\n      pop\n      pop\n      jump\t// out\n        /* \"#utility.yul\":14501:15952   */\n    tag_63:\n        /* \"#utility.yul\":14612:14615   */\n      dup2\n        /* \"#utility.yul\":14606:14610   */\n      dup2\n        /* \"#utility.yul\":14603:14616   */\n      sub\n        /* \"#utility.yul\":14600:14626   */\n      tag_351\n      jumpi\n        /* \"#utility.yul\":14619:14624   */\n      pop\n      pop\n      jump(tag_350)\n        /* \"#utility.yul\":14600:14626   */\n    tag_351:\n        /* \"#utility.yul\":14650:14684   */\n      tag_352\n        /* \"#utility.yul\":14680:14683   */\n      dup3\n        /* \"#utility.yul\":14650:14684   */\n      tag_176\n      jump\t// in\n    tag_352:\n        /* \"#utility.yul\":14749:14767   */\n      0xffffffffffffffff\n        /* \"#utility.yul\":14741:14747   */\n      dup2\n        /* \"#utility.yul\":14738:14768   */\n      gt\n        /* \"#utility.yul\":14735:14791   */\n      iszero\n      tag_353\n      jumpi\n        /* \"#utility.yul\":14771:14789   */\n      tag_354\n      tag_157\n      jump\t// in\n    tag_354:\n        /* \"#utility.yul\":14735:14791   */\n    tag_353:\n        /* \"#utility.yul\":14815:14853   */\n      tag_355\n        /* \"#utility.yul\":14847:14851   */\n      dup3\n        /* \"#utility.yul\":14841:14852   */\n      sload\n        /* \"#utility.yul\":14815:14853   */\n      tag_47\n      jump\t// in\n    tag_355:\n        /* \"#utility.yul\":14900:14967   */\n      tag_356\n        /* \"#utility.yul\":14960:14966   */\n      dup3\n        /* \"#utility.yul\":14952:14958   */\n      dup3\n        /* \"#utility.yul\":14946:14950   */\n      dup6\n        /* \"#utility.yul\":14900:14967   */\n      tag_188\n      jump\t// in\n    tag_356:\n        /* \"#utility.yul\":14994:14995   */\n      0x00\n        /* \"#utility.yul\":15023:15025   */\n      0x1f\n        /* \"#utility.yul\":15015:15021   */\n      dup4\n        /* \"#utility.yul\":15012:15026   */\n      gt\n        /* \"#utility.yul\":15040:15041   */\n      0x01\n        /* \"#utility.yul\":15035:15707   */\n      dup2\n      eq\n      tag_358\n      jumpi\n        /* \"#utility.yul\":15751:15752   */\n      0x00\n        /* \"#utility.yul\":15768:15774   */\n      dup5\n        /* \"#utility.yul\":15765:15842   */\n      iszero\n      tag_359\n      jumpi\n        /* \"#utility.yul\":15817:15826   */\n      dup3\n        /* \"#utility.yul\":15812:15815   */\n      dup8\n        /* \"#utility.yul\":15808:15827   */\n      add\n        /* \"#utility.yul\":15802:15828   */\n      sload\n        /* \"#utility.yul\":15793:15828   */\n      swap1\n      pop\n        /* \"#utility.yul\":15765:15842   */\n    tag_359:\n        /* \"#utility.yul\":15868:15935   */\n      tag_360\n        /* \"#utility.yul\":15928:15934   */\n      dup6\n        /* \"#utility.yul\":15921:15926   */\n      dup3\n        /* \"#utility.yul\":15868:15935   */\n      tag_191\n      jump\t// in\n    tag_360:\n        /* \"#utility.yul\":15862:15866   */\n      dup7\n        /* \"#utility.yul\":15855:15936   */\n      sstore\n        /* \"#utility.yul\":15724:15946   */\n      pop\n        /* \"#utility.yul\":15005:15946   */\n      jump(tag_357)\n        /* \"#utility.yul\":15035:15707   */\n    tag_358:\n        /* \"#utility.yul\":15087:15091   */\n      0x1f\n        /* \"#utility.yul\":15083:15092   */\n      not\n        /* \"#utility.yul\":15075:15081   */\n      dup5\n        /* \"#utility.yul\":15071:15093   */\n      and\n        /* \"#utility.yul\":15113:15149   */\n      tag_361\n        /* \"#utility.yul\":15145:15148   */\n      dup8\n        /* \"#utility.yul\":15113:15149   */\n      tag_177\n      jump\t// in\n    tag_361:\n        /* \"#utility.yul\":15106:15149   */\n      swap7\n      pop\n        /* \"#utility.yul\":15176:15213   */\n      tag_362\n        /* \"#utility.yul\":15208:15212   */\n      dup7\n        /* \"#utility.yul\":15176:15213   */\n      tag_177\n      jump\t// in\n    tag_362:\n        /* \"#utility.yul\":15235:15236   */\n      0x00\n        /* \"#utility.yul\":15249:15456   */\n    tag_363:\n        /* \"#utility.yul\":15263:15270   */\n      dup3\n        /* \"#utility.yul\":15260:15261   */\n      dup2\n        /* \"#utility.yul\":15257:15271   */\n      lt\n        /* \"#utility.yul\":15249:15456   */\n      iszero\n      tag_365\n      jumpi\n        /* \"#utility.yul\":15342:15351   */\n      dup5\n        /* \"#utility.yul\":15337:15340   */\n      dup10\n        /* \"#utility.yul\":15333:15352   */\n      add\n        /* \"#utility.yul\":15327:15353   */\n      sload\n        /* \"#utility.yul\":15319:15325   */\n      dup3\n        /* \"#utility.yul\":15312:15354   */\n      sstore\n        /* \"#utility.yul\":15393:15394   */\n      0x01\n        /* \"#utility.yul\":15385:15391   */\n      dup3\n        /* \"#utility.yul\":15381:15395   */\n      add\n        /* \"#utility.yul\":15371:15395   */\n      swap2\n      pop\n        /* \"#utility.yul\":15440:15441   */\n      0x01\n        /* \"#utility.yul\":15429:15438   */\n      dup6\n        /* \"#utility.yul\":15425:15442   */\n      add\n        /* \"#utility.yul\":15412:15442   */\n      swap5\n      pop\n        /* \"#utility.yul\":15286:15290   */\n      0x20\n        /* \"#utility.yul\":15283:15284   */\n      dup2\n        /* \"#utility.yul\":15279:15291   */\n      add\n        /* \"#utility.yul\":15274:15291   */\n      swap1\n      pop\n        /* \"#utility.yul\":15249:15456   */\n      jump(tag_363)\n    tag_365:\n        /* \"#utility.yul\":15484:15490   */\n      dup7\n        /* \"#utility.yul\":15475:15482   */\n      dup4\n        /* \"#utility.yul\":15472:15491   */\n      lt\n        /* \"#utility.yul\":15469:15648   */\n      iszero\n      tag_366\n      jumpi\n        /* \"#utility.yul\":15542:15551   */\n      dup5\n        /* \"#utility.yul\":15537:15540   */\n      dup10\n        /* \"#utility.yul\":15533:15552   */\n      add\n        /* \"#utility.yul\":15527:15553   */\n      sload\n        /* \"#utility.yul\":15585:15633   */\n      tag_367\n        /* \"#utility.yul\":15627:15631   */\n      0x1f\n        /* \"#utility.yul\":15619:15625   */\n      dup10\n        /* \"#utility.yul\":15615:15632   */\n      and\n        /* \"#utility.yul\":15604:15613   */\n      dup3\n        /* \"#utility.yul\":15585:15633   */\n      tag_190\n      jump\t// in\n    tag_367:\n        /* \"#utility.yul\":15577:15583   */\n      dup4\n        /* \"#utility.yul\":15570:15634   */\n      sstore\n        /* \"#utility.yul\":15492:15648   */\n      pop\n        /* \"#utility.yul\":15469:15648   */\n    tag_366:\n        /* \"#utility.yul\":15694:15695   */\n      0x01\n        /* \"#utility.yul\":15690:15691   */\n      0x02\n        /* \"#utility.yul\":15682:15688   */\n      dup9\n        /* \"#utility.yul\":15678:15692   */\n      mul\n        /* \"#utility.yul\":15674:15696   */\n      add\n        /* \"#utility.yul\":15668:15672   */\n      dup9\n        /* \"#utility.yul\":15661:15697   */\n      sstore\n        /* \"#utility.yul\":15042:15707   */\n      pop\n      pop\n      pop\n        /* \"#utility.yul\":15005:15946   */\n    tag_357:\n      pop\n        /* \"#utility.yul\":14590:15952   */\n      pop\n      pop\n      pop\n        /* \"#utility.yul\":14501:15952   */\n      pop\n      pop\n    tag_350:\n      jump\t// out\n        /* \"#utility.yul\":15958:16129   */\n    tag_77:\n        /* \"#utility.yul\":15997:16000   */\n      0x00\n        /* \"#utility.yul\":16020:16044   */\n      tag_369\n        /* \"#utility.yul\":16038:16043   */\n      dup3\n        /* \"#utility.yul\":16020:16044   */\n      tag_166\n      jump\t// in\n    tag_369:\n        /* \"#utility.yul\":16011:16044   */\n      swap2\n      pop\n        /* \"#utility.yul\":16066:16070   */\n      0x00\n        /* \"#utility.yul\":16059:16064   */\n      dup3\n        /* \"#utility.yul\":16056:16071   */\n      sub\n        /* \"#utility.yul\":16053:16094   */\n      tag_370\n      jumpi\n        /* \"#utility.yul\":16074:16092   */\n      tag_371\n      tag_175\n      jump\t// in\n    tag_371:\n        /* \"#utility.yul\":16053:16094   */\n    tag_370:\n        /* \"#utility.yul\":16121:16122   */\n      0x01\n        /* \"#utility.yul\":16114:16119   */\n      dup3\n        /* \"#utility.yul\":16110:16123   */\n      sub\n        /* \"#utility.yul\":16103:16123   */\n      swap1\n      pop\n        /* \"#utility.yul\":15958:16129   */\n      swap2\n      swap1\n      pop\n      jump\t// out\n        /* \"#utility.yul\":16135:17530   */\n    tag_118:\n        /* \"#utility.yul\":16252:16289   */\n      tag_373\n        /* \"#utility.yul\":16285:16288   */\n      dup3\n        /* \"#utility.yul\":16252:16289   */\n      tag_169\n      jump\t// in\n    tag_373:\n        /* \"#utility.yul\":16354:16372   */\n      0xffffffffffffffff\n        /* \"#utility.yul\":16346:16352   */\n      dup2\n        /* \"#utility.yul\":16343:16373   */\n      gt\n        /* \"#utility.yul\":16340:16396   */\n      iszero\n      tag_374\n      jumpi\n        /* \"#utility.yul\":16376:16394   */\n      tag_375\n      tag_157\n      jump\t// in\n    tag_375:\n        /* \"#utility.yul\":16340:16396   */\n    tag_374:\n        /* \"#utility.yul\":16420:16458   */\n      tag_376\n        /* \"#utility.yul\":16452:16456   */\n      dup3\n        /* \"#utility.yul\":16446:16457   */\n      sload\n        /* \"#utility.yul\":16420:16458   */\n      tag_47\n      jump\t// in\n    tag_376:\n        /* \"#utility.yul\":16505:16572   */\n      tag_377\n        /* \"#utility.yul\":16565:16571   */\n      dup3\n        /* \"#utility.yul\":16557:16563   */\n      dup3\n        /* \"#utility.yul\":16551:16555   */\n      dup6\n        /* \"#utility.yul\":16505:16572   */\n      tag_188\n      jump\t// in\n    tag_377:\n        /* \"#utility.yul\":16599:16600   */\n      0x00\n        /* \"#utility.yul\":16623:16627   */\n      0x20\n        /* \"#utility.yul\":16610:16627   */\n      swap1\n      pop\n        /* \"#utility.yul\":16655:16657   */\n      0x1f\n        /* \"#utility.yul\":16647:16653   */\n      dup4\n        /* \"#utility.yul\":16644:16658   */\n      gt\n        /* \"#utility.yul\":16672:16673   */\n      0x01\n        /* \"#utility.yul\":16667:17285   */\n      dup2\n      eq\n      tag_379\n      jumpi\n        /* \"#utility.yul\":17329:17330   */\n      0x00\n        /* \"#utility.yul\":17346:17352   */\n      dup5\n        /* \"#utility.yul\":17343:17420   */\n      iszero\n      tag_380\n      jumpi\n        /* \"#utility.yul\":17395:17404   */\n      dup3\n        /* \"#utility.yul\":17390:17393   */\n      dup8\n        /* \"#utility.yul\":17386:17405   */\n      add\n        /* \"#utility.yul\":17380:17406   */\n      mload\n        /* \"#utility.yul\":17371:17406   */\n      swap1\n      pop\n        /* \"#utility.yul\":17343:17420   */\n    tag_380:\n        /* \"#utility.yul\":17446:17513   */\n      tag_381\n        /* \"#utility.yul\":17506:17512   */\n      dup6\n        /* \"#utility.yul\":17499:17504   */\n      dup3\n        /* \"#utility.yul\":17446:17513   */\n      tag_191\n      jump\t// in\n    tag_381:\n        /* \"#utility.yul\":17440:17444   */\n      dup7\n        /* \"#utility.yul\":17433:17514   */\n      sstore\n        /* \"#utility.yul\":17302:17524   */\n      pop\n        /* \"#utility.yul\":16637:17524   */\n      jump(tag_378)\n        /* \"#utility.yul\":16667:17285   */\n    tag_379:\n        /* \"#utility.yul\":16719:16723   */\n      0x1f\n        /* \"#utility.yul\":16715:16724   */\n      not\n        /* \"#utility.yul\":16707:16713   */\n      dup5\n        /* \"#utility.yul\":16703:16725   */\n      and\n        /* \"#utility.yul\":16753:16790   */\n      tag_382\n        /* \"#utility.yul\":16785:16789   */\n      dup7\n        /* \"#utility.yul\":16753:16790   */\n      tag_177\n      jump\t// in\n    tag_382:\n        /* \"#utility.yul\":16812:16813   */\n      0x00\n        /* \"#utility.yul\":16826:17034   */\n    tag_383:\n        /* \"#utility.yul\":16840:16847   */\n      dup3\n        /* \"#utility.yul\":16837:16838   */\n      dup2\n        /* \"#utility.yul\":16834:16848   */\n      lt\n        /* \"#utility.yul\":16826:17034   */\n      iszero\n      tag_385\n      jumpi\n        /* \"#utility.yul\":16919:16928   */\n      dup5\n        /* \"#utility.yul\":16914:16917   */\n      dup10\n        /* \"#utility.yul\":16910:16929   */\n      add\n        /* \"#utility.yul\":16904:16930   */\n      mload\n        /* \"#utility.yul\":16896:16902   */\n      dup3\n        /* \"#utility.yul\":16889:16931   */\n      sstore\n        /* \"#utility.yul\":16970:16971   */\n      0x01\n        /* \"#utility.yul\":16962:16968   */\n      dup3\n        /* \"#utility.yul\":16958:16972   */\n      add\n        /* \"#utility.yul\":16948:16972   */\n      swap2\n      pop\n        /* \"#utility.yul\":17017:17019   */\n      0x20\n        /* \"#utility.yul\":17006:17015   */\n      dup6\n        /* \"#utility.yul\":17002:17020   */\n      add\n        /* \"#utility.yul\":16989:17020   */\n      swap5\n      pop\n        /* \"#utility.yul\":16863:16867   */\n      0x20\n        /* \"#utility.yul\":16860:16861   */\n      dup2\n        /* \"#utility.yul\":16856:16868   */\n      add\n        /* \"#utility.yul\":16851:16868   */\n      swap1\n      pop\n        /* \"#utility.yul\":16826:17034   */\n      jump(tag_383)\n    tag_385:\n        /* \"#utility.yul\":17062:17068   */\n      dup7\n        /* \"#utility.yul\":17053:17060   */\n      dup4\n        /* \"#utility.yul\":17050:17069   */\n      lt\n        /* \"#utility.yul\":17047:17226   */\n      iszero\n      tag_386\n      jumpi\n        /* \"#utility.yul\":17120:17129   */\n      dup5\n        /* \"#utility.yul\":17115:17118   */\n      dup10\n        /* \"#utility.yul\":17111:17130   */\n      add\n        /* \"#utility.yul\":17105:17131   */\n      mload\n        /* \"#utility.yul\":17163:17211   */\n      tag_387\n        /* \"#utility.yul\":17205:17209   */\n      0x1f\n        /* \"#utility.yul\":17197:17203   */\n      dup10\n        /* \"#utility.yul\":17193:17210   */\n      and\n        /* \"#utility.yul\":17182:17191   */\n      dup3\n        /* \"#utility.yul\":17163:17211   */\n      tag_190\n      jump\t// in\n    tag_387:\n        /* \"#utility.yul\":17155:17161   */\n      dup4\n        /* \"#utility.yul\":17148:17212   */\n      sstore\n        /* \"#utility.yul\":17070:17226   */\n      pop\n        /* \"#utility.yul\":17047:17226   */\n    tag_386:\n        /* \"#utility.yul\":17272:17273   */\n      0x01\n        /* \"#utility.yul\":17268:17269   */\n      0x02\n        /* \"#utility.yul\":17260:17266   */\n      dup9\n        /* \"#utility.yul\":17256:17270   */\n      mul\n        /* \"#utility.yul\":17252:17274   */\n      add\n        /* \"#utility.yul\":17246:17250   */\n      dup9\n        /* \"#utility.yul\":17239:17275   */\n      sstore\n        /* \"#utility.yul\":16674:17285   */\n      pop\n      pop\n      pop\n        /* \"#utility.yul\":16637:17524   */\n    tag_378:\n      pop\n        /* \"#utility.yul\":16227:17530   */\n      pop\n      pop\n      pop\n        /* \"#utility.yul\":16135:17530   */\n      pop\n      pop\n      jump\t// out\n        /* \"#utility.yul\":17536:17769   */\n    tag_139:\n        /* \"#utility.yul\":17575:17578   */\n      0x00\n        /* \"#utility.yul\":17598:17622   */\n      tag_389\n        /* \"#utility.yul\":17616:17621   */\n      dup3\n        /* \"#utility.yul\":17598:17622   */\n      tag_166\n      jump\t// in\n    tag_389:\n        /* \"#utility.yul\":17589:17622   */\n      swap2\n      pop\n        /* \"#utility.yul\":17644:17710   */\n      0xffffffffffffffffffffffffffffffffffffffffffffffffffffffffffffffff\n        /* \"#utility.yul\":17637:17642   */\n      dup3\n        /* \"#utility.yul\":17634:17711   */\n      sub\n        /* \"#utility.yul\":17631:17734   */\n      tag_390\n      jumpi\n        /* \"#utility.yul\":17714:17732   */\n      tag_391\n      tag_175\n      jump\t// in\n    tag_391:\n        /* \"#utility.yul\":17631:17734   */\n    tag_390:\n        /* \"#utility.yul\":17761:17762   */\n      0x01\n        /* \"#utility.yul\":17754:17759   */\n      dup3\n        /* \"#utility.yul\":17750:17763   */\n      add\n        /* \"#utility.yul\":17743:17763   */\n      swap1\n      pop\n        /* \"#utility.yul\":17536:17769   */\n      swap2\n      swap1\n      pop\n      jump\t// out\n        /* \"#utility.yul\":17775:17923   */\n    tag_192:\n        /* \"#utility.yul\":17877:17888   */\n      0x00\n        /* \"#utility.yul\":17914:17917   */\n      dup2\n        /* \"#utility.yul\":17899:17917   */\n      swap1\n      pop\n        /* \"#utility.yul\":17775:17923   */\n      swap3\n      swap2\n      pop\n      pop\n      jump\t// out\n        /* \"#utility.yul\":17929:18319   */\n    tag_193:\n        /* \"#utility.yul\":18035:18038   */\n      0x00\n        /* \"#utility.yul\":18063:18102   */\n      tag_394\n        /* \"#utility.yul\":18096:18101   */\n      dup3\n        /* \"#utility.yul\":18063:18102   */\n      tag_169\n      jump\t// in\n    tag_394:\n        /* \"#utility.yul\":18118:18207   */\n      tag_395\n        /* \"#utility.yul\":18200:18206   */\n      dup2\n        /* \"#utility.yul\":18195:18198   */\n      dup6\n        /* \"#utility.yul\":18118:18207   */\n      tag_192\n      jump\t// in\n    tag_395:\n        /* \"#utility.yul\":18111:18207   */\n      swap4\n      pop\n        /* \"#utility.yul\":18216:18281   */\n      tag_396\n        /* \"#utility.yul\":18274:18280   */\n      dup2\n        /* \"#utility.yul\":18269:18272   */\n      dup6\n        /* \"#utility.yul\":18262:18266   */\n      0x20\n        /* \"#utility.yul\":18255:18260   */\n      dup7\n        /* \"#utility.yul\":18251:18267   */\n      add\n        /* \"#utility.yul\":18216:18281   */\n      tag_171\n      jump\t// in\n    tag_396:\n        /* \"#utility.yul\":18306:18312   */\n      dup1\n        /* \"#utility.yul\":18301:18304   */\n      dup5\n        /* \"#utility.yul\":18297:18313   */\n      add\n        /* \"#utility.yul\":18290:18313   */\n      swap2\n      pop\n        /* \"#utility.yul\":18039:18319   */\n      pop\n        /* \"#utility.yul\":17929:18319   */\n      swap3\n      swap2\n      pop\n      pop\n      jump\t// out\n        /* \"#utility.yul\":18325:18600   */\n    tag_142:\n        /* \"#utility.yul\":18457:18460   */\n      0x00\n        /* \"#utility.yul\":18479:18574   */\n      tag_398\n        /* \"#utility.yul\":18570:18573   */\n      dup3\n        /* \"#utility.yul\":18561:18567   */\n      dup5\n        /* \"#utility.yul\":18479:18574   */\n      tag_193\n      jump\t// in\n    tag_398:\n        /* \"#utility.yul\":18472:18574   */\n      swap2\n      pop\n        /* \"#utility.yul\":18591:18594   */\n      dup2\n        /* \"#utility.yul\":18584:18594   */\n      swap1\n      pop\n        /* \"#utility.yul\":18325:18600   */\n      swap3\n      swap2\n      pop\n      pop\n      jump\t// out\n\n    auxdata: 0xa264697066735822122020f22e22e500636f0c25e5d9b672f0d6c6104668488af53a81bb0e0c1448ae1a64736f6c634300081e0033\n}\n",
				"bytecode": {
					"linkReferences": {},
					"object": "6080604052348015600e575f5ffd5b505f6001819055506113f7806100235f395ff3fe608060405234801561000f575f5ffd5b5060043610610055575f3560e01c80631e7684931461005957806323438efb1461008957806349816d49146100bf57806359c1ed2c146100ef578063997a2ebb1461011f575b5f5ffd5b610073600480360381019061006e9190610ab0565b61013d565b6040516100809190610b11565b60405180910390f35b6100a3600480360381019061009e9190610b5d565b61038b565b6040516100b69796959493929190610bf7565b60405180910390f35b6100d960048036038101906100d49190610c80565b6105ef565b6040516100e69190610b11565b60405180910390f35b61010960048036038101906101049190610d5d565b6107b0565b6040516101169190610e6a565b60405180910390f35b6101276108ad565b6040516101349190610e6a565b60405180910390f35b5f5f600154116101505761014f610e83565b5b5f5f90505b600154811015610381576102115f828154811061017557610174610eb0565b5b905f5260205f209060070201600201805461018f90610f0a565b80601f01602080910402602001604051908101604052809291908181526020018280546101bb90610f0a565b80156102065780601f106101dd57610100808354040283529160200191610206565b820191905f5260205f20905b8154815290600101906020018083116101e957829003601f168201915b5050505050846108b3565b15610374575f600180546102259190610f67565b8154811061023657610235610eb0565b5b905f5260205f2090600702015f828154811061025557610254610eb0565b5b905f5260205f2090600702015f8201815f019081610273919061114f565b5060018201816001019081610288919061114f565b506002820181600201908161029d919061114f565b5060038201548160030155600482018160040190816102bc919061114f565b5060058201548160050155600682015481600601559050505f600180546102e39190610f67565b815481106102f4576102f3610eb0565b5b905f5260205f2090600702015f5f82015f61030f919061090b565b600182015f61031e919061090b565b600282015f61032d919061090b565b600382015f9055600482015f610343919061090b565b600582015f9055600682015f9055505060015f81548092919061036590611234565b91905055506001915050610386565b8080600101915050610155565b505f90505b919050565b5f8181548110610399575f80fd5b905f5260205f2090600702015f91509050805f0180546103b890610f0a565b80601f01602080910402602001604051908101604052809291908181526020018280546103e490610f0a565b801561042f5780601f106104065761010080835404028352916020019161042f565b820191905f5260205f20905b81548152906001019060200180831161041257829003601f168201915b50505050509080600101805461044490610f0a565b80601f016020809104026020016040519081016040528092919081815260200182805461047090610f0a565b80156104bb5780601f10610492576101008083540402835291602001916104bb565b820191905f5260205f20905b81548152906001019060200180831161049e57829003601f168201915b5050505050908060020180546104d090610f0a565b80601f01602080910402602001604051908101604052809291908181526020018280546104fc90610f0a565b80156105475780601f1061051e57610100808354040283529160200191610547565b820191905f5260205f20905b81548152906001019060200180831161052a57829003601f168201915b50505050509080600301549080600401805461056290610f0a565b80601f016020809104026020016040519081016040528092919081815260200182805461058e90610f0a565b80156105d95780601f106105b0576101008083540402835291602001916105d9565b820191905f5260205f20905b8154815290600101906020018083116105bc57829003601f168201915b5050505050908060050154908060060154905087565b5f5f5f90505b6001548110156107a1576106b15f828154811061061557610614610eb0565b5b905f5260205f209060070201600201805461062f90610f0a565b80601f016020809104026020016040519081016040528092919081815260200182805461065b90610f0a565b80156106a65780601f1061067d576101008083540402835291602001916106a6565b820191905f5260205f20905b81548152906001019060200180831161068957829003601f168201915b5050505050896108b3565b1561079457855f82815481106106ca576106c9610eb0565b5b905f5260205f2090600702015f0190816106e4919061125b565b50865f82815481106106f9576106f8610eb0565b5b905f5260205f2090600702016001019081610714919061125b565b50845f828154811061072957610728610eb0565b5b905f5260205f20906007020160030181905550835f82815481106107505761074f610eb0565b5b905f5260205f20906007020160050181905550825f828154811061077757610776610eb0565b5b905f5260205f2090600702016006018190555060019150506107a6565b80806001019150506105f5565b505f90505b9695505050505050565b5f5f6040518060e001604052808a81526020018981526020018881526020018781526020018681526020018581526020018481525090505f81908060018154018082558091505060019003905f5260205f2090600702015f909190919091505f820151815f019081610822919061125b565b506020820151816001019081610838919061125b565b50604082015181600201908161084e919061125b565b5060608201518160030155608082015181600401908161086e919061125b565b5060a0820151816005015560c08201518160060155505060015f8154809291906108979061132a565b9190505550600154915050979650505050505050565b60015481565b5f816040516020016108c591906113ab565b60405160208183030381529060405280519060200120836040516020016108ec91906113ab565b6040516020818303038152906040528051906020012014905092915050565b50805461091790610f0a565b5f825580601f106109285750610945565b601f0160209004905f5260205f20908101906109449190610948565b5b50565b5b8082111561095f575f815f905550600101610949565b5090565b5f604051905090565b5f5ffd5b5f5ffd5b5f5ffd5b5f5ffd5b5f601f19601f8301169050919050565b7f4e487b71000000000000000000000000000000000000000000000000000000005f52604160045260245ffd5b6109c28261097c565b810181811067ffffffffffffffff821117156109e1576109e061098c565b5b80604052505050565b5f6109f3610963565b90506109ff82826109b9565b919050565b5f67ffffffffffffffff821115610a1e57610a1d61098c565b5b610a278261097c565b9050602081019050919050565b828183375f83830152505050565b5f610a54610a4f84610a04565b6109ea565b905082815260208101848484011115610a7057610a6f610978565b5b610a7b848285610a34565b509392505050565b5f82601f830112610a9757610a96610974565b5b8135610aa7848260208601610a42565b91505092915050565b5f60208284031215610ac557610ac461096c565b5b5f82013567ffffffffffffffff811115610ae257610ae1610970565b5b610aee84828501610a83565b91505092915050565b5f8115159050919050565b610b0b81610af7565b82525050565b5f602082019050610b245f830184610b02565b92915050565b5f819050919050565b610b3c81610b2a565b8114610b46575f5ffd5b50565b5f81359050610b5781610b33565b92915050565b5f60208284031215610b7257610b7161096c565b5b5f610b7f84828501610b49565b91505092915050565b5f81519050919050565b5f82825260208201905092915050565b8281835e5f83830152505050565b5f610bba82610b88565b610bc48185610b92565b9350610bd4818560208601610ba2565b610bdd8161097c565b840191505092915050565b610bf181610b2a565b82525050565b5f60e0820190508181035f830152610c0f818a610bb0565b90508181036020830152610c238189610bb0565b90508181036040830152610c378188610bb0565b9050610c466060830187610be8565b8181036080830152610c588186610bb0565b9050610c6760a0830185610be8565b610c7460c0830184610be8565b98975050505050505050565b5f5f5f5f5f5f60c08789031215610c9a57610c9961096c565b5b5f87013567ffffffffffffffff811115610cb757610cb6610970565b5b610cc389828a01610a83565b965050602087013567ffffffffffffffff811115610ce457610ce3610970565b5b610cf089828a01610a83565b955050604087013567ffffffffffffffff811115610d1157610d10610970565b5b610d1d89828a01610a83565b9450506060610d2e89828a01610b49565b9350506080610d3f89828a01610b49565b92505060a0610d5089828a01610b49565b9150509295509295509295565b5f5f5f5f5f5f5f60e0888a031215610d7857610d7761096c565b5b5f88013567ffffffffffffffff811115610d9557610d94610970565b5b610da18a828b01610a83565b975050602088013567ffffffffffffffff811115610dc257610dc1610970565b5b610dce8a828b01610a83565b965050604088013567ffffffffffffffff811115610def57610dee610970565b5b610dfb8a828b01610a83565b9550506060610e0c8a828b01610b49565b945050608088013567ffffffffffffffff811115610e2d57610e2c610970565b5b610e398a828b01610a83565b93505060a0610e4a8a828b01610b49565b92505060c0610e5b8a828b01610b49565b91505092959891949750929550565b5f602082019050610e7d5f830184610be8565b92915050565b7f4e487b71000000000000000000000000000000000000000000000000000000005f52600160045260245ffd5b7f4e487b71000000000000000000000000000000000000000000000000000000005f52603260045260245ffd5b7f4e487b71000000000000000000000000000000000000000000000000000000005f52602260045260245ffd5b5f6002820490506001821680610f2157607f821691505b602082108103610f3457610f33610edd565b5b50919050565b7f4e487b71000000000000000000000000000000000000000000000000000000005f52601160045260245ffd5b5f610f7182610b2a565b9150610f7c83610b2a565b9250828203905081811115610f9457610f93610f3a565b5b92915050565b5f81549050610fa881610f0a565b9050919050565b5f819050815f5260205f209050919050565b5f6020601f8301049050919050565b5f82821b905092915050565b5f6008830261100b7fffffffffffffffffffffffffffffffffffffffffffffffffffffffffffffffff82610fd0565b6110158683610fd0565b95508019841693508086168417925050509392505050565b5f819050919050565b5f61105061104b61104684610b2a565b61102d565b610b2a565b9050919050565b5f819050919050565b61106983611036565b61107d61107582611057565b848454610fdc565b825550505050565b5f5f905090565b611094611085565b61109f818484611060565b505050565b5b818110156110c2576110b75f8261108c565b6001810190506110a5565b5050565b601f821115611107576110d881610faf565b6110e184610fc1565b810160208510156110f0578190505b6111046110fc85610fc1565b8301826110a4565b50505b505050565b5f82821c905092915050565b5f6111275f198460080261110c565b1980831691505092915050565b5f61113f8383611118565b9150826002028217905092915050565b81810361115d575050611232565b61116682610f9a565b67ffffffffffffffff81111561117f5761117e61098c565b5b6111898254610f0a565b6111948282856110c6565b5f601f8311600181146111c1575f84156111af578287015490505b6111b98582611134565b86555061122b565b601f1984166111cf87610faf565b96506111da86610faf565b5f5b82811015611201578489015482556001820191506001850194506020810190506111dc565b8683101561121e578489015461121a601f891682611118565b8355505b6001600288020188555050505b5050505050505b565b5f61123e82610b2a565b91505f82036112505761124f610f3a565b5b600182039050919050565b61126482610b88565b67ffffffffffffffff81111561127d5761127c61098c565b5b6112878254610f0a565b6112928282856110c6565b5f60209050601f8311600181146112c3575f84156112b1578287015190505b6112bb8582611134565b865550611322565b601f1984166112d186610faf565b5f5b828110156112f8578489015182556001820191506020850194506020810190506112d3565b868310156113155784890151611311601f891682611118565b8355505b6001600288020188555050505b505050505050565b5f61133482610b2a565b91507fffffffffffffffffffffffffffffffffffffffffffffffffffffffffffffffff820361136657611365610f3a565b5b600182019050919050565b5f81905092915050565b5f61138582610b88565b61138f8185611371565b935061139f818560208601610ba2565b80840191505092915050565b5f6113b6828461137b565b91508190509291505056fea264697066735822122020f22e22e500636f0c25e5d9b672f0d6c6104668488af53a81bb0e0c1448ae1a64736f6c634300081e0033",
					"opcodes": "PUSH1 0x80 PUSH1 0x40 MSTORE CALLVALUE DUP1 ISZERO PUSH1 0xE JUMPI PUSH0 PUSH0 REVERT JUMPDEST POP PUSH0 PUSH1 0x1 DUP2 SWAP1 SSTORE POP PUSH2 0x13F7 DUP1 PUSH2 0x23 PUSH0 CODECOPY PUSH0 RETURN INVALID PUSH1 0x80 PUSH1 0x40 MSTORE CALLVALUE DUP1 ISZERO PUSH2 0xF JUMPI PUSH0 PUSH0 REVERT JUMPDEST POP PUSH1 0x4 CALLDATASIZE LT PUSH2 0x55 JUMPI PUSH0 CALLDATALOAD PUSH1 0xE0 SHR DUP1 PUSH4 0x1E768493 EQ PUSH2 0x59 JUMPI DUP1 PUSH4 0x23438EFB EQ PUSH2 0x89 JUMPI DUP1 PUSH4 0x49816D49 EQ PUSH2 0xBF JUMPI DUP1 PUSH4 0x59C1ED2C EQ PUSH2 0xEF JUMPI DUP1 PUSH4 0x997A2EBB EQ PUSH2 0x11F JUMPI JUMPDEST PUSH0 PUSH0 REVERT JUMPDEST PUSH2 0x73 PUSH1 0x4 DUP1 CALLDATASIZE SUB DUP2 ADD SWAP1 PUSH2 0x6E SWAP2 SWAP1 PUSH2 0xAB0 JUMP JUMPDEST PUSH2 0x13D JUMP JUMPDEST PUSH1 0x40 MLOAD PUSH2 0x80 SWAP2 SWAP1 PUSH2 0xB11 JUMP JUMPDEST PUSH1 0x40 MLOAD DUP1 SWAP2 SUB SWAP1 RETURN JUMPDEST PUSH2 0xA3 PUSH1 0x4 DUP1 CALLDATASIZE SUB DUP2 ADD SWAP1 PUSH2 0x9E SWAP2 SWAP1 PUSH2 0xB5D JUMP JUMPDEST PUSH2 0x38B JUMP JUMPDEST PUSH1 0x40 MLOAD PUSH2 0xB6 SWAP8 SWAP7 SWAP6 SWAP5 SWAP4 SWAP3 SWAP2 SWAP1 PUSH2 0xBF7 JUMP JUMPDEST PUSH1 0x40 MLOAD DUP1 SWAP2 SUB SWAP1 RETURN JUMPDEST PUSH2 0xD9 PUSH1 0x4 DUP1 CALLDATASIZE SUB DUP2 ADD SWAP1 PUSH2 0xD4 SWAP2 SWAP1 PUSH2 0xC80 JUMP JUMPDEST PUSH2 0x5EF JUMP JUMPDEST PUSH1 0x40 MLOAD PUSH2 0xE6 SWAP2 SWAP1 PUSH2 0xB11 JUMP JUMPDEST PUSH1 0x40 MLOAD DUP1 SWAP2 SUB SWAP1 RETURN JUMPDEST PUSH2 0x109 PUSH1 0x4 DUP1 CALLDATASIZE SUB DUP2 ADD SWAP1 PUSH2 0x104 SWAP2 SWAP1 PUSH2 0xD5D JUMP JUMPDEST PUSH2 0x7B0 JUMP JUMPDEST PUSH1 0x40 MLOAD PUSH2 0x116 SWAP2 SWAP1 PUSH2 0xE6A JUMP JUMPDEST PUSH1 0x40 MLOAD DUP1 SWAP2 SUB SWAP1 RETURN JUMPDEST PUSH2 0x127 PUSH2 0x8AD JUMP JUMPDEST PUSH1 0x40 MLOAD PUSH2 0x134 SWAP2 SWAP1 PUSH2 0xE6A JUMP JUMPDEST PUSH1 0x40 MLOAD DUP1 SWAP2 SUB SWAP1 RETURN JUMPDEST PUSH0 PUSH0 PUSH1 0x1 SLOAD GT PUSH2 0x150 JUMPI PUSH2 0x14F PUSH2 0xE83 JUMP JUMPDEST JUMPDEST PUSH0 PUSH0 SWAP1 POP JUMPDEST PUSH1 0x1 SLOAD DUP2 LT ISZERO PUSH2 0x381 JUMPI PUSH2 0x211 PUSH0 DUP3 DUP2 SLOAD DUP2 LT PUSH2 0x175 JUMPI PUSH2 0x174 PUSH2 0xEB0 JUMP JUMPDEST JUMPDEST SWAP1 PUSH0 MSTORE PUSH1 0x20 PUSH0 KECCAK256 SWAP1 PUSH1 0x7 MUL ADD PUSH1 0x2 ADD DUP1 SLOAD PUSH2 0x18F SWAP1 PUSH2 0xF0A JUMP JUMPDEST DUP1 PUSH1 0x1F ADD PUSH1 0x20 DUP1 SWAP2 DIV MUL PUSH1 0x20 ADD PUSH1 0x40 MLOAD SWAP1 DUP2 ADD PUSH1 0x40 MSTORE DUP1 SWAP3 SWAP2 SWAP1 DUP2 DUP2 MSTORE PUSH1 0x20 ADD DUP3 DUP1 SLOAD PUSH2 0x1BB SWAP1 PUSH2 0xF0A JUMP JUMPDEST DUP1 ISZERO PUSH2 0x206 JUMPI DUP1 PUSH1 0x1F LT PUSH2 0x1DD JUMPI PUSH2 0x100 DUP1 DUP4 SLOAD DIV MUL DUP4 MSTORE SWAP2 PUSH1 0x20 ADD SWAP2 PUSH2 0x206 JUMP JUMPDEST DUP3 ADD SWAP2 SWAP1 PUSH0 MSTORE PUSH1 0x20 PUSH0 KECCAK256 SWAP1 JUMPDEST DUP2 SLOAD DUP2 MSTORE SWAP1 PUSH1 0x1 ADD SWAP1 PUSH1 0x20 ADD DUP1 DUP4 GT PUSH2 0x1E9 JUMPI DUP3 SWAP1 SUB PUSH1 0x1F AND DUP3 ADD SWAP2 JUMPDEST POP POP POP POP POP DUP5 PUSH2 0x8B3 JUMP JUMPDEST ISZERO PUSH2 0x374 JUMPI PUSH0 PUSH1 0x1 DUP1 SLOAD PUSH2 0x225 SWAP2 SWAP1 PUSH2 0xF67 JUMP JUMPDEST DUP2 SLOAD DUP2 LT PUSH2 0x236 JUMPI PUSH2 0x235 PUSH2 0xEB0 JUMP JUMPDEST JUMPDEST SWAP1 PUSH0 MSTORE PUSH1 0x20 PUSH0 KECCAK256 SWAP1 PUSH1 0x7 MUL ADD PUSH0 DUP3 DUP2 SLOAD DUP2 LT PUSH2 0x255 JUMPI PUSH2 0x254 PUSH2 0xEB0 JUMP JUMPDEST JUMPDEST SWAP1 PUSH0 MSTORE PUSH1 0x20 PUSH0 KECCAK256 SWAP1 PUSH1 0x7 MUL ADD PUSH0 DUP3 ADD DUP2 PUSH0 ADD SWAP1 DUP2 PUSH2 0x273 SWAP2 SWAP1 PUSH2 0x114F JUMP JUMPDEST POP PUSH1 0x1 DUP3 ADD DUP2 PUSH1 0x1 ADD SWAP1 DUP2 PUSH2 0x288 SWAP2 SWAP1 PUSH2 0x114F JUMP JUMPDEST POP PUSH1 0x2 DUP3 ADD DUP2 PUSH1 0x2 ADD SWAP1 DUP2 PUSH2 0x29D SWAP2 SWAP1 PUSH2 0x114F JUMP JUMPDEST POP PUSH1 0x3 DUP3 ADD SLOAD DUP2 PUSH1 0x3 ADD SSTORE PUSH1 0x4 DUP3 ADD DUP2 PUSH1 0x4 ADD SWAP1 DUP2 PUSH2 0x2BC SWAP2 SWAP1 PUSH2 0x114F JUMP JUMPDEST POP PUSH1 0x5 DUP3 ADD SLOAD DUP2 PUSH1 0x5 ADD SSTORE PUSH1 0x6 DUP3 ADD SLOAD DUP2 PUSH1 0x6 ADD SSTORE SWAP1 POP POP PUSH0 PUSH1 0x1 DUP1 SLOAD PUSH2 0x2E3 SWAP2 SWAP1 PUSH2 0xF67 JUMP JUMPDEST DUP2 SLOAD DUP2 LT PUSH2 0x2F4 JUMPI PUSH2 0x2F3 PUSH2 0xEB0 JUMP JUMPDEST JUMPDEST SWAP1 PUSH0 MSTORE PUSH1 0x20 PUSH0 KECCAK256 SWAP1 PUSH1 0x7 MUL ADD PUSH0 PUSH0 DUP3 ADD PUSH0 PUSH2 0x30F SWAP2 SWAP1 PUSH2 0x90B JUMP JUMPDEST PUSH1 0x1 DUP3 ADD PUSH0 PUSH2 0x31E SWAP2 SWAP1 PUSH2 0x90B JUMP JUMPDEST PUSH1 0x2 DUP3 ADD PUSH0 PUSH2 0x32D SWAP2 SWAP1 PUSH2 0x90B JUMP JUMPDEST PUSH1 0x3 DUP3 ADD PUSH0 SWAP1 SSTORE PUSH1 0x4 DUP3 ADD PUSH0 PUSH2 0x343 SWAP2 SWAP1 PUSH2 0x90B JUMP JUMPDEST PUSH1 0x5 DUP3 ADD PUSH0 SWAP1 SSTORE PUSH1 0x6 DUP3 ADD PUSH0 SWAP1 SSTORE POP POP PUSH1 0x1 PUSH0 DUP2 SLOAD DUP1 SWAP3 SWAP2 SWAP1 PUSH2 0x365 SWAP1 PUSH2 0x1234 JUMP JUMPDEST SWAP2 SWAP1 POP SSTORE POP PUSH1 0x1 SWAP2 POP POP PUSH2 0x386 JUMP JUMPDEST DUP1 DUP1 PUSH1 0x1 ADD SWAP2 POP POP PUSH2 0x155 JUMP JUMPDEST POP PUSH0 SWAP1 POP JUMPDEST SWAP2 SWAP1 POP JUMP JUMPDEST PUSH0 DUP2 DUP2 SLOAD DUP2 LT PUSH2 0x399 JUMPI PUSH0 DUP1 REVERT JUMPDEST SWAP1 PUSH0 MSTORE PUSH1 0x20 PUSH0 KECCAK256 SWAP1 PUSH1 0x7 MUL ADD PUSH0 SWAP2 POP SWAP1 POP DUP1 PUSH0 ADD DUP1 SLOAD PUSH2 0x3B8 SWAP1 PUSH2 0xF0A JUMP JUMPDEST DUP1 PUSH1 0x1F ADD PUSH1 0x20 DUP1 SWAP2 DIV MUL PUSH1 0x20 ADD PUSH1 0x40 MLOAD SWAP1 DUP2 ADD PUSH1 0x40 MSTORE DUP1 SWAP3 SWAP2 SWAP1 DUP2 DUP2 MSTORE PUSH1 0x20 ADD DUP3 DUP1 SLOAD PUSH2 0x3E4 SWAP1 PUSH2 0xF0A JUMP JUMPDEST DUP1 ISZERO PUSH2 0x42F JUMPI DUP1 PUSH1 0x1F LT PUSH2 0x406 JUMPI PUSH2 0x100 DUP1 DUP4 SLOAD DIV MUL DUP4 MSTORE SWAP2 PUSH1 0x20 ADD SWAP2 PUSH2 0x42F JUMP JUMPDEST DUP3 ADD SWAP2 SWAP1 PUSH0 MSTORE PUSH1 0x20 PUSH0 KECCAK256 SWAP1 JUMPDEST DUP2 SLOAD DUP2 MSTORE SWAP1 PUSH1 0x1 ADD SWAP1 PUSH1 0x20 ADD DUP1 DUP4 GT PUSH2 0x412 JUMPI DUP3 SWAP1 SUB PUSH1 0x1F AND DUP3 ADD SWAP2 JUMPDEST POP POP POP POP POP SWAP1 DUP1 PUSH1 0x1 ADD DUP1 SLOAD PUSH2 0x444 SWAP1 PUSH2 0xF0A JUMP JUMPDEST DUP1 PUSH1 0x1F ADD PUSH1 0x20 DUP1 SWAP2 DIV MUL PUSH1 0x20 ADD PUSH1 0x40 MLOAD SWAP1 DUP2 ADD PUSH1 0x40 MSTORE DUP1 SWAP3 SWAP2 SWAP1 DUP2 DUP2 MSTORE PUSH1 0x20 ADD DUP3 DUP1 SLOAD PUSH2 0x470 SWAP1 PUSH2 0xF0A JUMP JUMPDEST DUP1 ISZERO PUSH2 0x4BB JUMPI DUP1 PUSH1 0x1F LT PUSH2 0x492 JUMPI PUSH2 0x100 DUP1 DUP4 SLOAD DIV MUL DUP4 MSTORE SWAP2 PUSH1 0x20 ADD SWAP2 PUSH2 0x4BB JUMP JUMPDEST DUP3 ADD SWAP2 SWAP1 PUSH0 MSTORE PUSH1 0x20 PUSH0 KECCAK256 SWAP1 JUMPDEST DUP2 SLOAD DUP2 MSTORE SWAP1 PUSH1 0x1 ADD SWAP1 PUSH1 0x20 ADD DUP1 DUP4 GT PUSH2 0x49E JUMPI DUP3 SWAP1 SUB PUSH1 0x1F AND DUP3 ADD SWAP2 JUMPDEST POP POP POP POP POP SWAP1 DUP1 PUSH1 0x2 ADD DUP1 SLOAD PUSH2 0x4D0 SWAP1 PUSH2 0xF0A JUMP JUMPDEST DUP1 PUSH1 0x1F ADD PUSH1 0x20 DUP1 SWAP2 DIV MUL PUSH1 0x20 ADD PUSH1 0x40 MLOAD SWAP1 DUP2 ADD PUSH1 0x40 MSTORE DUP1 SWAP3 SWAP2 SWAP1 DUP2 DUP2 MSTORE PUSH1 0x20 ADD DUP3 DUP1 SLOAD PUSH2 0x4FC SWAP1 PUSH2 0xF0A JUMP JUMPDEST DUP1 ISZERO PUSH2 0x547 JUMPI DUP1 PUSH1 0x1F LT PUSH2 0x51E JUMPI PUSH2 0x100 DUP1 DUP4 SLOAD DIV MUL DUP4 MSTORE SWAP2 PUSH1 0x20 ADD SWAP2 PUSH2 0x547 JUMP JUMPDEST DUP3 ADD SWAP2 SWAP1 PUSH0 MSTORE PUSH1 0x20 PUSH0 KECCAK256 SWAP1 JUMPDEST DUP2 SLOAD DUP2 MSTORE SWAP1 PUSH1 0x1 ADD SWAP1 PUSH1 0x20 ADD DUP1 DUP4 GT PUSH2 0x52A JUMPI DUP3 SWAP1 SUB PUSH1 0x1F AND DUP3 ADD SWAP2 JUMPDEST POP POP POP POP POP SWAP1 DUP1 PUSH1 0x3 ADD SLOAD SWAP1 DUP1 PUSH1 0x4 ADD DUP1 SLOAD PUSH2 0x562 SWAP1 PUSH2 0xF0A JUMP JUMPDEST DUP1 PUSH1 0x1F ADD PUSH1 0x20 DUP1 SWAP2 DIV MUL PUSH1 0x20 ADD PUSH1 0x40 MLOAD SWAP1 DUP2 ADD PUSH1 0x40 MSTORE DUP1 SWAP3 SWAP2 SWAP1 DUP2 DUP2 MSTORE PUSH1 0x20 ADD DUP3 DUP1 SLOAD PUSH2 0x58E SWAP1 PUSH2 0xF0A JUMP JUMPDEST DUP1 ISZERO PUSH2 0x5D9 JUMPI DUP1 PUSH1 0x1F LT PUSH2 0x5B0 JUMPI PUSH2 0x100 DUP1 DUP4 SLOAD DIV MUL DUP4 MSTORE SWAP2 PUSH1 0x20 ADD SWAP2 PUSH2 0x5D9 JUMP JUMPDEST DUP3 ADD SWAP2 SWAP1 PUSH0 MSTORE PUSH1 0x20 PUSH0 KECCAK256 SWAP1 JUMPDEST DUP2 SLOAD DUP2 MSTORE SWAP1 PUSH1 0x1 ADD SWAP1 PUSH1 0x20 ADD DUP1 DUP4 GT PUSH2 0x5BC JUMPI DUP3 SWAP1 SUB PUSH1 0x1F AND DUP3 ADD SWAP2 JUMPDEST POP POP POP POP POP SWAP1 DUP1 PUSH1 0x5 ADD SLOAD SWAP1 DUP1 PUSH1 0x6 ADD SLOAD SWAP1 POP DUP8 JUMP JUMPDEST PUSH0 PUSH0 PUSH0 SWAP1 POP JUMPDEST PUSH1 0x1 SLOAD DUP2 LT ISZERO PUSH2 0x7A1 JUMPI PUSH2 0x6B1 PUSH0 DUP3 DUP2 SLOAD DUP2 LT PUSH2 0x615 JUMPI PUSH2 0x614 PUSH2 0xEB0 JUMP JUMPDEST JUMPDEST SWAP1 PUSH0 MSTORE PUSH1 0x20 PUSH0 KECCAK256 SWAP1 PUSH1 0x7 MUL ADD PUSH1 0x2 ADD DUP1 SLOAD PUSH2 0x62F SWAP1 PUSH2 0xF0A JUMP JUMPDEST DUP1 PUSH1 0x1F ADD PUSH1 0x20 DUP1 SWAP2 DIV MUL PUSH1 0x20 ADD PUSH1 0x40 MLOAD SWAP1 DUP2 ADD PUSH1 0x40 MSTORE DUP1 SWAP3 SWAP2 SWAP1 DUP2 DUP2 MSTORE PUSH1 0x20 ADD DUP3 DUP1 SLOAD PUSH2 0x65B SWAP1 PUSH2 0xF0A JUMP JUMPDEST DUP1 ISZERO PUSH2 0x6A6 JUMPI DUP1 PUSH1 0x1F LT PUSH2 0x67D JUMPI PUSH2 0x100 DUP1 DUP4 SLOAD DIV MUL DUP4 MSTORE SWAP2 PUSH1 0x20 ADD SWAP2 PUSH2 0x6A6 JUMP JUMPDEST DUP3 ADD SWAP2 SWAP1 PUSH0 MSTORE PUSH1 0x20 PUSH0 KECCAK256 SWAP1 JUMPDEST DUP2 SLOAD DUP2 MSTORE SWAP1 PUSH1 0x1 ADD SWAP1 PUSH1 0x20 ADD DUP1 DUP4 GT PUSH2 0x689 JUMPI DUP3 SWAP1 SUB PUSH1 0x1F AND DUP3 ADD SWAP2 JUMPDEST POP POP POP POP POP DUP10 PUSH2 0x8B3 JUMP JUMPDEST ISZERO PUSH2 0x794 JUMPI DUP6 PUSH0 DUP3 DUP2 SLOAD DUP2 LT PUSH2 0x6CA JUMPI PUSH2 0x6C9 PUSH2 0xEB0 JUMP JUMPDEST JUMPDEST SWAP1 PUSH0 MSTORE PUSH1 0x20 PUSH0 KECCAK256 SWAP1 PUSH1 0x7 MUL ADD PUSH0 ADD SWAP1 DUP2 PUSH2 0x6E4 SWAP2 SWAP1 PUSH2 0x125B JUMP JUMPDEST POP DUP7 PUSH0 DUP3 DUP2 SLOAD DUP2 LT PUSH2 0x6F9 JUMPI PUSH2 0x6F8 PUSH2 0xEB0 JUMP JUMPDEST JUMPDEST SWAP1 PUSH0 MSTORE PUSH1 0x20 PUSH0 KECCAK256 SWAP1 PUSH1 0x7 MUL ADD PUSH1 0x1 ADD SWAP1 DUP2 PUSH2 0x714 SWAP2 SWAP1 PUSH2 0x125B JUMP JUMPDEST POP DUP5 PUSH0 DUP3 DUP2 SLOAD DUP2 LT PUSH2 0x729 JUMPI PUSH2 0x728 PUSH2 0xEB0 JUMP JUMPDEST JUMPDEST SWAP1 PUSH0 MSTORE PUSH1 0x20 PUSH0 KECCAK256 SWAP1 PUSH1 0x7 MUL ADD PUSH1 0x3 ADD DUP2 SWAP1 SSTORE POP DUP4 PUSH0 DUP3 DUP2 SLOAD DUP2 LT PUSH2 0x750 JUMPI PUSH2 0x74F PUSH2 0xEB0 JUMP JUMPDEST JUMPDEST SWAP1 PUSH0 MSTORE PUSH1 0x20 PUSH0 KECCAK256 SWAP1 PUSH1 0x7 MUL ADD PUSH1 0x5 ADD DUP2 SWAP1 SSTORE POP DUP3 PUSH0 DUP3 DUP2 SLOAD DUP2 LT PUSH2 0x777 JUMPI PUSH2 0x776 PUSH2 0xEB0 JUMP JUMPDEST JUMPDEST SWAP1 PUSH0 MSTORE PUSH1 0x20 PUSH0 KECCAK256 SWAP1 PUSH1 0x7 MUL ADD PUSH1 0x6 ADD DUP2 SWAP1 SSTORE POP PUSH1 0x1 SWAP2 POP POP PUSH2 0x7A6 JUMP JUMPDEST DUP1 DUP1 PUSH1 0x1 ADD SWAP2 POP POP PUSH2 0x5F5 JUMP JUMPDEST POP PUSH0 SWAP1 POP JUMPDEST SWAP7 SWAP6 POP POP POP POP POP POP JUMP JUMPDEST PUSH0 PUSH0 PUSH1 0x40 MLOAD DUP1 PUSH1 0xE0 ADD PUSH1 0x40 MSTORE DUP1 DUP11 DUP2 MSTORE PUSH1 0x20 ADD DUP10 DUP2 MSTORE PUSH1 0x20 ADD DUP9 DUP2 MSTORE PUSH1 0x20 ADD DUP8 DUP2 MSTORE PUSH1 0x20 ADD DUP7 DUP2 MSTORE PUSH1 0x20 ADD DUP6 DUP2 MSTORE PUSH1 0x20 ADD DUP5 DUP2 MSTORE POP SWAP1 POP PUSH0 DUP2 SWAP1 DUP1 PUSH1 0x1 DUP2 SLOAD ADD DUP1 DUP3 SSTORE DUP1 SWAP2 POP POP PUSH1 0x1 SWAP1 SUB SWAP1 PUSH0 MSTORE PUSH1 0x20 PUSH0 KECCAK256 SWAP1 PUSH1 0x7 MUL ADD PUSH0 SWAP1 SWAP2 SWAP1 SWAP2 SWAP1 SWAP2 POP PUSH0 DUP3 ADD MLOAD DUP2 PUSH0 ADD SWAP1 DUP2 PUSH2 0x822 SWAP2 SWAP1 PUSH2 0x125B JUMP JUMPDEST POP PUSH1 0x20 DUP3 ADD MLOAD DUP2 PUSH1 0x1 ADD SWAP1 DUP2 PUSH2 0x838 SWAP2 SWAP1 PUSH2 0x125B JUMP JUMPDEST POP PUSH1 0x40 DUP3 ADD MLOAD DUP2 PUSH1 0x2 ADD SWAP1 DUP2 PUSH2 0x84E SWAP2 SWAP1 PUSH2 0x125B JUMP JUMPDEST POP PUSH1 0x60 DUP3 ADD MLOAD DUP2 PUSH1 0x3 ADD SSTORE PUSH1 0x80 DUP3 ADD MLOAD DUP2 PUSH1 0x4 ADD SWAP1 DUP2 PUSH2 0x86E SWAP2 SWAP1 PUSH2 0x125B JUMP JUMPDEST POP PUSH1 0xA0 DUP3 ADD MLOAD DUP2 PUSH1 0x5 ADD SSTORE PUSH1 0xC0 DUP3 ADD MLOAD DUP2 PUSH1 0x6 ADD SSTORE POP POP PUSH1 0x1 PUSH0 DUP2 SLOAD DUP1 SWAP3 SWAP2 SWAP1 PUSH2 0x897 SWAP1 PUSH2 0x132A JUMP JUMPDEST SWAP2 SWAP1 POP SSTORE POP PUSH1 0x1 SLOAD SWAP2 POP POP SWAP8 SWAP7 POP POP POP POP POP POP POP JUMP JUMPDEST PUSH1 0x1 SLOAD DUP2 JUMP JUMPDEST PUSH0 DUP2 PUSH1 0x40 MLOAD PUSH1 0x20 ADD PUSH2 0x8C5 SWAP2 SWAP1 PUSH2 0x13AB JUMP JUMPDEST PUSH1 0x40 MLOAD PUSH1 0x20 DUP2 DUP4 SUB SUB DUP2 MSTORE SWAP1 PUSH1 0x40 MSTORE DUP1 MLOAD SWAP1 PUSH1 0x20 ADD KECCAK256 DUP4 PUSH1 0x40 MLOAD PUSH1 0x20 ADD PUSH2 0x8EC SWAP2 SWAP1 PUSH2 0x13AB JUMP JUMPDEST PUSH1 0x40 MLOAD PUSH1 0x20 DUP2 DUP4 SUB SUB DUP2 MSTORE SWAP1 PUSH1 0x40 MSTORE DUP1 MLOAD SWAP1 PUSH1 0x20 ADD KECCAK256 EQ SWAP1 POP SWAP3 SWAP2 POP POP JUMP JUMPDEST POP DUP1 SLOAD PUSH2 0x917 SWAP1 PUSH2 0xF0A JUMP JUMPDEST PUSH0 DUP3 SSTORE DUP1 PUSH1 0x1F LT PUSH2 0x928 JUMPI POP PUSH2 0x945 JUMP JUMPDEST PUSH1 0x1F ADD PUSH1 0x20 SWAP1 DIV SWAP1 PUSH0 MSTORE PUSH1 0x20 PUSH0 KECCAK256 SWAP1 DUP2 ADD SWAP1 PUSH2 0x944 SWAP2 SWAP1 PUSH2 0x948 JUMP JUMPDEST JUMPDEST POP JUMP JUMPDEST JUMPDEST DUP1 DUP3 GT ISZERO PUSH2 0x95F JUMPI PUSH0 DUP2 PUSH0 SWAP1 SSTORE POP PUSH1 0x1 ADD PUSH2 0x949 JUMP JUMPDEST POP SWAP1 JUMP JUMPDEST PUSH0 PUSH1 0x40 MLOAD SWAP1 POP SWAP1 JUMP JUMPDEST PUSH0 PUSH0 REVERT JUMPDEST PUSH0 PUSH0 REVERT JUMPDEST PUSH0 PUSH0 REVERT JUMPDEST PUSH0 PUSH0 REVERT JUMPDEST PUSH0 PUSH1 0x1F NOT PUSH1 0x1F DUP4 ADD AND SWAP1 POP SWAP2 SWAP1 POP JUMP JUMPDEST PUSH32 0x4E487B7100000000000000000000000000000000000000000000000000000000 PUSH0 MSTORE PUSH1 0x41 PUSH1 0x4 MSTORE PUSH1 0x24 PUSH0 REVERT JUMPDEST PUSH2 0x9C2 DUP3 PUSH2 0x97C JUMP JUMPDEST DUP2 ADD DUP2 DUP2 LT PUSH8 0xFFFFFFFFFFFFFFFF DUP3 GT OR ISZERO PUSH2 0x9E1 JUMPI PUSH2 0x9E0 PUSH2 0x98C JUMP JUMPDEST JUMPDEST DUP1 PUSH1 0x40 MSTORE POP POP POP JUMP JUMPDEST PUSH0 PUSH2 0x9F3 PUSH2 0x963 JUMP JUMPDEST SWAP1 POP PUSH2 0x9FF DUP3 DUP3 PUSH2 0x9B9 JUMP JUMPDEST SWAP2 SWAP1 POP JUMP JUMPDEST PUSH0 PUSH8 0xFFFFFFFFFFFFFFFF DUP3 GT ISZERO PUSH2 0xA1E JUMPI PUSH2 0xA1D PUSH2 0x98C JUMP JUMPDEST JUMPDEST PUSH2 0xA27 DUP3 PUSH2 0x97C JUMP JUMPDEST SWAP1 POP PUSH1 0x20 DUP2 ADD SWAP1 POP SWAP2 SWAP1 POP JUMP JUMPDEST DUP3 DUP2 DUP4 CALLDATACOPY PUSH0 DUP4 DUP4 ADD MSTORE POP POP POP JUMP JUMPDEST PUSH0 PUSH2 0xA54 PUSH2 0xA4F DUP5 PUSH2 0xA04 JUMP JUMPDEST PUSH2 0x9EA JUMP JUMPDEST SWAP1 POP DUP3 DUP2 MSTORE PUSH1 0x20 DUP2 ADD DUP5 DUP5 DUP5 ADD GT ISZERO PUSH2 0xA70 JUMPI PUSH2 0xA6F PUSH2 0x978 JUMP JUMPDEST JUMPDEST PUSH2 0xA7B DUP5 DUP3 DUP6 PUSH2 0xA34 JUMP JUMPDEST POP SWAP4 SWAP3 POP POP POP JUMP JUMPDEST PUSH0 DUP3 PUSH1 0x1F DUP4 ADD SLT PUSH2 0xA97 JUMPI PUSH2 0xA96 PUSH2 0x974 JUMP JUMPDEST JUMPDEST DUP2 CALLDATALOAD PUSH2 0xAA7 DUP5 DUP3 PUSH1 0x20 DUP7 ADD PUSH2 0xA42 JUMP JUMPDEST SWAP2 POP POP SWAP3 SWAP2 POP POP JUMP JUMPDEST PUSH0 PUSH1 0x20 DUP3 DUP5 SUB SLT ISZERO PUSH2 0xAC5 JUMPI PUSH2 0xAC4 PUSH2 0x96C JUMP JUMPDEST JUMPDEST PUSH0 DUP3 ADD CALLDATALOAD PUSH8 0xFFFFFFFFFFFFFFFF DUP2 GT ISZERO PUSH2 0xAE2 JUMPI PUSH2 0xAE1 PUSH2 0x970 JUMP JUMPDEST JUMPDEST PUSH2 0xAEE DUP5 DUP3 DUP6 ADD PUSH2 0xA83 JUMP JUMPDEST SWAP2 POP POP SWAP3 SWAP2 POP POP JUMP JUMPDEST PUSH0 DUP2 ISZERO ISZERO SWAP1 POP SWAP2 SWAP1 POP JUMP JUMPDEST PUSH2 0xB0B DUP2 PUSH2 0xAF7 JUMP JUMPDEST DUP3 MSTORE POP POP JUMP JUMPDEST PUSH0 PUSH1 0x20 DUP3 ADD SWAP1 POP PUSH2 0xB24 PUSH0 DUP4 ADD DUP5 PUSH2 0xB02 JUMP JUMPDEST SWAP3 SWAP2 POP POP JUMP JUMPDEST PUSH0 DUP2 SWAP1 POP SWAP2 SWAP1 POP JUMP JUMPDEST PUSH2 0xB3C DUP2 PUSH2 0xB2A JUMP JUMPDEST DUP2 EQ PUSH2 0xB46 JUMPI PUSH0 PUSH0 REVERT JUMPDEST POP JUMP JUMPDEST PUSH0 DUP2 CALLDATALOAD SWAP1 POP PUSH2 0xB57 DUP2 PUSH2 0xB33 JUMP JUMPDEST SWAP3 SWAP2 POP POP JUMP JUMPDEST PUSH0 PUSH1 0x20 DUP3 DUP5 SUB SLT ISZERO PUSH2 0xB72 JUMPI PUSH2 0xB71 PUSH2 0x96C JUMP JUMPDEST JUMPDEST PUSH0 PUSH2 0xB7F DUP5 DUP3 DUP6 ADD PUSH2 0xB49 JUMP JUMPDEST SWAP2 POP POP SWAP3 SWAP2 POP POP JUMP JUMPDEST PUSH0 DUP2 MLOAD SWAP1 POP SWAP2 SWAP1 POP JUMP JUMPDEST PUSH0 DUP3 DUP3 MSTORE PUSH1 0x20 DUP3 ADD SWAP1 POP SWAP3 SWAP2 POP POP JUMP JUMPDEST DUP3 DUP2 DUP4 MCOPY PUSH0 DUP4 DUP4 ADD MSTORE POP POP POP JUMP JUMPDEST PUSH0 PUSH2 0xBBA DUP3 PUSH2 0xB88 JUMP JUMPDEST PUSH2 0xBC4 DUP2 DUP6 PUSH2 0xB92 JUMP JUMPDEST SWAP4 POP PUSH2 0xBD4 DUP2 DUP6 PUSH1 0x20 DUP7 ADD PUSH2 0xBA2 JUMP JUMPDEST PUSH2 0xBDD DUP2 PUSH2 0x97C JUMP JUMPDEST DUP5 ADD SWAP2 POP POP SWAP3 SWAP2 POP POP JUMP JUMPDEST PUSH2 0xBF1 DUP2 PUSH2 0xB2A JUMP JUMPDEST DUP3 MSTORE POP POP JUMP JUMPDEST PUSH0 PUSH1 0xE0 DUP3 ADD SWAP1 POP DUP2 DUP2 SUB PUSH0 DUP4 ADD MSTORE PUSH2 0xC0F DUP2 DUP11 PUSH2 0xBB0 JUMP JUMPDEST SWAP1 POP DUP2 DUP2 SUB PUSH1 0x20 DUP4 ADD MSTORE PUSH2 0xC23 DUP2 DUP10 PUSH2 0xBB0 JUMP JUMPDEST SWAP1 POP DUP2 DUP2 SUB PUSH1 0x40 DUP4 ADD MSTORE PUSH2 0xC37 DUP2 DUP9 PUSH2 0xBB0 JUMP JUMPDEST SWAP1 POP PUSH2 0xC46 PUSH1 0x60 DUP4 ADD DUP8 PUSH2 0xBE8 JUMP JUMPDEST DUP2 DUP2 SUB PUSH1 0x80 DUP4 ADD MSTORE PUSH2 0xC58 DUP2 DUP7 PUSH2 0xBB0 JUMP JUMPDEST SWAP1 POP PUSH2 0xC67 PUSH1 0xA0 DUP4 ADD DUP6 PUSH2 0xBE8 JUMP JUMPDEST PUSH2 0xC74 PUSH1 0xC0 DUP4 ADD DUP5 PUSH2 0xBE8 JUMP JUMPDEST SWAP9 SWAP8 POP POP POP POP POP POP POP POP JUMP JUMPDEST PUSH0 PUSH0 PUSH0 PUSH0 PUSH0 PUSH0 PUSH1 0xC0 DUP8 DUP10 SUB SLT ISZERO PUSH2 0xC9A JUMPI PUSH2 0xC99 PUSH2 0x96C JUMP JUMPDEST JUMPDEST PUSH0 DUP8 ADD CALLDATALOAD PUSH8 0xFFFFFFFFFFFFFFFF DUP2 GT ISZERO PUSH2 0xCB7 JUMPI PUSH2 0xCB6 PUSH2 0x970 JUMP JUMPDEST JUMPDEST PUSH2 0xCC3 DUP10 DUP3 DUP11 ADD PUSH2 0xA83 JUMP JUMPDEST SWAP7 POP POP PUSH1 0x20 DUP8 ADD CALLDATALOAD PUSH8 0xFFFFFFFFFFFFFFFF DUP2 GT ISZERO PUSH2 0xCE4 JUMPI PUSH2 0xCE3 PUSH2 0x970 JUMP JUMPDEST JUMPDEST PUSH2 0xCF0 DUP10 DUP3 DUP11 ADD PUSH2 0xA83 JUMP JUMPDEST SWAP6 POP POP PUSH1 0x40 DUP8 ADD CALLDATALOAD PUSH8 0xFFFFFFFFFFFFFFFF DUP2 GT ISZERO PUSH2 0xD11 JUMPI PUSH2 0xD10 PUSH2 0x970 JUMP JUMPDEST JUMPDEST PUSH2 0xD1D DUP10 DUP3 DUP11 ADD PUSH2 0xA83 JUMP JUMPDEST SWAP5 POP POP PUSH1 0x60 PUSH2 0xD2E DUP10 DUP3 DUP11 ADD PUSH2 0xB49 JUMP JUMPDEST SWAP4 POP POP PUSH1 0x80 PUSH2 0xD3F DUP10 DUP3 DUP11 ADD PUSH2 0xB49 JUMP JUMPDEST SWAP3 POP POP PUSH1 0xA0 PUSH2 0xD50 DUP10 DUP3 DUP11 ADD PUSH2 0xB49 JUMP JUMPDEST SWAP2 POP POP SWAP3 SWAP6 POP SWAP3 SWAP6 POP SWAP3 SWAP6 JUMP JUMPDEST PUSH0 PUSH0 PUSH0 PUSH0 PUSH0 PUSH0 PUSH0 PUSH1 0xE0 DUP9 DUP11 SUB SLT ISZERO PUSH2 0xD78 JUMPI PUSH2 0xD77 PUSH2 0x96C JUMP JUMPDEST JUMPDEST PUSH0 DUP9 ADD CALLDATALOAD PUSH8 0xFFFFFFFFFFFFFFFF DUP2 GT ISZERO PUSH2 0xD95 JUMPI PUSH2 0xD94 PUSH2 0x970 JUMP JUMPDEST JUMPDEST PUSH2 0xDA1 DUP11 DUP3 DUP12 ADD PUSH2 0xA83 JUMP JUMPDEST SWAP8 POP POP PUSH1 0x20 DUP9 ADD CALLDATALOAD PUSH8 0xFFFFFFFFFFFFFFFF DUP2 GT ISZERO PUSH2 0xDC2 JUMPI PUSH2 0xDC1 PUSH2 0x970 JUMP JUMPDEST JUMPDEST PUSH2 0xDCE DUP11 DUP3 DUP12 ADD PUSH2 0xA83 JUMP JUMPDEST SWAP7 POP POP PUSH1 0x40 DUP9 ADD CALLDATALOAD PUSH8 0xFFFFFFFFFFFFFFFF DUP2 GT ISZERO PUSH2 0xDEF JUMPI PUSH2 0xDEE PUSH2 0x970 JUMP JUMPDEST JUMPDEST PUSH2 0xDFB DUP11 DUP3 DUP12 ADD PUSH2 0xA83 JUMP JUMPDEST SWAP6 POP POP PUSH1 0x60 PUSH2 0xE0C DUP11 DUP3 DUP12 ADD PUSH2 0xB49 JUMP JUMPDEST SWAP5 POP POP PUSH1 0x80 DUP9 ADD CALLDATALOAD PUSH8 0xFFFFFFFFFFFFFFFF DUP2 GT ISZERO PUSH2 0xE2D JUMPI PUSH2 0xE2C PUSH2 0x970 JUMP JUMPDEST JUMPDEST PUSH2 0xE39 DUP11 DUP3 DUP12 ADD PUSH2 0xA83 JUMP JUMPDEST SWAP4 POP POP PUSH1 0xA0 PUSH2 0xE4A DUP11 DUP3 DUP12 ADD PUSH2 0xB49 JUMP JUMPDEST SWAP3 POP POP PUSH1 0xC0 PUSH2 0xE5B DUP11 DUP3 DUP12 ADD PUSH2 0xB49 JUMP JUMPDEST SWAP2 POP POP SWAP3 SWAP6 SWAP9 SWAP2 SWAP5 SWAP8 POP SWAP3 SWAP6 POP JUMP JUMPDEST PUSH0 PUSH1 0x20 DUP3 ADD SWAP1 POP PUSH2 0xE7D PUSH0 DUP4 ADD DUP5 PUSH2 0xBE8 JUMP JUMPDEST SWAP3 SWAP2 POP POP JUMP JUMPDEST PUSH32 0x4E487B7100000000000000000000000000000000000000000000000000000000 PUSH0 MSTORE PUSH1 0x1 PUSH1 0x4 MSTORE PUSH1 0x24 PUSH0 REVERT JUMPDEST PUSH32 0x4E487B7100000000000000000000000000000000000000000000000000000000 PUSH0 MSTORE PUSH1 0x32 PUSH1 0x4 MSTORE PUSH1 0x24 PUSH0 REVERT JUMPDEST PUSH32 0x4E487B7100000000000000000000000000000000000000000000000000000000 PUSH0 MSTORE PUSH1 0x22 PUSH1 0x4 MSTORE PUSH1 0x24 PUSH0 REVERT JUMPDEST PUSH0 PUSH1 0x2 DUP3 DIV SWAP1 POP PUSH1 0x1 DUP3 AND DUP1 PUSH2 0xF21 JUMPI PUSH1 0x7F DUP3 AND SWAP2 POP JUMPDEST PUSH1 0x20 DUP3 LT DUP2 SUB PUSH2 0xF34 JUMPI PUSH2 0xF33 PUSH2 0xEDD JUMP JUMPDEST JUMPDEST POP SWAP2 SWAP1 POP JUMP JUMPDEST PUSH32 0x4E487B7100000000000000000000000000000000000000000000000000000000 PUSH0 MSTORE PUSH1 0x11 PUSH1 0x4 MSTORE PUSH1 0x24 PUSH0 REVERT JUMPDEST PUSH0 PUSH2 0xF71 DUP3 PUSH2 0xB2A JUMP JUMPDEST SWAP2 POP PUSH2 0xF7C DUP4 PUSH2 0xB2A JUMP JUMPDEST SWAP3 POP DUP3 DUP3 SUB SWAP1 POP DUP2 DUP2 GT ISZERO PUSH2 0xF94 JUMPI PUSH2 0xF93 PUSH2 0xF3A JUMP JUMPDEST JUMPDEST SWAP3 SWAP2 POP POP JUMP JUMPDEST PUSH0 DUP2 SLOAD SWAP1 POP PUSH2 0xFA8 DUP2 PUSH2 0xF0A JUMP JUMPDEST SWAP1 POP SWAP2 SWAP1 POP JUMP JUMPDEST PUSH0 DUP2 SWAP1 POP DUP2 PUSH0 MSTORE PUSH1 0x20 PUSH0 KECCAK256 SWAP1 POP SWAP2 SWAP1 POP JUMP JUMPDEST PUSH0 PUSH1 0x20 PUSH1 0x1F DUP4 ADD DIV SWAP1 POP SWAP2 SWAP1 POP JUMP JUMPDEST PUSH0 DUP3 DUP3 SHL SWAP1 POP SWAP3 SWAP2 POP POP JUMP JUMPDEST PUSH0 PUSH1 0x8 DUP4 MUL PUSH2 0x100B PUSH32 0xFFFFFFFFFFFFFFFFFFFFFFFFFFFFFFFFFFFFFFFFFFFFFFFFFFFFFFFFFFFFFFFF DUP3 PUSH2 0xFD0 JUMP JUMPDEST PUSH2 0x1015 DUP7 DUP4 PUSH2 0xFD0 JUMP JUMPDEST SWAP6 POP DUP1 NOT DUP5 AND SWAP4 POP DUP1 DUP7 AND DUP5 OR SWAP3 POP POP POP SWAP4 SWAP3 POP POP POP JUMP JUMPDEST PUSH0 DUP2 SWAP1 POP SWAP2 SWAP1 POP JUMP JUMPDEST PUSH0 PUSH2 0x1050 PUSH2 0x104B PUSH2 0x1046 DUP5 PUSH2 0xB2A JUMP JUMPDEST PUSH2 0x102D JUMP JUMPDEST PUSH2 0xB2A JUMP JUMPDEST SWAP1 POP SWAP2 SWAP1 POP JUMP JUMPDEST PUSH0 DUP2 SWAP1 POP SWAP2 SWAP1 POP JUMP JUMPDEST PUSH2 0x1069 DUP4 PUSH2 0x1036 JUMP JUMPDEST PUSH2 0x107D PUSH2 0x1075 DUP3 PUSH2 0x1057 JUMP JUMPDEST DUP5 DUP5 SLOAD PUSH2 0xFDC JUMP JUMPDEST DUP3 SSTORE POP POP POP POP JUMP JUMPDEST PUSH0 PUSH0 SWAP1 POP SWAP1 JUMP JUMPDEST PUSH2 0x1094 PUSH2 0x1085 JUMP JUMPDEST PUSH2 0x109F DUP2 DUP5 DUP5 PUSH2 0x1060 JUMP JUMPDEST POP POP POP JUMP JUMPDEST JUMPDEST DUP2 DUP2 LT ISZERO PUSH2 0x10C2 JUMPI PUSH2 0x10B7 PUSH0 DUP3 PUSH2 0x108C JUMP JUMPDEST PUSH1 0x1 DUP2 ADD SWAP1 POP PUSH2 0x10A5 JUMP JUMPDEST POP POP JUMP JUMPDEST PUSH1 0x1F DUP3 GT ISZERO PUSH2 0x1107 JUMPI PUSH2 0x10D8 DUP2 PUSH2 0xFAF JUMP JUMPDEST PUSH2 0x10E1 DUP5 PUSH2 0xFC1 JUMP JUMPDEST DUP2 ADD PUSH1 0x20 DUP6 LT ISZERO PUSH2 0x10F0 JUMPI DUP2 SWAP1 POP JUMPDEST PUSH2 0x1104 PUSH2 0x10FC DUP6 PUSH2 0xFC1 JUMP JUMPDEST DUP4 ADD DUP3 PUSH2 0x10A4 JUMP JUMPDEST POP POP JUMPDEST POP POP POP JUMP JUMPDEST PUSH0 DUP3 DUP3 SHR SWAP1 POP SWAP3 SWAP2 POP POP JUMP JUMPDEST PUSH0 PUSH2 0x1127 PUSH0 NOT DUP5 PUSH1 0x8 MUL PUSH2 0x110C JUMP JUMPDEST NOT DUP1 DUP4 AND SWAP2 POP POP SWAP3 SWAP2 POP POP JUMP JUMPDEST PUSH0 PUSH2 0x113F DUP4 DUP4 PUSH2 0x1118 JUMP JUMPDEST SWAP2 POP DUP3 PUSH1 0x2 MUL DUP3 OR SWAP1 POP SWAP3 SWAP2 POP POP JUMP JUMPDEST DUP2 DUP2 SUB PUSH2 0x115D JUMPI POP POP PUSH2 0x1232 JUMP JUMPDEST PUSH2 0x1166 DUP3 PUSH2 0xF9A JUMP JUMPDEST PUSH8 0xFFFFFFFFFFFFFFFF DUP2 GT ISZERO PUSH2 0x117F JUMPI PUSH2 0x117E PUSH2 0x98C JUMP JUMPDEST JUMPDEST PUSH2 0x1189 DUP3 SLOAD PUSH2 0xF0A JUMP JUMPDEST PUSH2 0x1194 DUP3 DUP3 DUP6 PUSH2 0x10C6 JUMP JUMPDEST PUSH0 PUSH1 0x1F DUP4 GT PUSH1 0x1 DUP2 EQ PUSH2 0x11C1 JUMPI PUSH0 DUP5 ISZERO PUSH2 0x11AF JUMPI DUP3 DUP8 ADD SLOAD SWAP1 POP JUMPDEST PUSH2 0x11B9 DUP6 DUP3 PUSH2 0x1134 JUMP JUMPDEST DUP7 SSTORE POP PUSH2 0x122B JUMP JUMPDEST PUSH1 0x1F NOT DUP5 AND PUSH2 0x11CF DUP8 PUSH2 0xFAF JUMP JUMPDEST SWAP7 POP PUSH2 0x11DA DUP7 PUSH2 0xFAF JUMP JUMPDEST PUSH0 JUMPDEST DUP3 DUP2 LT ISZERO PUSH2 0x1201 JUMPI DUP5 DUP10 ADD SLOAD DUP3 SSTORE PUSH1 0x1 DUP3 ADD SWAP2 POP PUSH1 0x1 DUP6 ADD SWAP5 POP PUSH1 0x20 DUP2 ADD SWAP1 POP PUSH2 0x11DC JUMP JUMPDEST DUP7 DUP4 LT ISZERO PUSH2 0x121E JUMPI DUP5 DUP10 ADD SLOAD PUSH2 0x121A PUSH1 0x1F DUP10 AND DUP3 PUSH2 0x1118 JUMP JUMPDEST DUP4 SSTORE POP JUMPDEST PUSH1 0x1 PUSH1 0x2 DUP9 MUL ADD DUP9 SSTORE POP POP POP JUMPDEST POP POP POP POP POP POP JUMPDEST JUMP JUMPDEST PUSH0 PUSH2 0x123E DUP3 PUSH2 0xB2A JUMP JUMPDEST SWAP2 POP PUSH0 DUP3 SUB PUSH2 0x1250 JUMPI PUSH2 0x124F PUSH2 0xF3A JUMP JUMPDEST JUMPDEST PUSH1 0x1 DUP3 SUB SWAP1 POP SWAP2 SWAP1 POP JUMP JUMPDEST PUSH2 0x1264 DUP3 PUSH2 0xB88 JUMP JUMPDEST PUSH8 0xFFFFFFFFFFFFFFFF DUP2 GT ISZERO PUSH2 0x127D JUMPI PUSH2 0x127C PUSH2 0x98C JUMP JUMPDEST JUMPDEST PUSH2 0x1287 DUP3 SLOAD PUSH2 0xF0A JUMP JUMPDEST PUSH2 0x1292 DUP3 DUP3 DUP6 PUSH2 0x10C6 JUMP JUMPDEST PUSH0 PUSH1 0x20 SWAP1 POP PUSH1 0x1F DUP4 GT PUSH1 0x1 DUP2 EQ PUSH2 0x12C3 JUMPI PUSH0 DUP5 ISZERO PUSH2 0x12B1 JUMPI DUP3 DUP8 ADD MLOAD SWAP1 POP JUMPDEST PUSH2 0x12BB DUP6 DUP3 PUSH2 0x1134 JUMP JUMPDEST DUP7 SSTORE POP PUSH2 0x1322 JUMP JUMPDEST PUSH1 0x1F NOT DUP5 AND PUSH2 0x12D1 DUP7 PUSH2 0xFAF JUMP JUMPDEST PUSH0 JUMPDEST DUP3 DUP2 LT ISZERO PUSH2 0x12F8 JUMPI DUP5 DUP10 ADD MLOAD DUP3 SSTORE PUSH1 0x1 DUP3 ADD SWAP2 POP PUSH1 0x20 DUP6 ADD SWAP5 POP PUSH1 0x20 DUP2 ADD SWAP1 POP PUSH2 0x12D3 JUMP JUMPDEST DUP7 DUP4 LT ISZERO PUSH2 0x1315 JUMPI DUP5 DUP10 ADD MLOAD PUSH2 0x1311 PUSH1 0x1F DUP10 AND DUP3 PUSH2 0x1118 JUMP JUMPDEST DUP4 SSTORE POP JUMPDEST PUSH1 0x1 PUSH1 0x2 DUP9 MUL ADD DUP9 SSTORE POP POP POP JUMPDEST POP POP POP POP POP POP JUMP JUMPDEST PUSH0 PUSH2 0x1334 DUP3 PUSH2 0xB2A JUMP JUMPDEST SWAP2 POP PUSH32 0xFFFFFFFFFFFFFFFFFFFFFFFFFFFFFFFFFFFFFFFFFFFFFFFFFFFFFFFFFFFFFFFF DUP3 SUB PUSH2 0x1366 JUMPI PUSH2 0x1365 PUSH2 0xF3A JUMP JUMPDEST JUMPDEST PUSH1 0x1 DUP3 ADD SWAP1 POP SWAP2 SWAP1 POP JUMP JUMPDEST PUSH0 DUP2 SWAP1 POP SWAP3 SWAP2 POP POP JUMP JUMPDEST PUSH0 PUSH2 0x1385 DUP3 PUSH2 0xB88 JUMP JUMPDEST PUSH2 0x138F DUP2 DUP6 PUSH2 0x1371 JUMP JUMPDEST SWAP4 POP PUSH2 0x139F DUP2 DUP6 PUSH1 0x20 DUP7 ADD PUSH2 0xBA2 JUMP JUMPDEST DUP1 DUP5 ADD SWAP2 POP POP SWAP3 SWAP2 POP POP JUMP JUMPDEST PUSH0 PUSH2 0x13B6 DUP3 DUP5 PUSH2 0x137B JUMP JUMPDEST SWAP2 POP DUP2 SWAP1 POP SWAP3 SWAP2 POP POP JUMP INVALID LOG2 PUSH5 0x6970667358 0x22 SLT KECCAK256 KECCAK256 CALLCODE 0x2E 0x22 JUMPF 0x63 PUSH16 0xC25E5D9B672F0D6C6104668488AF53A DUP2 0xBB 0xE 0xC EQ BASEFEE 0xAE BYTE PUSH5 0x736F6C6343 STOP ADDMOD 0x1E STOP CALLER "
				},
				"gasEstimates": {
					"creation": {
						"codeDepositCost": "1022200",
						"executionCost": "6072",
						"totalCost": "1028272"
					},
					"external": {
						"Objects(uint256)": "infinite",
						"TotalObjects()": "2491",
						"createObject(string,string,string,uint256,string,uint256,uint256)": "infinite",
						"delObject(string)": "infinite",
						"updateObject(string,string,string,uint256,uint256,uint256)": "infinite"
					},
					"internal": {
						"compareStrings(string memory,string memory)": "infinite"
					}
				},
				"methodIdentifiers": {
					"Objects(uint256)": "23438efb",
					"TotalObjects()": "997a2ebb",
					"createObject(string,string,string,uint256,string,uint256,uint256)": "59c1ed2c",
					"delObject(string)": "1e768493",
					"updateObject(string,string,string,uint256,uint256,uint256)": "49816d49"
				}
			},
			"storageLayout": {
				"storage": [
					{
						"astId": 20,
						"contract": "backend/objects.sol:DeAuctionObjects",
						"label": "Objects",
						"offset": 0,
						"slot": "0",
						"type": "t_array(t_struct(object)16_storage)dyn_storage"
					},
					{
						"astId": 22,
						"contract": "backend/objects.sol:DeAuctionObjects",
						"label": "TotalObjects",
						"offset": 0,
						"slot": "1",
						"type": "t_uint256"
					}
				],
				"types": {
					"t_array(t_struct(object)16_storage)dyn_storage": {
						"base": "t_struct(object)16_storage",
						"encoding": "dynamic_array",
						"label": "struct DeAuctionObjects.object[]",
						"numberOfBytes": "32"
					},
					"t_string_storage": {
						"encoding": "bytes",
						"label": "string",
						"numberOfBytes": "32"
					},
					"t_struct(object)16_storage": {
						"encoding": "inplace",
						"label": "struct DeAuctionObjects.object",
						"members": [
							{
								"astId": 3,
								"contract": "backend/objects.sol:DeAuctionObjects",
								"label": "name",
								"offset": 0,
								"slot": "0",
								"type": "t_string_storage"
							},
							{
								"astId": 5,
								"contract": "backend/objects.sol:DeAuctionObjects",
								"label": "description",
								"offset": 0,
								"slot": "1",
								"type": "t_string_storage"
							},
							{
								"astId": 7,
								"contract": "backend/objects.sol:DeAuctionObjects",
								"label": "email",
								"offset": 0,
								"slot": "2",
								"type": "t_string_storage"
							},
							{
								"astId": 9,
								"contract": "backend/objects.sol:DeAuctionObjects",
								"label": "startPrice",
								"offset": 0,
								"slot": "3",
								"type": "t_uint256"
							},
							{
								"astId": 11,
								"contract": "backend/objects.sol:DeAuctionObjects",
								"label": "category",
								"offset": 0,
								"slot": "4",
								"type": "t_string_storage"
							},
							{
								"astId": 13,
								"contract": "backend/objects.sol:DeAuctionObjects",
								"label": "startDate",
								"offset": 0,
								"slot": "5",
								"type": "t_uint256"
							},
							{
								"astId": 15,
								"contract": "backend/objects.sol:DeAuctionObjects",
								"label": "endDate",
								"offset": 0,
								"slot": "6",
								"type": "t_uint256"
							}
						],
						"numberOfBytes": "224"
					},
					"t_uint256": {
						"encoding": "inplace",
						"label": "uint256",
						"numberOfBytes": "32"
					}
				}
			},
			"userdoc": {
				"kind": "user",
				"methods": {},
				"version": 1
			}
		}
	}
}