{
	"data": {
		"bytecode": {
			"linkReferences": {},
			"object": "6080604052348015600e575f5ffd5b505f6001819055506110b1806100235f395ff3fe608060405234801561000f575f5ffd5b5060043610610055575f3560e01c806315ed714f146100595780631e7684931461008957806323438efb146100b957806333cefc63146100eb578063997a2ebb1461011b575b5f5ffd5b610073600480360381019061006e91906108ef565b610139565b60405161008091906109ad565b60405180910390f35b6100a3600480360381019061009e91906109c6565b610282565b6040516100b091906109ad565b60405180910390f35b6100d360048036038101906100ce9190610a40565b610479565b6040516100e293929190610acb565b60405180910390f35b610105600480360381019061010091906108ef565b61063f565b6040516101129190610b24565b60405180910390f35b6101236106ec565b6040516101309190610b24565b60405180910390f35b5f5f5f90505b600154811015610276576101fb5f828154811061015f5761015e610b3d565b5b905f5260205f209060030201600201805461017990610b97565b80601f01602080910402602001604051908101604052809291908181526020018280546101a590610b97565b80156101f05780601f106101c7576101008083540402835291602001916101f0565b820191905f5260205f20905b8154815290600101906020018083116101d357829003601f168201915b5050505050866106f2565b1561026957825f828154811061021457610213610b3d565b5b905f5260205f2090600302015f01908161022e9190610d67565b50835f828154811061024357610242610b3d565b5b905f5260205f209060030201600101908161025e9190610d67565b50600191505061027b565b808060010191505061013f565b505f90505b9392505050565b5f5f6001541161029557610294610e36565b5b5f5f90505b60015481101561046f576103565f82815481106102ba576102b9610b3d565b5b905f5260205f20906003020160020180546102d490610b97565b80601f016020809104026020016040519081016040528092919081815260200182805461030090610b97565b801561034b5780601f106103225761010080835404028352916020019161034b565b820191905f5260205f20905b81548152906001019060200180831161032e57829003601f168201915b5050505050846106f2565b15610462575f6001805461036a9190610e90565b8154811061037b5761037a610b3d565b5b905f5260205f2090600302015f828154811061039a57610399610b3d565b5b905f5260205f2090600302015f8201815f0190816103b89190610ed8565b50600182018160010190816103cd9190610ed8565b50600282018160020190816103e29190610ed8565b509050505f600180546103f59190610e90565b8154811061040657610405610b3d565b5b905f5260205f2090600302015f5f82015f610421919061074a565b600182015f610430919061074a565b600282015f61043f919061074a565b505060015f81548092919061045390610fbd565b91905055506001915050610474565b808060010191505061029a565b505f90505b919050565b5f8181548110610487575f80fd5b905f5260205f2090600302015f91509050805f0180546104a690610b97565b80601f01602080910402602001604051908101604052809291908181526020018280546104d290610b97565b801561051d5780601f106104f45761010080835404028352916020019161051d565b820191905f5260205f20905b81548152906001019060200180831161050057829003601f168201915b50505050509080600101805461053290610b97565b80601f016020809104026020016040519081016040528092919081815260200182805461055e90610b97565b80156105a95780601f10610580576101008083540402835291602001916105a9565b820191905f5260205f20905b81548152906001019060200180831161058c57829003601f168201915b5050505050908060020180546105be90610b97565b80601f01602080910402602001604051908101604052809291908181526020018280546105ea90610b97565b80156106355780601f1061060c57610100808354040283529160200191610635565b820191905f5260205f20905b81548152906001019060200180831161061857829003601f168201915b5050505050905083565b5f5f60405180606001604052808681526020018581526020018481525090505f81908060018154018082558091505060019003905f5260205f2090600302015f909190919091505f820151815f0190816106999190610d67565b5060208201518160010190816106af9190610d67565b5060408201518160020190816106c59190610d67565b50505060015f8154809291906106da90610fe4565b91905055506001549150509392505050565b60015481565b5f816040516020016107049190611065565b604051602081830303815290604052805190602001208360405160200161072b9190611065565b6040516020818303038152906040528051906020012014905092915050565b50805461075690610b97565b5f825580601f106107675750610784565b601f0160209004905f5260205f20908101906107839190610787565b5b50565b5b8082111561079e575f815f905550600101610788565b5090565b5f604051905090565b5f5ffd5b5f5ffd5b5f5ffd5b5f5ffd5b5f601f19601f8301169050919050565b7f4e487b71000000000000000000000000000000000000000000000000000000005f52604160045260245ffd5b610801826107bb565b810181811067ffffffffffffffff821117156108205761081f6107cb565b5b80604052505050565b5f6108326107a2565b905061083e82826107f8565b919050565b5f67ffffffffffffffff82111561085d5761085c6107cb565b5b610866826107bb565b9050602081019050919050565b828183375f83830152505050565b5f61089361088e84610843565b610829565b9050828152602081018484840111156108af576108ae6107b7565b5b6108ba848285610873565b509392505050565b5f82601f8301126108d6576108d56107b3565b5b81356108e6848260208601610881565b91505092915050565b5f5f5f60608486031215610906576109056107ab565b5b5f84013567ffffffffffffffff811115610923576109226107af565b5b61092f868287016108c2565b935050602084013567ffffffffffffffff8111156109505761094f6107af565b5b61095c868287016108c2565b925050604084013567ffffffffffffffff81111561097d5761097c6107af565b5b610989868287016108c2565b9150509250925092565b5f8115159050919050565b6109a781610993565b82525050565b5f6020820190506109c05f83018461099e565b92915050565b5f602082840312156109db576109da6107ab565b5b5f82013567ffffffffffffffff8111156109f8576109f76107af565b5b610a04848285016108c2565b91505092915050565b5f819050919050565b610a1f81610a0d565b8114610a29575f5ffd5b50565b5f81359050610a3a81610a16565b92915050565b5f60208284031215610a5557610a546107ab565b5b5f610a6284828501610a2c565b91505092915050565b5f81519050919050565b5f82825260208201905092915050565b8281835e5f83830152505050565b5f610a9d82610a6b565b610aa78185610a75565b9350610ab7818560208601610a85565b610ac0816107bb565b840191505092915050565b5f6060820190508181035f830152610ae38186610a93565b90508181036020830152610af78185610a93565b90508181036040830152610b0b8184610a93565b9050949350505050565b610b1e81610a0d565b82525050565b5f602082019050610b375f830184610b15565b92915050565b7f4e487b71000000000000000000000000000000000000000000000000000000005f52603260045260245ffd5b7f4e487b71000000000000000000000000000000000000000000000000000000005f52602260045260245ffd5b5f6002820490506001821680610bae57607f821691505b602082108103610bc157610bc0610b6a565b5b50919050565b5f819050815f5260205f209050919050565b5f6020601f8301049050919050565b5f82821b905092915050565b5f60088302610c237fffffffffffffffffffffffffffffffffffffffffffffffffffffffffffffffff82610be8565b610c2d8683610be8565b95508019841693508086168417925050509392505050565b5f819050919050565b5f610c68610c63610c5e84610a0d565b610c45565b610a0d565b9050919050565b5f819050919050565b610c8183610c4e565b610c95610c8d82610c6f565b848454610bf4565b825550505050565b5f5f905090565b610cac610c9d565b610cb7818484610c78565b505050565b5b81811015610cda57610ccf5f82610ca4565b600181019050610cbd565b5050565b601f821115610d1f57610cf081610bc7565b610cf984610bd9565b81016020851015610d08578190505b610d1c610d1485610bd9565b830182610cbc565b50505b505050565b5f82821c905092915050565b5f610d3f5f1984600802610d24565b1980831691505092915050565b5f610d578383610d30565b9150826002028217905092915050565b610d7082610a6b565b67ffffffffffffffff811115610d8957610d886107cb565b5b610d938254610b97565b610d9e828285610cde565b5f60209050601f831160018114610dcf575f8415610dbd578287015190505b610dc78582610d4c565b865550610e2e565b601f198416610ddd86610bc7565b5f5b82811015610e0457848901518255600182019150602085019450602081019050610ddf565b86831015610e215784890151610e1d601f891682610d30565b8355505b6001600288020188555050505b505050505050565b7f4e487b71000000000000000000000000000000000000000000000000000000005f52600160045260245ffd5b7f4e487b71000000000000000000000000000000000000000000000000000000005f52601160045260245ffd5b5f610e9a82610a0d565b9150610ea583610a0d565b9250828203905081811115610ebd57610ebc610e63565b5b92915050565b5f81549050610ed181610b97565b9050919050565b818103610ee6575050610fbb565b610eef82610ec3565b67ffffffffffffffff811115610f0857610f076107cb565b5b610f128254610b97565b610f1d828285610cde565b5f601f831160018114610f4a575f8415610f38578287015490505b610f428582610d4c565b865550610fb4565b601f198416610f5887610bc7565b9650610f6386610bc7565b5f5b82811015610f8a57848901548255600182019150600185019450602081019050610f65565b86831015610fa75784890154610fa3601f891682610d30565b8355505b6001600288020188555050505b5050505050505b565b5f610fc782610a0d565b91505f8203610fd957610fd8610e63565b5b600182039050919050565b5f610fee82610a0d565b91507fffffffffffffffffffffffffffffffffffffffffffffffffffffffffffffffff82036110205761101f610e63565b5b600182019050919050565b5f81905092915050565b5f61103f82610a6b565b611049818561102b565b9350611059818560208601610a85565b80840191505092915050565b5f6110708284611035565b91508190509291505056fea2646970667358221220c8d5b15230050d3be4225903272c1ac4d93578a05d872867729f4fd7e3fac53c64736f6c634300081e0033",
			"opcodes": "PUSH1 0x80 PUSH1 0x40 MSTORE CALLVALUE DUP1 ISZERO PUSH1 0xE JUMPI PUSH0 PUSH0 REVERT JUMPDEST POP PUSH0 PUSH1 0x1 DUP2 SWAP1 SSTORE POP PUSH2 0x10B1 DUP1 PUSH2 0x23 PUSH0 CODECOPY PUSH0 RETURN INVALID PUSH1 0x80 PUSH1 0x40 MSTORE CALLVALUE DUP1 ISZERO PUSH2 0xF JUMPI PUSH0 PUSH0 REVERT JUMPDEST POP PUSH1 0x4 CALLDATASIZE LT PUSH2 0x55 JUMPI PUSH0 CALLDATALOAD PUSH1 0xE0 SHR DUP1 PUSH4 0x15ED714F EQ PUSH2 0x59 JUMPI DUP1 PUSH4 0x1E768493 EQ PUSH2 0x89 JUMPI DUP1 PUSH4 0x23438EFB EQ PUSH2 0xB9 JUMPI DUP1 PUSH4 0x33CEFC63 EQ PUSH2 0xEB JUMPI DUP1 PUSH4 0x997A2EBB EQ PUSH2 0x11B JUMPI JUMPDEST PUSH0 PUSH0 REVERT JUMPDEST PUSH2 0x73 PUSH1 0x4 DUP1 CALLDATASIZE SUB DUP2 ADD SWAP1 PUSH2 0x6E SWAP2 SWAP1 PUSH2 0x8EF JUMP JUMPDEST PUSH2 0x139 JUMP JUMPDEST PUSH1 0x40 MLOAD PUSH2 0x80 SWAP2 SWAP1 PUSH2 0x9AD JUMP JUMPDEST PUSH1 0x40 MLOAD DUP1 SWAP2 SUB SWAP1 RETURN JUMPDEST PUSH2 0xA3 PUSH1 0x4 DUP1 CALLDATASIZE SUB DUP2 ADD SWAP1 PUSH2 0x9E SWAP2 SWAP1 PUSH2 0x9C6 JUMP JUMPDEST PUSH2 0x282 JUMP JUMPDEST PUSH1 0x40 MLOAD PUSH2 0xB0 SWAP2 SWAP1 PUSH2 0x9AD JUMP JUMPDEST PUSH1 0x40 MLOAD DUP1 SWAP2 SUB SWAP1 RETURN JUMPDEST PUSH2 0xD3 PUSH1 0x4 DUP1 CALLDATASIZE SUB DUP2 ADD SWAP1 PUSH2 0xCE SWAP2 SWAP1 PUSH2 0xA40 JUMP JUMPDEST PUSH2 0x479 JUMP JUMPDEST PUSH1 0x40 MLOAD PUSH2 0xE2 SWAP4 SWAP3 SWAP2 SWAP1 PUSH2 0xACB JUMP JUMPDEST PUSH1 0x40 MLOAD DUP1 SWAP2 SUB SWAP1 RETURN JUMPDEST PUSH2 0x105 PUSH1 0x4 DUP1 CALLDATASIZE SUB DUP2 ADD SWAP1 PUSH2 0x100 SWAP2 SWAP1 PUSH2 0x8EF JUMP JUMPDEST PUSH2 0x63F JUMP JUMPDEST PUSH1 0x40 MLOAD PUSH2 0x112 SWAP2 SWAP1 PUSH2 0xB24 JUMP JUMPDEST PUSH1 0x40 MLOAD DUP1 SWAP2 SUB SWAP1 RETURN JUMPDEST PUSH2 0x123 PUSH2 0x6EC JUMP JUMPDEST PUSH1 0x40 MLOAD PUSH2 0x130 SWAP2 SWAP1 PUSH2 0xB24 JUMP JUMPDEST PUSH1 0x40 MLOAD DUP1 SWAP2 SUB SWAP1 RETURN JUMPDEST PUSH0 PUSH0 PUSH0 SWAP1 POP JUMPDEST PUSH1 0x1 SLOAD DUP2 LT ISZERO PUSH2 0x276 JUMPI PUSH2 0x1FB PUSH0 DUP3 DUP2 SLOAD DUP2 LT PUSH2 0x15F JUMPI PUSH2 0x15E PUSH2 0xB3D JUMP JUMPDEST JUMPDEST SWAP1 PUSH0 MSTORE PUSH1 0x20 PUSH0 KECCAK256 SWAP1 PUSH1 0x3 MUL ADD PUSH1 0x2 ADD DUP1 SLOAD PUSH2 0x179 SWAP1 PUSH2 0xB97 JUMP JUMPDEST DUP1 PUSH1 0x1F ADD PUSH1 0x20 DUP1 SWAP2 DIV MUL PUSH1 0x20 ADD PUSH1 0x40 MLOAD SWAP1 DUP2 ADD PUSH1 0x40 MSTORE DUP1 SWAP3 SWAP2 SWAP1 DUP2 DUP2 MSTORE PUSH1 0x20 ADD DUP3 DUP1 SLOAD PUSH2 0x1A5 SWAP1 PUSH2 0xB97 JUMP JUMPDEST DUP1 ISZERO PUSH2 0x1F0 JUMPI DUP1 PUSH1 0x1F LT PUSH2 0x1C7 JUMPI PUSH2 0x100 DUP1 DUP4 SLOAD DIV MUL DUP4 MSTORE SWAP2 PUSH1 0x20 ADD SWAP2 PUSH2 0x1F0 JUMP JUMPDEST DUP3 ADD SWAP2 SWAP1 PUSH0 MSTORE PUSH1 0x20 PUSH0 KECCAK256 SWAP1 JUMPDEST DUP2 SLOAD DUP2 MSTORE SWAP1 PUSH1 0x1 ADD SWAP1 PUSH1 0x20 ADD DUP1 DUP4 GT PUSH2 0x1D3 JUMPI DUP3 SWAP1 SUB PUSH1 0x1F AND DUP3 ADD SWAP2 JUMPDEST POP POP POP POP POP DUP7 PUSH2 0x6F2 JUMP JUMPDEST ISZERO PUSH2 0x269 JUMPI DUP3 PUSH0 DUP3 DUP2 SLOAD DUP2 LT PUSH2 0x214 JUMPI PUSH2 0x213 PUSH2 0xB3D JUMP JUMPDEST JUMPDEST SWAP1 PUSH0 MSTORE PUSH1 0x20 PUSH0 KECCAK256 SWAP1 PUSH1 0x3 MUL ADD PUSH0 ADD SWAP1 DUP2 PUSH2 0x22E SWAP2 SWAP1 PUSH2 0xD67 JUMP JUMPDEST POP DUP4 PUSH0 DUP3 DUP2 SLOAD DUP2 LT PUSH2 0x243 JUMPI PUSH2 0x242 PUSH2 0xB3D JUMP JUMPDEST JUMPDEST SWAP1 PUSH0 MSTORE PUSH1 0x20 PUSH0 KECCAK256 SWAP1 PUSH1 0x3 MUL ADD PUSH1 0x1 ADD SWAP1 DUP2 PUSH2 0x25E SWAP2 SWAP1 PUSH2 0xD67 JUMP JUMPDEST POP PUSH1 0x1 SWAP2 POP POP PUSH2 0x27B JUMP JUMPDEST DUP1 DUP1 PUSH1 0x1 ADD SWAP2 POP POP PUSH2 0x13F JUMP JUMPDEST POP PUSH0 SWAP1 POP JUMPDEST SWAP4 SWAP3 POP POP POP JUMP JUMPDEST PUSH0 PUSH0 PUSH1 0x1 SLOAD GT PUSH2 0x295 JUMPI PUSH2 0x294 PUSH2 0xE36 JUMP JUMPDEST JUMPDEST PUSH0 PUSH0 SWAP1 POP JUMPDEST PUSH1 0x1 SLOAD DUP2 LT ISZERO PUSH2 0x46F JUMPI PUSH2 0x356 PUSH0 DUP3 DUP2 SLOAD DUP2 LT PUSH2 0x2BA JUMPI PUSH2 0x2B9 PUSH2 0xB3D JUMP JUMPDEST JUMPDEST SWAP1 PUSH0 MSTORE PUSH1 0x20 PUSH0 KECCAK256 SWAP1 PUSH1 0x3 MUL ADD PUSH1 0x2 ADD DUP1 SLOAD PUSH2 0x2D4 SWAP1 PUSH2 0xB97 JUMP JUMPDEST DUP1 PUSH1 0x1F ADD PUSH1 0x20 DUP1 SWAP2 DIV MUL PUSH1 0x20 ADD PUSH1 0x40 MLOAD SWAP1 DUP2 ADD PUSH1 0x40 MSTORE DUP1 SWAP3 SWAP2 SWAP1 DUP2 DUP2 MSTORE PUSH1 0x20 ADD DUP3 DUP1 SLOAD PUSH2 0x300 SWAP1 PUSH2 0xB97 JUMP JUMPDEST DUP1 ISZERO PUSH2 0x34B JUMPI DUP1 PUSH1 0x1F LT PUSH2 0x322 JUMPI PUSH2 0x100 DUP1 DUP4 SLOAD DIV MUL DUP4 MSTORE SWAP2 PUSH1 0x20 ADD SWAP2 PUSH2 0x34B JUMP JUMPDEST DUP3 ADD SWAP2 SWAP1 PUSH0 MSTORE PUSH1 0x20 PUSH0 KECCAK256 SWAP1 JUMPDEST DUP2 SLOAD DUP2 MSTORE SWAP1 PUSH1 0x1 ADD SWAP1 PUSH1 0x20 ADD DUP1 DUP4 GT PUSH2 0x32E JUMPI DUP3 SWAP1 SUB PUSH1 0x1F AND DUP3 ADD SWAP2 JUMPDEST POP POP POP POP POP DUP5 PUSH2 0x6F2 JUMP JUMPDEST ISZERO PUSH2 0x462 JUMPI PUSH0 PUSH1 0x1 DUP1 SLOAD PUSH2 0x36A SWAP2 SWAP1 PUSH2 0xE90 JUMP JUMPDEST DUP2 SLOAD DUP2 LT PUSH2 0x37B JUMPI PUSH2 0x37A PUSH2 0xB3D JUMP JUMPDEST JUMPDEST SWAP1 PUSH0 MSTORE PUSH1 0x20 PUSH0 KECCAK256 SWAP1 PUSH1 0x3 MUL ADD PUSH0 DUP3 DUP2 SLOAD DUP2 LT PUSH2 0x39A JUMPI PUSH2 0x399 PUSH2 0xB3D JUMP JUMPDEST JUMPDEST SWAP1 PUSH0 MSTORE PUSH1 0x20 PUSH0 KECCAK256 SWAP1 PUSH1 0x3 MUL ADD PUSH0 DUP3 ADD DUP2 PUSH0 ADD SWAP1 DUP2 PUSH2 0x3B8 SWAP2 SWAP1 PUSH2 0xED8 JUMP JUMPDEST POP PUSH1 0x1 DUP3 ADD DUP2 PUSH1 0x1 ADD SWAP1 DUP2 PUSH2 0x3CD SWAP2 SWAP1 PUSH2 0xED8 JUMP JUMPDEST POP PUSH1 0x2 DUP3 ADD DUP2 PUSH1 0x2 ADD SWAP1 DUP2 PUSH2 0x3E2 SWAP2 SWAP1 PUSH2 0xED8 JUMP JUMPDEST POP SWAP1 POP POP PUSH0 PUSH1 0x1 DUP1 SLOAD PUSH2 0x3F5 SWAP2 SWAP1 PUSH2 0xE90 JUMP JUMPDEST DUP2 SLOAD DUP2 LT PUSH2 0x406 JUMPI PUSH2 0x405 PUSH2 0xB3D JUMP JUMPDEST JUMPDEST SWAP1 PUSH0 MSTORE PUSH1 0x20 PUSH0 KECCAK256 SWAP1 PUSH1 0x3 MUL ADD PUSH0 PUSH0 DUP3 ADD PUSH0 PUSH2 0x421 SWAP2 SWAP1 PUSH2 0x74A JUMP JUMPDEST PUSH1 0x1 DUP3 ADD PUSH0 PUSH2 0x430 SWAP2 SWAP1 PUSH2 0x74A JUMP JUMPDEST PUSH1 0x2 DUP3 ADD PUSH0 PUSH2 0x43F SWAP2 SWAP1 PUSH2 0x74A JUMP JUMPDEST POP POP PUSH1 0x1 PUSH0 DUP2 SLOAD DUP1 SWAP3 SWAP2 SWAP1 PUSH2 0x453 SWAP1 PUSH2 0xFBD JUMP JUMPDEST SWAP2 SWAP1 POP SSTORE POP PUSH1 0x1 SWAP2 POP POP PUSH2 0x474 JUMP JUMPDEST DUP1 DUP1 PUSH1 0x1 ADD SWAP2 POP POP PUSH2 0x29A JUMP JUMPDEST POP PUSH0 SWAP1 POP JUMPDEST SWAP2 SWAP1 POP JUMP JUMPDEST PUSH0 DUP2 DUP2 SLOAD DUP2 LT PUSH2 0x487 JUMPI PUSH0 DUP1 REVERT JUMPDEST SWAP1 PUSH0 MSTORE PUSH1 0x20 PUSH0 KECCAK256 SWAP1 PUSH1 0x3 MUL ADD PUSH0 SWAP2 POP SWAP1 POP DUP1 PUSH0 ADD DUP1 SLOAD PUSH2 0x4A6 SWAP1 PUSH2 0xB97 JUMP JUMPDEST DUP1 PUSH1 0x1F ADD PUSH1 0x20 DUP1 SWAP2 DIV MUL PUSH1 0x20 ADD PUSH1 0x40 MLOAD SWAP1 DUP2 ADD PUSH1 0x40 MSTORE DUP1 SWAP3 SWAP2 SWAP1 DUP2 DUP2 MSTORE PUSH1 0x20 ADD DUP3 DUP1 SLOAD PUSH2 0x4D2 SWAP1 PUSH2 0xB97 JUMP JUMPDEST DUP1 ISZERO PUSH2 0x51D JUMPI DUP1 PUSH1 0x1F LT PUSH2 0x4F4 JUMPI PUSH2 0x100 DUP1 DUP4 SLOAD DIV MUL DUP4 MSTORE SWAP2 PUSH1 0x20 ADD SWAP2 PUSH2 0x51D JUMP JUMPDEST DUP3 ADD SWAP2 SWAP1 PUSH0 MSTORE PUSH1 0x20 PUSH0 KECCAK256 SWAP1 JUMPDEST DUP2 SLOAD DUP2 MSTORE SWAP1 PUSH1 0x1 ADD SWAP1 PUSH1 0x20 ADD DUP1 DUP4 GT PUSH2 0x500 JUMPI DUP3 SWAP1 SUB PUSH1 0x1F AND DUP3 ADD SWAP2 JUMPDEST POP POP POP POP POP SWAP1 DUP1 PUSH1 0x1 ADD DUP1 SLOAD PUSH2 0x532 SWAP1 PUSH2 0xB97 JUMP JUMPDEST DUP1 PUSH1 0x1F ADD PUSH1 0x20 DUP1 SWAP2 DIV MUL PUSH1 0x20 ADD PUSH1 0x40 MLOAD SWAP1 DUP2 ADD PUSH1 0x40 MSTORE DUP1 SWAP3 SWAP2 SWAP1 DUP2 DUP2 MSTORE PUSH1 0x20 ADD DUP3 DUP1 SLOAD PUSH2 0x55E SWAP1 PUSH2 0xB97 JUMP JUMPDEST DUP1 ISZERO PUSH2 0x5A9 JUMPI DUP1 PUSH1 0x1F LT PUSH2 0x580 JUMPI PUSH2 0x100 DUP1 DUP4 SLOAD DIV MUL DUP4 MSTORE SWAP2 PUSH1 0x20 ADD SWAP2 PUSH2 0x5A9 JUMP JUMPDEST DUP3 ADD SWAP2 SWAP1 PUSH0 MSTORE PUSH1 0x20 PUSH0 KECCAK256 SWAP1 JUMPDEST DUP2 SLOAD DUP2 MSTORE SWAP1 PUSH1 0x1 ADD SWAP1 PUSH1 0x20 ADD DUP1 DUP4 GT PUSH2 0x58C JUMPI DUP3 SWAP1 SUB PUSH1 0x1F AND DUP3 ADD SWAP2 JUMPDEST POP POP POP POP POP SWAP1 DUP1 PUSH1 0x2 ADD DUP1 SLOAD PUSH2 0x5BE SWAP1 PUSH2 0xB97 JUMP JUMPDEST DUP1 PUSH1 0x1F ADD PUSH1 0x20 DUP1 SWAP2 DIV MUL PUSH1 0x20 ADD PUSH1 0x40 MLOAD SWAP1 DUP2 ADD PUSH1 0x40 MSTORE DUP1 SWAP3 SWAP2 SWAP1 DUP2 DUP2 MSTORE PUSH1 0x20 ADD DUP3 DUP1 SLOAD PUSH2 0x5EA SWAP1 PUSH2 0xB97 JUMP JUMPDEST DUP1 ISZERO PUSH2 0x635 JUMPI DUP1 PUSH1 0x1F LT PUSH2 0x60C JUMPI PUSH2 0x100 DUP1 DUP4 SLOAD DIV MUL DUP4 MSTORE SWAP2 PUSH1 0x20 ADD SWAP2 PUSH2 0x635 JUMP JUMPDEST DUP3 ADD SWAP2 SWAP1 PUSH0 MSTORE PUSH1 0x20 PUSH0 KECCAK256 SWAP1 JUMPDEST DUP2 SLOAD DUP2 MSTORE SWAP1 PUSH1 0x1 ADD SWAP1 PUSH1 0x20 ADD DUP1 DUP4 GT PUSH2 0x618 JUMPI DUP3 SWAP1 SUB PUSH1 0x1F AND DUP3 ADD SWAP2 JUMPDEST POP POP POP POP POP SWAP1 POP DUP4 JUMP JUMPDEST PUSH0 PUSH0 PUSH1 0x40 MLOAD DUP1 PUSH1 0x60 ADD PUSH1 0x40 MSTORE DUP1 DUP7 DUP2 MSTORE PUSH1 0x20 ADD DUP6 DUP2 MSTORE PUSH1 0x20 ADD DUP5 DUP2 MSTORE POP SWAP1 POP PUSH0 DUP2 SWAP1 DUP1 PUSH1 0x1 DUP2 SLOAD ADD DUP1 DUP3 SSTORE DUP1 SWAP2 POP POP PUSH1 0x1 SWAP1 SUB SWAP1 PUSH0 MSTORE PUSH1 0x20 PUSH0 KECCAK256 SWAP1 PUSH1 0x3 MUL ADD PUSH0 SWAP1 SWAP2 SWAP1 SWAP2 SWAP1 SWAP2 POP PUSH0 DUP3 ADD MLOAD DUP2 PUSH0 ADD SWAP1 DUP2 PUSH2 0x699 SWAP2 SWAP1 PUSH2 0xD67 JUMP JUMPDEST POP PUSH1 0x20 DUP3 ADD MLOAD DUP2 PUSH1 0x1 ADD SWAP1 DUP2 PUSH2 0x6AF SWAP2 SWAP1 PUSH2 0xD67 JUMP JUMPDEST POP PUSH1 0x40 DUP3 ADD MLOAD DUP2 PUSH1 0x2 ADD SWAP1 DUP2 PUSH2 0x6C5 SWAP2 SWAP1 PUSH2 0xD67 JUMP JUMPDEST POP POP POP PUSH1 0x1 PUSH0 DUP2 SLOAD DUP1 SWAP3 SWAP2 SWAP1 PUSH2 0x6DA SWAP1 PUSH2 0xFE4 JUMP JUMPDEST SWAP2 SWAP1 POP SSTORE POP PUSH1 0x1 SLOAD SWAP2 POP POP SWAP4 SWAP3 POP POP POP JUMP JUMPDEST PUSH1 0x1 SLOAD DUP2 JUMP JUMPDEST PUSH0 DUP2 PUSH1 0x40 MLOAD PUSH1 0x20 ADD PUSH2 0x704 SWAP2 SWAP1 PUSH2 0x1065 JUMP JUMPDEST PUSH1 0x40 MLOAD PUSH1 0x20 DUP2 DUP4 SUB SUB DUP2 MSTORE SWAP1 PUSH1 0x40 MSTORE DUP1 MLOAD SWAP1 PUSH1 0x20 ADD KECCAK256 DUP4 PUSH1 0x40 MLOAD PUSH1 0x20 ADD PUSH2 0x72B SWAP2 SWAP1 PUSH2 0x1065 JUMP JUMPDEST PUSH1 0x40 MLOAD PUSH1 0x20 DUP2 DUP4 SUB SUB DUP2 MSTORE SWAP1 PUSH1 0x40 MSTORE DUP1 MLOAD SWAP1 PUSH1 0x20 ADD KECCAK256 EQ SWAP1 POP SWAP3 SWAP2 POP POP JUMP JUMPDEST POP DUP1 SLOAD PUSH2 0x756 SWAP1 PUSH2 0xB97 JUMP JUMPDEST PUSH0 DUP3 SSTORE DUP1 PUSH1 0x1F LT PUSH2 0x767 JUMPI POP PUSH2 0x784 JUMP JUMPDEST PUSH1 0x1F ADD PUSH1 0x20 SWAP1 DIV SWAP1 PUSH0 MSTORE PUSH1 0x20 PUSH0 KECCAK256 SWAP1 DUP2 ADD SWAP1 PUSH2 0x783 SWAP2 SWAP1 PUSH2 0x787 JUMP JUMPDEST JUMPDEST POP JUMP JUMPDEST JUMPDEST DUP1 DUP3 GT ISZERO PUSH2 0x79E JUMPI PUSH0 DUP2 PUSH0 SWAP1 SSTORE POP PUSH1 0x1 ADD PUSH2 0x788 JUMP JUMPDEST POP SWAP1 JUMP JUMPDEST PUSH0 PUSH1 0x40 MLOAD SWAP1 POP SWAP1 JUMP JUMPDEST PUSH0 PUSH0 REVERT JUMPDEST PUSH0 PUSH0 REVERT JUMPDEST PUSH0 PUSH0 REVERT JUMPDEST PUSH0 PUSH0 REVERT JUMPDEST PUSH0 PUSH1 0x1F NOT PUSH1 0x1F DUP4 ADD AND SWAP1 POP SWAP2 SWAP1 POP JUMP JUMPDEST PUSH32 0x4E487B7100000000000000000000000000000000000000000000000000000000 PUSH0 MSTORE PUSH1 0x41 PUSH1 0x4 MSTORE PUSH1 0x24 PUSH0 REVERT JUMPDEST PUSH2 0x801 DUP3 PUSH2 0x7BB JUMP JUMPDEST DUP2 ADD DUP2 DUP2 LT PUSH8 0xFFFFFFFFFFFFFFFF DUP3 GT OR ISZERO PUSH2 0x820 JUMPI PUSH2 0x81F PUSH2 0x7CB JUMP JUMPDEST JUMPDEST DUP1 PUSH1 0x40 MSTORE POP POP POP JUMP JUMPDEST PUSH0 PUSH2 0x832 PUSH2 0x7A2 JUMP JUMPDEST SWAP1 POP PUSH2 0x83E DUP3 DUP3 PUSH2 0x7F8 JUMP JUMPDEST SWAP2 SWAP1 POP JUMP JUMPDEST PUSH0 PUSH8 0xFFFFFFFFFFFFFFFF DUP3 GT ISZERO PUSH2 0x85D JUMPI PUSH2 0x85C PUSH2 0x7CB JUMP JUMPDEST JUMPDEST PUSH2 0x866 DUP3 PUSH2 0x7BB JUMP JUMPDEST SWAP1 POP PUSH1 0x20 DUP2 ADD SWAP1 POP SWAP2 SWAP1 POP JUMP JUMPDEST DUP3 DUP2 DUP4 CALLDATACOPY PUSH0 DUP4 DUP4 ADD MSTORE POP POP POP JUMP JUMPDEST PUSH0 PUSH2 0x893 PUSH2 0x88E DUP5 PUSH2 0x843 JUMP JUMPDEST PUSH2 0x829 JUMP JUMPDEST SWAP1 POP DUP3 DUP2 MSTORE PUSH1 0x20 DUP2 ADD DUP5 DUP5 DUP5 ADD GT ISZERO PUSH2 0x8AF JUMPI PUSH2 0x8AE PUSH2 0x7B7 JUMP JUMPDEST JUMPDEST PUSH2 0x8BA DUP5 DUP3 DUP6 PUSH2 0x873 JUMP JUMPDEST POP SWAP4 SWAP3 POP POP POP JUMP JUMPDEST PUSH0 DUP3 PUSH1 0x1F DUP4 ADD SLT PUSH2 0x8D6 JUMPI PUSH2 0x8D5 PUSH2 0x7B3 JUMP JUMPDEST JUMPDEST DUP2 CALLDATALOAD PUSH2 0x8E6 DUP5 DUP3 PUSH1 0x20 DUP7 ADD PUSH2 0x881 JUMP JUMPDEST SWAP2 POP POP SWAP3 SWAP2 POP POP JUMP JUMPDEST PUSH0 PUSH0 PUSH0 PUSH1 0x60 DUP5 DUP7 SUB SLT ISZERO PUSH2 0x906 JUMPI PUSH2 0x905 PUSH2 0x7AB JUMP JUMPDEST JUMPDEST PUSH0 DUP5 ADD CALLDATALOAD PUSH8 0xFFFFFFFFFFFFFFFF DUP2 GT ISZERO PUSH2 0x923 JUMPI PUSH2 0x922 PUSH2 0x7AF JUMP JUMPDEST JUMPDEST PUSH2 0x92F DUP7 DUP3 DUP8 ADD PUSH2 0x8C2 JUMP JUMPDEST SWAP4 POP POP PUSH1 0x20 DUP5 ADD CALLDATALOAD PUSH8 0xFFFFFFFFFFFFFFFF DUP2 GT ISZERO PUSH2 0x950 JUMPI PUSH2 0x94F PUSH2 0x7AF JUMP JUMPDEST JUMPDEST PUSH2 0x95C DUP7 DUP3 DUP8 ADD PUSH2 0x8C2 JUMP JUMPDEST SWAP3 POP POP PUSH1 0x40 DUP5 ADD CALLDATALOAD PUSH8 0xFFFFFFFFFFFFFFFF DUP2 GT ISZERO PUSH2 0x97D JUMPI PUSH2 0x97C PUSH2 0x7AF JUMP JUMPDEST JUMPDEST PUSH2 0x989 DUP7 DUP3 DUP8 ADD PUSH2 0x8C2 JUMP JUMPDEST SWAP2 POP POP SWAP3 POP SWAP3 POP SWAP3 JUMP JUMPDEST PUSH0 DUP2 ISZERO ISZERO SWAP1 POP SWAP2 SWAP1 POP JUMP JUMPDEST PUSH2 0x9A7 DUP2 PUSH2 0x993 JUMP JUMPDEST DUP3 MSTORE POP POP JUMP JUMPDEST PUSH0 PUSH1 0x20 DUP3 ADD SWAP1 POP PUSH2 0x9C0 PUSH0 DUP4 ADD DUP5 PUSH2 0x99E JUMP JUMPDEST SWAP3 SWAP2 POP POP JUMP JUMPDEST PUSH0 PUSH1 0x20 DUP3 DUP5 SUB SLT ISZERO PUSH2 0x9DB JUMPI PUSH2 0x9DA PUSH2 0x7AB JUMP JUMPDEST JUMPDEST PUSH0 DUP3 ADD CALLDATALOAD PUSH8 0xFFFFFFFFFFFFFFFF DUP2 GT ISZERO PUSH2 0x9F8 JUMPI PUSH2 0x9F7 PUSH2 0x7AF JUMP JUMPDEST JUMPDEST PUSH2 0xA04 DUP5 DUP3 DUP6 ADD PUSH2 0x8C2 JUMP JUMPDEST SWAP2 POP POP SWAP3 SWAP2 POP POP JUMP JUMPDEST PUSH0 DUP2 SWAP1 POP SWAP2 SWAP1 POP JUMP JUMPDEST PUSH2 0xA1F DUP2 PUSH2 0xA0D JUMP JUMPDEST DUP2 EQ PUSH2 0xA29 JUMPI PUSH0 PUSH0 REVERT JUMPDEST POP JUMP JUMPDEST PUSH0 DUP2 CALLDATALOAD SWAP1 POP PUSH2 0xA3A DUP2 PUSH2 0xA16 JUMP JUMPDEST SWAP3 SWAP2 POP POP JUMP JUMPDEST PUSH0 PUSH1 0x20 DUP3 DUP5 SUB SLT ISZERO PUSH2 0xA55 JUMPI PUSH2 0xA54 PUSH2 0x7AB JUMP JUMPDEST JUMPDEST PUSH0 PUSH2 0xA62 DUP5 DUP3 DUP6 ADD PUSH2 0xA2C JUMP JUMPDEST SWAP2 POP POP SWAP3 SWAP2 POP POP JUMP JUMPDEST PUSH0 DUP2 MLOAD SWAP1 POP SWAP2 SWAP1 POP JUMP JUMPDEST PUSH0 DUP3 DUP3 MSTORE PUSH1 0x20 DUP3 ADD SWAP1 POP SWAP3 SWAP2 POP POP JUMP JUMPDEST DUP3 DUP2 DUP4 MCOPY PUSH0 DUP4 DUP4 ADD MSTORE POP POP POP JUMP JUMPDEST PUSH0 PUSH2 0xA9D DUP3 PUSH2 0xA6B JUMP JUMPDEST PUSH2 0xAA7 DUP2 DUP6 PUSH2 0xA75 JUMP JUMPDEST SWAP4 POP PUSH2 0xAB7 DUP2 DUP6 PUSH1 0x20 DUP7 ADD PUSH2 0xA85 JUMP JUMPDEST PUSH2 0xAC0 DUP2 PUSH2 0x7BB JUMP JUMPDEST DUP5 ADD SWAP2 POP POP SWAP3 SWAP2 POP POP JUMP JUMPDEST PUSH0 PUSH1 0x60 DUP3 ADD SWAP1 POP DUP2 DUP2 SUB PUSH0 DUP4 ADD MSTORE PUSH2 0xAE3 DUP2 DUP7 PUSH2 0xA93 JUMP JUMPDEST SWAP1 POP DUP2 DUP2 SUB PUSH1 0x20 DUP4 ADD MSTORE PUSH2 0xAF7 DUP2 DUP6 PUSH2 0xA93 JUMP JUMPDEST SWAP1 POP DUP2 DUP2 SUB PUSH1 0x40 DUP4 ADD MSTORE PUSH2 0xB0B DUP2 DUP5 PUSH2 0xA93 JUMP JUMPDEST SWAP1 POP SWAP5 SWAP4 POP POP POP POP JUMP JUMPDEST PUSH2 0xB1E DUP2 PUSH2 0xA0D JUMP JUMPDEST DUP3 MSTORE POP POP JUMP JUMPDEST PUSH0 PUSH1 0x20 DUP3 ADD SWAP1 POP PUSH2 0xB37 PUSH0 DUP4 ADD DUP5 PUSH2 0xB15 JUMP JUMPDEST SWAP3 SWAP2 POP POP JUMP JUMPDEST PUSH32 0x4E487B7100000000000000000000000000000000000000000000000000000000 PUSH0 MSTORE PUSH1 0x32 PUSH1 0x4 MSTORE PUSH1 0x24 PUSH0 REVERT JUMPDEST PUSH32 0x4E487B7100000000000000000000000000000000000000000000000000000000 PUSH0 MSTORE PUSH1 0x22 PUSH1 0x4 MSTORE PUSH1 0x24 PUSH0 REVERT JUMPDEST PUSH0 PUSH1 0x2 DUP3 DIV SWAP1 POP PUSH1 0x1 DUP3 AND DUP1 PUSH2 0xBAE JUMPI PUSH1 0x7F DUP3 AND SWAP2 POP JUMPDEST PUSH1 0x20 DUP3 LT DUP2 SUB PUSH2 0xBC1 JUMPI PUSH2 0xBC0 PUSH2 0xB6A JUMP JUMPDEST JUMPDEST POP SWAP2 SWAP1 POP JUMP JUMPDEST PUSH0 DUP2 SWAP1 POP DUP2 PUSH0 MSTORE PUSH1 0x20 PUSH0 KECCAK256 SWAP1 POP SWAP2 SWAP1 POP JUMP JUMPDEST PUSH0 PUSH1 0x20 PUSH1 0x1F DUP4 ADD DIV SWAP1 POP SWAP2 SWAP1 POP JUMP JUMPDEST PUSH0 DUP3 DUP3 SHL SWAP1 POP SWAP3 SWAP2 POP POP JUMP JUMPDEST PUSH0 PUSH1 0x8 DUP4 MUL PUSH2 0xC23 PUSH32 0xFFFFFFFFFFFFFFFFFFFFFFFFFFFFFFFFFFFFFFFFFFFFFFFFFFFFFFFFFFFFFFFF DUP3 PUSH2 0xBE8 JUMP JUMPDEST PUSH2 0xC2D DUP7 DUP4 PUSH2 0xBE8 JUMP JUMPDEST SWAP6 POP DUP1 NOT DUP5 AND SWAP4 POP DUP1 DUP7 AND DUP5 OR SWAP3 POP POP POP SWAP4 SWAP3 POP POP POP JUMP JUMPDEST PUSH0 DUP2 SWAP1 POP SWAP2 SWAP1 POP JUMP JUMPDEST PUSH0 PUSH2 0xC68 PUSH2 0xC63 PUSH2 0xC5E DUP5 PUSH2 0xA0D JUMP JUMPDEST PUSH2 0xC45 JUMP JUMPDEST PUSH2 0xA0D JUMP JUMPDEST SWAP1 POP SWAP2 SWAP1 POP JUMP JUMPDEST PUSH0 DUP2 SWAP1 POP SWAP2 SWAP1 POP JUMP JUMPDEST PUSH2 0xC81 DUP4 PUSH2 0xC4E JUMP JUMPDEST PUSH2 0xC95 PUSH2 0xC8D DUP3 PUSH2 0xC6F JUMP JUMPDEST DUP5 DUP5 SLOAD PUSH2 0xBF4 JUMP JUMPDEST DUP3 SSTORE POP POP POP POP JUMP JUMPDEST PUSH0 PUSH0 SWAP1 POP SWAP1 JUMP JUMPDEST PUSH2 0xCAC PUSH2 0xC9D JUMP JUMPDEST PUSH2 0xCB7 DUP2 DUP5 DUP5 PUSH2 0xC78 JUMP JUMPDEST POP POP POP JUMP JUMPDEST JUMPDEST DUP2 DUP2 LT ISZERO PUSH2 0xCDA JUMPI PUSH2 0xCCF PUSH0 DUP3 PUSH2 0xCA4 JUMP JUMPDEST PUSH1 0x1 DUP2 ADD SWAP1 POP PUSH2 0xCBD JUMP JUMPDEST POP POP JUMP JUMPDEST PUSH1 0x1F DUP3 GT ISZERO PUSH2 0xD1F JUMPI PUSH2 0xCF0 DUP2 PUSH2 0xBC7 JUMP JUMPDEST PUSH2 0xCF9 DUP5 PUSH2 0xBD9 JUMP JUMPDEST DUP2 ADD PUSH1 0x20 DUP6 LT ISZERO PUSH2 0xD08 JUMPI DUP2 SWAP1 POP JUMPDEST PUSH2 0xD1C PUSH2 0xD14 DUP6 PUSH2 0xBD9 JUMP JUMPDEST DUP4 ADD DUP3 PUSH2 0xCBC JUMP JUMPDEST POP POP JUMPDEST POP POP POP JUMP JUMPDEST PUSH0 DUP3 DUP3 SHR SWAP1 POP SWAP3 SWAP2 POP POP JUMP JUMPDEST PUSH0 PUSH2 0xD3F PUSH0 NOT DUP5 PUSH1 0x8 MUL PUSH2 0xD24 JUMP JUMPDEST NOT DUP1 DUP4 AND SWAP2 POP POP SWAP3 SWAP2 POP POP JUMP JUMPDEST PUSH0 PUSH2 0xD57 DUP4 DUP4 PUSH2 0xD30 JUMP JUMPDEST SWAP2 POP DUP3 PUSH1 0x2 MUL DUP3 OR SWAP1 POP SWAP3 SWAP2 POP POP JUMP JUMPDEST PUSH2 0xD70 DUP3 PUSH2 0xA6B JUMP JUMPDEST PUSH8 0xFFFFFFFFFFFFFFFF DUP2 GT ISZERO PUSH2 0xD89 JUMPI PUSH2 0xD88 PUSH2 0x7CB JUMP JUMPDEST JUMPDEST PUSH2 0xD93 DUP3 SLOAD PUSH2 0xB97 JUMP JUMPDEST PUSH2 0xD9E DUP3 DUP3 DUP6 PUSH2 0xCDE JUMP JUMPDEST PUSH0 PUSH1 0x20 SWAP1 POP PUSH1 0x1F DUP4 GT PUSH1 0x1 DUP2 EQ PUSH2 0xDCF JUMPI PUSH0 DUP5 ISZERO PUSH2 0xDBD JUMPI DUP3 DUP8 ADD MLOAD SWAP1 POP JUMPDEST PUSH2 0xDC7 DUP6 DUP3 PUSH2 0xD4C JUMP JUMPDEST DUP7 SSTORE POP PUSH2 0xE2E JUMP JUMPDEST PUSH1 0x1F NOT DUP5 AND PUSH2 0xDDD DUP7 PUSH2 0xBC7 JUMP JUMPDEST PUSH0 JUMPDEST DUP3 DUP2 LT ISZERO PUSH2 0xE04 JUMPI DUP5 DUP10 ADD MLOAD DUP3 SSTORE PUSH1 0x1 DUP3 ADD SWAP2 POP PUSH1 0x20 DUP6 ADD SWAP5 POP PUSH1 0x20 DUP2 ADD SWAP1 POP PUSH2 0xDDF JUMP JUMPDEST DUP7 DUP4 LT ISZERO PUSH2 0xE21 JUMPI DUP5 DUP10 ADD MLOAD PUSH2 0xE1D PUSH1 0x1F DUP10 AND DUP3 PUSH2 0xD30 JUMP JUMPDEST DUP4 SSTORE POP JUMPDEST PUSH1 0x1 PUSH1 0x2 DUP9 MUL ADD DUP9 SSTORE POP POP POP JUMPDEST POP POP POP POP POP POP JUMP JUMPDEST PUSH32 0x4E487B7100000000000000000000000000000000000000000000000000000000 PUSH0 MSTORE PUSH1 0x1 PUSH1 0x4 MSTORE PUSH1 0x24 PUSH0 REVERT JUMPDEST PUSH32 0x4E487B7100000000000000000000000000000000000000000000000000000000 PUSH0 MSTORE PUSH1 0x11 PUSH1 0x4 MSTORE PUSH1 0x24 PUSH0 REVERT JUMPDEST PUSH0 PUSH2 0xE9A DUP3 PUSH2 0xA0D JUMP JUMPDEST SWAP2 POP PUSH2 0xEA5 DUP4 PUSH2 0xA0D JUMP JUMPDEST SWAP3 POP DUP3 DUP3 SUB SWAP1 POP DUP2 DUP2 GT ISZERO PUSH2 0xEBD JUMPI PUSH2 0xEBC PUSH2 0xE63 JUMP JUMPDEST JUMPDEST SWAP3 SWAP2 POP POP JUMP JUMPDEST PUSH0 DUP2 SLOAD SWAP1 POP PUSH2 0xED1 DUP2 PUSH2 0xB97 JUMP JUMPDEST SWAP1 POP SWAP2 SWAP1 POP JUMP JUMPDEST DUP2 DUP2 SUB PUSH2 0xEE6 JUMPI POP POP PUSH2 0xFBB JUMP JUMPDEST PUSH2 0xEEF DUP3 PUSH2 0xEC3 JUMP JUMPDEST PUSH8 0xFFFFFFFFFFFFFFFF DUP2 GT ISZERO PUSH2 0xF08 JUMPI PUSH2 0xF07 PUSH2 0x7CB JUMP JUMPDEST JUMPDEST PUSH2 0xF12 DUP3 SLOAD PUSH2 0xB97 JUMP JUMPDEST PUSH2 0xF1D DUP3 DUP3 DUP6 PUSH2 0xCDE JUMP JUMPDEST PUSH0 PUSH1 0x1F DUP4 GT PUSH1 0x1 DUP2 EQ PUSH2 0xF4A JUMPI PUSH0 DUP5 ISZERO PUSH2 0xF38 JUMPI DUP3 DUP8 ADD SLOAD SWAP1 POP JUMPDEST PUSH2 0xF42 DUP6 DUP3 PUSH2 0xD4C JUMP JUMPDEST DUP7 SSTORE POP PUSH2 0xFB4 JUMP JUMPDEST PUSH1 0x1F NOT DUP5 AND PUSH2 0xF58 DUP8 PUSH2 0xBC7 JUMP JUMPDEST SWAP7 POP PUSH2 0xF63 DUP7 PUSH2 0xBC7 JUMP JUMPDEST PUSH0 JUMPDEST DUP3 DUP2 LT ISZERO PUSH2 0xF8A JUMPI DUP5 DUP10 ADD SLOAD DUP3 SSTORE PUSH1 0x1 DUP3 ADD SWAP2 POP PUSH1 0x1 DUP6 ADD SWAP5 POP PUSH1 0x20 DUP2 ADD SWAP1 POP PUSH2 0xF65 JUMP JUMPDEST DUP7 DUP4 LT ISZERO PUSH2 0xFA7 JUMPI DUP5 DUP10 ADD SLOAD PUSH2 0xFA3 PUSH1 0x1F DUP10 AND DUP3 PUSH2 0xD30 JUMP JUMPDEST DUP4 SSTORE POP JUMPDEST PUSH1 0x1 PUSH1 0x2 DUP9 MUL ADD DUP9 SSTORE POP POP POP JUMPDEST POP POP POP POP POP POP JUMPDEST JUMP JUMPDEST PUSH0 PUSH2 0xFC7 DUP3 PUSH2 0xA0D JUMP JUMPDEST SWAP2 POP PUSH0 DUP3 SUB PUSH2 0xFD9 JUMPI PUSH2 0xFD8 PUSH2 0xE63 JUMP JUMPDEST JUMPDEST PUSH1 0x1 DUP3 SUB SWAP1 POP SWAP2 SWAP1 POP JUMP JUMPDEST PUSH0 PUSH2 0xFEE DUP3 PUSH2 0xA0D JUMP JUMPDEST SWAP2 POP PUSH32 0xFFFFFFFFFFFFFFFFFFFFFFFFFFFFFFFFFFFFFFFFFFFFFFFFFFFFFFFFFFFFFFFF DUP3 SUB PUSH2 0x1020 JUMPI PUSH2 0x101F PUSH2 0xE63 JUMP JUMPDEST JUMPDEST PUSH1 0x1 DUP3 ADD SWAP1 POP SWAP2 SWAP1 POP JUMP JUMPDEST PUSH0 DUP2 SWAP1 POP SWAP3 SWAP2 POP POP JUMP JUMPDEST PUSH0 PUSH2 0x103F DUP3 PUSH2 0xA6B JUMP JUMPDEST PUSH2 0x1049 DUP2 DUP6 PUSH2 0x102B JUMP JUMPDEST SWAP4 POP PUSH2 0x1059 DUP2 DUP6 PUSH1 0x20 DUP7 ADD PUSH2 0xA85 JUMP JUMPDEST DUP1 DUP5 ADD SWAP2 POP POP SWAP3 SWAP2 POP POP JUMP JUMPDEST PUSH0 PUSH2 0x1070 DUP3 DUP5 PUSH2 0x1035 JUMP JUMPDEST SWAP2 POP DUP2 SWAP1 POP SWAP3 SWAP2 POP POP JUMP INVALID LOG2 PUSH5 0x6970667358 0x22 SLT KECCAK256 0xC8 0xD5 0xB1 MSTORE ADDRESS SDIV 0xD EXTCODESIZE RETF 0x22 MSIZE SUB 0x27 0x2C BYTE 0xC4 0xD9 CALLDATALOAD PUSH25 0xA05D872867729F4FD7E3FAC53C64736F6C634300081E003300 "
		},
		"gasEstimates": {
			"creation": {
				"codeDepositCost": "854600",
				"executionCost": "5901",
				"totalCost": "860501"
			},
			"external": {
				"Objects(uint256)": "infinite",
				"TotalObjects()": "2491",
				"createObject(string,string,string)": "infinite",
				"delObject(string)": "infinite",
				"updateObject(string,string,string)": "infinite"
			},
			"internal": {
				"compareStrings(string memory,string memory)": "infinite"
			}
		},
		"methodIdentifiers": {
			"Objects(uint256)": "23438efb",
			"TotalObjects()": "997a2ebb",
			"createObject(string,string,string)": "33cefc63",
			"delObject(string)": "1e768493",
			"updateObject(string,string,string)": "15ed714f"
		}
	},
	"abi": [
		{
			"inputs": [],
			"stateMutability": "nonpayable",
			"type": "constructor"
		},
		{
			"inputs": [
				{
					"internalType": "uint256",
					"name": "",
					"type": "uint256"
				}
			],
			"name": "Objects",
			"outputs": [
				{
					"internalType": "string",
					"name": "name",
					"type": "string"
				},
				{
					"internalType": "string",
					"name": "description",
					"type": "string"
				},
				{
					"internalType": "string",
					"name": "email",
					"type": "string"
				}
			],
			"stateMutability": "view",
			"type": "function"
		},
		{
			"inputs": [],
			"name": "TotalObjects",
			"outputs": [
				{
					"internalType": "uint256",
					"name": "",
					"type": "uint256"
				}
			],
			"stateMutability": "view",
			"type": "function"
		},
		{
			"inputs": [
				{
					"internalType": "string",
					"name": "name",
					"type": "string"
				},
				{
					"internalType": "string",
					"name": "description",
					"type": "string"
				},
				{
					"internalType": "string",
					"name": "email",
					"type": "string"
				}
			],
			"name": "createObject",
			"outputs": [
				{
					"internalType": "uint256",
					"name": "",
					"type": "uint256"
				}
			],
			"stateMutability": "nonpayable",
			"type": "function"
		},
		{
			"inputs": [
				{
					"internalType": "string",
					"name": "email",
					"type": "string"
				}
			],
			"name": "delObject",
			"outputs": [
				{
					"internalType": "bool",
					"name": "",
					"type": "bool"
				}
			],
			"stateMutability": "nonpayable",
			"type": "function"
		},
		{
			"inputs": [
				{
					"internalType": "string",
					"name": "email",
					"type": "string"
				},
				{
					"internalType": "string",
					"name": "description",
					"type": "string"
				},
				{
					"internalType": "string",
					"name": "name",
					"type": "string"
				}
			],
			"name": "updateObject",
			"outputs": [
				{
					"internalType": "bool",
					"name": "",
					"type": "bool"
				}
			],
			"stateMutability": "nonpayable",
			"type": "function"
		}
	]
}